{
  "contractName": "DaiToken",
  "abi": [
    {
      "inputs": [],
      "stateMutability": "nonpayable",
      "type": "constructor"
    },
    {
      "anonymous": false,
      "inputs": [
        {
          "indexed": true,
          "internalType": "address",
          "name": "_owner",
          "type": "address"
        },
        {
          "indexed": true,
          "internalType": "address",
          "name": "_spender",
          "type": "address"
        },
        {
          "indexed": false,
          "internalType": "uint256",
          "name": "_value",
          "type": "uint256"
        }
      ],
      "name": "Approval",
      "type": "event"
    },
    {
      "anonymous": false,
      "inputs": [
        {
          "indexed": true,
          "internalType": "address",
          "name": "_from",
          "type": "address"
        },
        {
          "indexed": true,
          "internalType": "address",
          "name": "_to",
          "type": "address"
        },
        {
          "indexed": false,
          "internalType": "uint256",
          "name": "_value",
          "type": "uint256"
        }
      ],
      "name": "Transfer",
      "type": "event"
    },
    {
      "inputs": [
        {
          "internalType": "address",
          "name": "",
          "type": "address"
        },
        {
          "internalType": "address",
          "name": "",
          "type": "address"
        }
      ],
      "name": "allowed",
      "outputs": [
        {
          "internalType": "uint256",
          "name": "",
          "type": "uint256"
        }
      ],
      "stateMutability": "view",
      "type": "function"
    },
    {
      "inputs": [
        {
          "internalType": "address",
          "name": "",
          "type": "address"
        }
      ],
      "name": "balances",
      "outputs": [
        {
          "internalType": "uint256",
          "name": "",
          "type": "uint256"
        }
      ],
      "stateMutability": "view",
      "type": "function"
    },
    {
      "inputs": [],
      "name": "decimals",
      "outputs": [
        {
          "internalType": "uint8",
          "name": "",
          "type": "uint8"
        }
      ],
      "stateMutability": "view",
      "type": "function"
    },
    {
      "inputs": [],
      "name": "name",
      "outputs": [
        {
          "internalType": "string",
          "name": "",
          "type": "string"
        }
      ],
      "stateMutability": "view",
      "type": "function"
    },
    {
      "inputs": [],
      "name": "symbol",
      "outputs": [
        {
          "internalType": "string",
          "name": "",
          "type": "string"
        }
      ],
      "stateMutability": "view",
      "type": "function"
    },
    {
      "inputs": [],
      "name": "totalSupply_",
      "outputs": [
        {
          "internalType": "uint256",
          "name": "",
          "type": "uint256"
        }
      ],
      "stateMutability": "view",
      "type": "function"
    },
    {
      "inputs": [],
      "name": "totalSupply",
      "outputs": [
        {
          "internalType": "uint256",
          "name": "",
          "type": "uint256"
        }
      ],
      "stateMutability": "view",
      "type": "function"
    },
    {
      "inputs": [
        {
          "internalType": "address",
          "name": "_owner",
          "type": "address"
        }
      ],
      "name": "balanceOf",
      "outputs": [
        {
          "internalType": "uint256",
          "name": "",
          "type": "uint256"
        }
      ],
      "stateMutability": "view",
      "type": "function"
    },
    {
      "inputs": [
        {
          "internalType": "address",
          "name": "_to",
          "type": "address"
        },
        {
          "internalType": "uint256",
          "name": "_value",
          "type": "uint256"
        }
      ],
      "name": "transfer",
      "outputs": [
        {
          "internalType": "bool",
          "name": "success",
          "type": "bool"
        }
      ],
      "stateMutability": "nonpayable",
      "type": "function"
    },
    {
      "inputs": [
        {
          "internalType": "address",
          "name": "_spender",
          "type": "address"
        },
        {
          "internalType": "uint256",
          "name": "_value",
          "type": "uint256"
        }
      ],
      "name": "approve",
      "outputs": [
        {
          "internalType": "bool",
          "name": "success",
          "type": "bool"
        }
      ],
      "stateMutability": "nonpayable",
      "type": "function"
    },
    {
      "inputs": [
        {
          "internalType": "address",
          "name": "_from",
          "type": "address"
        },
        {
          "internalType": "address",
          "name": "_to",
          "type": "address"
        },
        {
          "internalType": "uint256",
          "name": "_value",
          "type": "uint256"
        }
      ],
      "name": "transferFrom",
      "outputs": [
        {
          "internalType": "bool",
          "name": "success",
          "type": "bool"
        }
      ],
      "stateMutability": "nonpayable",
      "type": "function"
    },
    {
      "inputs": [
        {
          "internalType": "address",
          "name": "_owner",
          "type": "address"
        },
        {
          "internalType": "address",
          "name": "_spender",
          "type": "address"
        }
      ],
      "name": "allowance",
      "outputs": [
        {
          "internalType": "uint256",
          "name": "remaining",
          "type": "uint256"
        }
      ],
      "stateMutability": "view",
      "type": "function"
    }
  ],
  "bytecode": "0x60806040526040518060400160405280600e81526020017f4c4954452044414920546f6b656e000000000000000000000000000000000000815250600090805190602001906200005192919062000126565b506040518060400160405280600481526020017f4c44414900000000000000000000000000000000000000000000000000000000815250600190805190602001906200009f92919062000126565b506b204fce5e3e250261100000006002556012600360006101000a81548160ff021916908360ff160217905550348015620000d957600080fd5b50600254600460003373ffffffffffffffffffffffffffffffffffffffff1673ffffffffffffffffffffffffffffffffffffffff168152602001908152602001600020819055506200023b565b8280546200013490620001d6565b90600052602060002090601f016020900481019282620001585760008555620001a4565b82601f106200017357805160ff1916838001178555620001a4565b82800160010185558215620001a4579182015b82811115620001a357825182559160200191906001019062000186565b5b509050620001b39190620001b7565b5090565b5b80821115620001d2576000816000905550600101620001b8565b5090565b60006002820490506001821680620001ef57607f821691505b602082108114156200020657620002056200020c565b5b50919050565b7f4e487b7100000000000000000000000000000000000000000000000000000000600052602260045260246000fd5b610df2806200024b6000396000f3fe608060405234801561001057600080fd5b50600436106100b45760003560e01c8063324536eb11610071578063324536eb146101a35780635c658165146101c157806370a08231146101f157806395d89b4114610221578063a9059cbb1461023f578063dd62ed3e1461026f576100b4565b806306fdde03146100b9578063095ea7b3146100d757806318160ddd1461010757806323b872dd1461012557806327e235e314610155578063313ce56714610185575b600080fd5b6100c161029f565b6040516100ce9190610b67565b60405180910390f35b6100f160048036038101906100ec9190610aaa565b61032d565b6040516100fe9190610b4c565b60405180910390f35b61010f61041f565b60405161011c9190610b89565b60405180910390f35b61013f600480360381019061013a9190610a5b565b610429565b60405161014c9190610b4c565b60405180910390f35b61016f600480360381019061016a91906109f6565b6106af565b60405161017c9190610b89565b60405180910390f35b61018d6106c7565b60405161019a9190610ba4565b60405180910390f35b6101ab6106da565b6040516101b89190610b89565b60405180910390f35b6101db60048036038101906101d69190610a1f565b6106e0565b6040516101e89190610b89565b60405180910390f35b61020b600480360381019061020691906109f6565b610705565b6040516102189190610b89565b60405180910390f35b61022961074e565b6040516102369190610b67565b60405180910390f35b61025960048036038101906102549190610aaa565b6107dc565b6040516102669190610b4c565b60405180910390f35b61028960048036038101906102849190610a1f565b610945565b6040516102969190610b89565b60405180910390f35b600080546102ac90610ced565b80601f01602080910402602001604051908101604052809291908181526020018280546102d890610ced565b80156103255780601f106102fa57610100808354040283529160200191610325565b820191906000526020600020905b81548152906001019060200180831161030857829003601f168201915b505050505081565b600081600560003373ffffffffffffffffffffffffffffffffffffffff1673ffffffffffffffffffffffffffffffffffffffff16815260200190815260200160002060008573ffffffffffffffffffffffffffffffffffffffff1673ffffffffffffffffffffffffffffffffffffffff168152602001908152602001600020819055508273ffffffffffffffffffffffffffffffffffffffff163373ffffffffffffffffffffffffffffffffffffffff167f8c5be1e5ebec7d5bd14f71427d1e84f3dd0314c0f7b2291e5b200ac8c7c3b9258460405161040d9190610b89565b60405180910390a36001905092915050565b6000600254905090565b6000600460008573ffffffffffffffffffffffffffffffffffffffff1673ffffffffffffffffffffffffffffffffffffffff1681526020019081526020016000205482111561047757600080fd5b600560008573ffffffffffffffffffffffffffffffffffffffff1673ffffffffffffffffffffffffffffffffffffffff16815260200190815260200160002060003373ffffffffffffffffffffffffffffffffffffffff1673ffffffffffffffffffffffffffffffffffffffff1681526020019081526020016000205482111561050057600080fd5b81600460008673ffffffffffffffffffffffffffffffffffffffff1673ffffffffffffffffffffffffffffffffffffffff168152602001908152602001600020600082825461054f9190610c31565b9250508190555081600460008573ffffffffffffffffffffffffffffffffffffffff1673ffffffffffffffffffffffffffffffffffffffff16815260200190815260200160002060008282546105a59190610bdb565b9250508190555081600560008673ffffffffffffffffffffffffffffffffffffffff1673ffffffffffffffffffffffffffffffffffffffff16815260200190815260200160002060003373ffffffffffffffffffffffffffffffffffffffff1673ffffffffffffffffffffffffffffffffffffffff16815260200190815260200160002060008282546106389190610c31565b925050819055508273ffffffffffffffffffffffffffffffffffffffff168473ffffffffffffffffffffffffffffffffffffffff167fddf252ad1be2c89b69c2b068fc378daa952ba7f163c4a11628f55a4df523b3ef8460405161069c9190610b89565b60405180910390a3600190509392505050565b60046020528060005260406000206000915090505481565b600360009054906101000a900460ff1681565b60025481565b6005602052816000526040600020602052806000526040600020600091509150505481565b6000600460008373ffffffffffffffffffffffffffffffffffffffff1673ffffffffffffffffffffffffffffffffffffffff168152602001908152602001600020549050919050565b6001805461075b90610ced565b80601f016020809104026020016040519081016040528092919081815260200182805461078790610ced565b80156107d45780601f106107a9576101008083540402835291602001916107d4565b820191906000526020600020905b8154815290600101906020018083116107b757829003601f168201915b505050505081565b600081600460003373ffffffffffffffffffffffffffffffffffffffff1673ffffffffffffffffffffffffffffffffffffffff16815260200190815260200160002054101561082a57600080fd5b81600460003373ffffffffffffffffffffffffffffffffffffffff1673ffffffffffffffffffffffffffffffffffffffff16815260200190815260200160002060008282546108799190610c31565b9250508190555081600460008573ffffffffffffffffffffffffffffffffffffffff1673ffffffffffffffffffffffffffffffffffffffff16815260200190815260200160002060008282546108cf9190610bdb565b925050819055508273ffffffffffffffffffffffffffffffffffffffff163373ffffffffffffffffffffffffffffffffffffffff167fddf252ad1be2c89b69c2b068fc378daa952ba7f163c4a11628f55a4df523b3ef846040516109339190610b89565b60405180910390a36001905092915050565b6000600560008473ffffffffffffffffffffffffffffffffffffffff1673ffffffffffffffffffffffffffffffffffffffff16815260200190815260200160002060008373ffffffffffffffffffffffffffffffffffffffff1673ffffffffffffffffffffffffffffffffffffffff16815260200190815260200160002054905092915050565b6000813590506109db81610d8e565b92915050565b6000813590506109f081610da5565b92915050565b600060208284031215610a0857600080fd5b6000610a16848285016109cc565b91505092915050565b60008060408385031215610a3257600080fd5b6000610a40858286016109cc565b9250506020610a51858286016109cc565b9150509250929050565b600080600060608486031215610a7057600080fd5b6000610a7e868287016109cc565b9350506020610a8f868287016109cc565b9250506040610aa0868287016109e1565b9150509250925092565b60008060408385031215610abd57600080fd5b6000610acb858286016109cc565b9250506020610adc858286016109e1565b9150509250929050565b610aef81610c77565b82525050565b6000610b0082610bbf565b610b0a8185610bca565b9350610b1a818560208601610cba565b610b2381610d7d565b840191505092915050565b610b3781610ca3565b82525050565b610b4681610cad565b82525050565b6000602082019050610b616000830184610ae6565b92915050565b60006020820190508181036000830152610b818184610af5565b905092915050565b6000602082019050610b9e6000830184610b2e565b92915050565b6000602082019050610bb96000830184610b3d565b92915050565b600081519050919050565b600082825260208201905092915050565b6000610be682610ca3565b9150610bf183610ca3565b9250827fffffffffffffffffffffffffffffffffffffffffffffffffffffffffffffffff03821115610c2657610c25610d1f565b5b828201905092915050565b6000610c3c82610ca3565b9150610c4783610ca3565b925082821015610c5a57610c59610d1f565b5b828203905092915050565b6000610c7082610c83565b9050919050565b60008115159050919050565b600073ffffffffffffffffffffffffffffffffffffffff82169050919050565b6000819050919050565b600060ff82169050919050565b60005b83811015610cd8578082015181840152602081019050610cbd565b83811115610ce7576000848401525b50505050565b60006002820490506001821680610d0557607f821691505b60208210811415610d1957610d18610d4e565b5b50919050565b7f4e487b7100000000000000000000000000000000000000000000000000000000600052601160045260246000fd5b7f4e487b7100000000000000000000000000000000000000000000000000000000600052602260045260246000fd5b6000601f19601f8301169050919050565b610d9781610c65565b8114610da257600080fd5b50565b610dae81610ca3565b8114610db957600080fd5b5056fea2646970667358221220aaf09056460abc67d4d06c4f353b9efc715de10f99dee62b7de249a8d5da6d8f64736f6c63430008040033",
  "immutableReferences": {},
  "source": "pragma solidity ^0.8.0;\r\ncontract DaiToken {\r\n    string  public name = \"LITE DAI Token\";                      // Set the name for display purposes\r\n    string  public symbol = \"LDAI\";                             // Set the symbol for display purposes\r\n    uint256 public totalSupply_ = 10000000000000000000000000000;    // Give the creator all initial tokens (100000 for example)\r\n    uint8   public decimals = 18;                               // Amount of decimals for display purposes\r\n\r\n    event Transfer(\r\n        address indexed _from,\r\n        address indexed _to,\r\n        uint256 _value\r\n    );\r\n\r\n    event Approval(\r\n        address indexed _owner,\r\n        address indexed _spender,\r\n        uint256 _value\r\n    );\r\n\r\n    mapping(address => uint256) public balances;\r\n    mapping(address => mapping(address => uint256)) public allowed;\r\n\r\n    constructor() public {\r\n        balances[msg.sender] = totalSupply_;\r\n    }\r\n    \r\n    // @return total amount of tokens\r\n    \r\n    function totalSupply() public view returns (uint256) {\r\n        return totalSupply_;\r\n    }\r\n    \r\n    // @param address_owner The address from which the balance will be retrieved\r\n    // @return The balance\r\n    function balanceOf(address _owner) public view returns (uint256) {\r\n        return balances[_owner];\r\n    }\r\n    \r\n    \r\n    \r\n    // @notice send `_value` token to `_to` from `msg.sender`\r\n    // @param _to The address of the recipient\r\n    // @param _value The amount of token to be transferred\r\n    // @return Whether the transfer was successful or not\r\n    function transfer(address _to, uint256 _value) public returns (bool success) {\r\n        require(balances[msg.sender] >= _value);\r\n        balances[msg.sender] -= _value;\r\n        balances[_to] += _value;\r\n        emit Transfer(msg.sender, _to, _value);\r\n        return true;\r\n    }\r\n    \r\n    // @notice `msg.sender` approves `_addr` to spend `_value` tokens\r\n    // @param _spender The address of the account able to transfer the tokens\r\n    // @param _value The amount of wei to be approved for transfer\r\n    // @return Whether the approval was successful or not\r\n    function approve(address _spender, uint256 _value) public returns (bool success) {\r\n        allowed[msg.sender][_spender] = _value;\r\n        emit Approval(msg.sender, _spender, _value);\r\n        return true;\r\n    }\r\n    \r\n    // @notice send `_value` token to `_to` from `_from` on the condition it is approved by `_from`\r\n    // @param _from The address of the sender\r\n    // @param _to The address of the recipient\r\n    // @param _value The amount of token to be transferred\r\n    // @return Whether the transfer was successful or not\r\n    function transferFrom(address _from, address _to, uint256 _value) public returns (bool success) {\r\n        require(_value <= balances[_from]);\r\n        require(_value <= allowed[_from][msg.sender]);\r\n        balances[_from] -= _value;\r\n        balances[_to] += _value;\r\n        allowed[_from][msg.sender] -= _value;\r\n        emit Transfer(_from, _to, _value);\r\n        return true;\r\n    }\r\n    // @param _owner The address of the account owning tokens\r\n    // @param _spender The address of the account able to transfer the tokens\r\n    // @return Amount of remaining tokens allowed to spent\r\n    function allowance(address _owner, address _spender) public view returns (uint256 remaining) {\r\n        return allowed[_owner][_spender];\r\n    }\r\n}",
  "sourcePath": "/home/emplug7/applications/liteswapv1/contracts/DaiToken.sol",
  "compiler": {
    "name": "solc",
    "version": "0.8.4+commit.c7e474f2.Emscripten.clang"
  },
  "schemaVersion": "3.3.4",
  "updatedAt": "2021-04-26T10:00:08.458Z",
  "devdoc": {
    "kind": "dev",
    "methods": {},
    "version": 1
  },
  "userdoc": {
    "kind": "user",
    "methods": {},
    "version": 1
  }
}