{
  "contractName": "LiteSwapDAO1",
  "abi": [
    {
      "inputs": [],
      "stateMutability": "nonpayable",
      "type": "constructor"
    },
    {
      "anonymous": false,
      "inputs": [
        {
          "indexed": true,
          "internalType": "address",
          "name": "addr",
          "type": "address"
        },
        {
          "indexed": false,
          "internalType": "string",
          "name": "groupName",
          "type": "string"
        }
      ],
      "name": "GroupCreated",
      "type": "event"
    },
    {
      "anonymous": false,
      "inputs": [
        {
          "indexed": true,
          "internalType": "address",
          "name": "member",
          "type": "address"
        }
      ],
      "name": "MemberAddedFund",
      "type": "event"
    },
    {
      "anonymous": false,
      "inputs": [
        {
          "indexed": true,
          "internalType": "address",
          "name": "member",
          "type": "address"
        },
        {
          "indexed": false,
          "internalType": "bool",
          "name": "joined",
          "type": "bool"
        }
      ],
      "name": "MemberJoined",
      "type": "event"
    },
    {
      "anonymous": false,
      "inputs": [
        {
          "indexed": true,
          "internalType": "address",
          "name": "previousOwner",
          "type": "address"
        },
        {
          "indexed": true,
          "internalType": "address",
          "name": "newOwner",
          "type": "address"
        }
      ],
      "name": "OwnershipTransferred",
      "type": "event"
    },
    {
      "inputs": [
        {
          "internalType": "uint256",
          "name": "",
          "type": "uint256"
        }
      ],
      "name": "groupMemberList",
      "outputs": [
        {
          "internalType": "address",
          "name": "",
          "type": "address"
        }
      ],
      "stateMutability": "view",
      "type": "function"
    },
    {
      "inputs": [
        {
          "internalType": "bytes32",
          "name": "",
          "type": "bytes32"
        }
      ],
      "name": "groupMembers",
      "outputs": [
        {
          "internalType": "bytes32",
          "name": "id",
          "type": "bytes32"
        },
        {
          "internalType": "string",
          "name": "groupName",
          "type": "string"
        },
        {
          "internalType": "address",
          "name": "groupCreator",
          "type": "address"
        },
        {
          "internalType": "uint256",
          "name": "groupBalance",
          "type": "uint256"
        },
        {
          "internalType": "uint256",
          "name": "groupCreationAmount",
          "type": "uint256"
        },
        {
          "internalType": "uint256",
          "name": "groupIndex",
          "type": "uint256"
        },
        {
          "internalType": "uint256",
          "name": "createdTime",
          "type": "uint256"
        },
        {
          "internalType": "enum LiteSwapDAO1.GroupState",
          "name": "groupState",
          "type": "uint8"
        }
      ],
      "stateMutability": "view",
      "type": "function"
    },
    {
      "inputs": [
        {
          "internalType": "uint256",
          "name": "",
          "type": "uint256"
        }
      ],
      "name": "groupNames",
      "outputs": [
        {
          "internalType": "string",
          "name": "",
          "type": "string"
        }
      ],
      "stateMutability": "view",
      "type": "function"
    },
    {
      "inputs": [],
      "name": "groupState",
      "outputs": [
        {
          "internalType": "enum LiteSwapDAO1.GroupState",
          "name": "",
          "type": "uint8"
        }
      ],
      "stateMutability": "view",
      "type": "function"
    },
    {
      "inputs": [
        {
          "internalType": "address",
          "name": "",
          "type": "address"
        }
      ],
      "name": "membersContributions",
      "outputs": [
        {
          "internalType": "uint256",
          "name": "",
          "type": "uint256"
        }
      ],
      "stateMutability": "view",
      "type": "function"
    },
    {
      "inputs": [],
      "name": "owner",
      "outputs": [
        {
          "internalType": "address",
          "name": "",
          "type": "address"
        }
      ],
      "stateMutability": "view",
      "type": "function"
    },
    {
      "inputs": [],
      "name": "renounceOwnership",
      "outputs": [],
      "stateMutability": "nonpayable",
      "type": "function"
    },
    {
      "inputs": [
        {
          "internalType": "address",
          "name": "newOwner",
          "type": "address"
        }
      ],
      "name": "transferOwnership",
      "outputs": [],
      "stateMutability": "nonpayable",
      "type": "function"
    },
    {
      "inputs": [
        {
          "internalType": "string",
          "name": "_groupName",
          "type": "string"
        },
        {
          "internalType": "uint256",
          "name": "amount",
          "type": "uint256"
        }
      ],
      "name": "createCooperativeGroup",
      "outputs": [
        {
          "internalType": "bool",
          "name": "success",
          "type": "bool"
        }
      ],
      "stateMutability": "payable",
      "type": "function"
    },
    {
      "inputs": [
        {
          "internalType": "string",
          "name": "groupName",
          "type": "string"
        }
      ],
      "name": "addMember",
      "outputs": [
        {
          "internalType": "bool",
          "name": "",
          "type": "bool"
        }
      ],
      "stateMutability": "payable",
      "type": "function"
    },
    {
      "inputs": [
        {
          "internalType": "string",
          "name": "groupName",
          "type": "string"
        }
      ],
      "name": "getAllGroupMembersCount",
      "outputs": [
        {
          "internalType": "uint256",
          "name": "",
          "type": "uint256"
        }
      ],
      "stateMutability": "view",
      "type": "function"
    }
  ],
  "bytecode": "0x608060405261001261015360201b60201c565b600160006101000a81548173ffffffffffffffffffffffffffffffffffffffff021916908373ffffffffffffffffffffffffffffffffffffffff16021790555034801561005e57600080fd5b50600061006f61017c60201b60201c565b9050806000806101000a81548173ffffffffffffffffffffffffffffffffffffffff021916908373ffffffffffffffffffffffffffffffffffffffff1602179055508073ffffffffffffffffffffffffffffffffffffffff16600073ffffffffffffffffffffffffffffffffffffffff167f8be0079c531659141344cd1fd0a4f28419497f9722a3daafe3b4186f6b6457e060405160405180910390a35033600160006101000a81548173ffffffffffffffffffffffffffffffffffffffff021916908373ffffffffffffffffffffffffffffffffffffffff160217905550610184565b60008060009054906101000a900473ffffffffffffffffffffffffffffffffffffffff16905090565b600033905090565b6118fc806101936000396000f3fe60806040526004361061009c5760003560e01c8063936345171161006457806393634517146101945780639b8193e6146101d15780639e4d3099146101fc578063cfe86b9814610239578063d6271edf14610269578063f2fde38b146102a65761009c565b806311433874146100a157806342d3f2ed146100e5578063715018a6146101225780638da5cb5b14610139578063918f968714610164575b600080fd5b3480156100ad57600080fd5b506100c860048036038101906100c39190610fb5565b6102cf565b6040516100dc98979695949392919061132c565b60405180910390f35b3480156100f157600080fd5b5061010c60048036038101906101079190611073565b6103cc565b60405161011991906112f6565b60405180910390f35b34801561012e57600080fd5b5061013761040b565b005b34801561014557600080fd5b5061014e610545565b60405161015b91906112f6565b60405180910390f35b61017e60048036038101906101799190610fde565b61056e565b60405161018b9190611311565b60405180910390f35b3480156101a057600080fd5b506101bb60048036038101906101b69190610fde565b61074a565b6040516101c8919061144e565b60405180910390f35b3480156101dd57600080fd5b506101e6610878565b6040516101f391906113b1565b60405180910390f35b34801561020857600080fd5b50610223600480360381019061021e9190610f8c565b61088b565b604051610230919061144e565b60405180910390f35b610253600480360381019061024e919061101f565b6108a3565b6040516102609190611311565b60405180910390f35b34801561027557600080fd5b50610290600480360381019061028b9190611073565b610be5565b60405161029d91906113cc565b60405180910390f35b3480156102b257600080fd5b506102cd60048036038101906102c89190610f8c565b610c91565b005b60036020528060005260406000206000915090508060000154908060010180546102f8906115e8565b80601f0160208091040260200160405190810160405280929190818152602001828054610324906115e8565b80156103715780601f1061034657610100808354040283529160200191610371565b820191906000526020600020905b81548152906001019060200180831161035457829003601f168201915b5050505050908060020160009054906101000a900473ffffffffffffffffffffffffffffffffffffffff16908060040154908060050154908060060154908060070154908060080160009054906101000a900460ff16905088565b600681815481106103dc57600080fd5b906000526020600020016000915054906101000a900473ffffffffffffffffffffffffffffffffffffffff1681565b610413610e3a565b73ffffffffffffffffffffffffffffffffffffffff16610431610545565b73ffffffffffffffffffffffffffffffffffffffff1614610487576040517f08c379a000000000000000000000000000000000000000000000000000000000815260040161047e9061142e565b60405180910390fd5b600073ffffffffffffffffffffffffffffffffffffffff1660008054906101000a900473ffffffffffffffffffffffffffffffffffffffff1673ffffffffffffffffffffffffffffffffffffffff167f8be0079c531659141344cd1fd0a4f28419497f9722a3daafe3b4186f6b6457e060405160405180910390a360008060006101000a81548173ffffffffffffffffffffffffffffffffffffffff021916908373ffffffffffffffffffffffffffffffffffffffff160217905550565b60008060009054906101000a900473ffffffffffffffffffffffffffffffffffffffff16905090565b6000806000801b905060005b600580549050811015610679578360405160200161059891906112c8565b60405160208183030381529060405280519060200120600582815481106105e8577f4e487b7100000000000000000000000000000000000000000000000000000000600052603260045260246000fd5b9060005260206000200160405160200161060291906112df565b6040516020818303038152906040528051906020012014156106665760048181548110610658577f4e487b7100000000000000000000000000000000000000000000000000000000600052603260045260246000fd5b906000526020600020015491505b80806106719061164b565b91505061057a565b5060036000828152602001908152602001600020600301339080600181540180825580915050600190039060005260206000200160009091909190916101000a81548173ffffffffffffffffffffffffffffffffffffffff021916908373ffffffffffffffffffffffffffffffffffffffff1602179055503373ffffffffffffffffffffffffffffffffffffffff167f65924ed81952443d8d3f09bbd0093fb71891133c774e1ec3a9a32a67762c5f8060016040516107389190611311565b60405180910390a26001915050919050565b6000806000801b905060005b600580549050811015610855578360405160200161077491906112c8565b60405160208183030381529060405280519060200120600582815481106107c4577f4e487b7100000000000000000000000000000000000000000000000000000000600052603260045260246000fd5b906000526020600020016040516020016107de91906112df565b6040516020818303038152906040528051906020012014156108425760048181548110610834577f4e487b7100000000000000000000000000000000000000000000000000000000600052603260045260246000fd5b906000526020600020015491505b808061084d9061164b565b915050610756565b506003600082815260200190815260200160002060030180549050915050919050565b600160149054906101000a900460ff1681565b60026020528060005260406000206000915090505481565b6000808351116108e8576040517f08c379a00000000000000000000000000000000000000000000000000000000081526004016108df906113ee565b60405180910390fd5b60006001436108f791906114fb565b409050600033854284604051602001610913949392919061127e565b604051602081830303815290604052805190602001209050600481908060018154018082558091505060019003906000526020600020016000909190919091505560058590806001815401808255809150506001900390600052602060002001600090919091909150908051906020019061098f929190610e42565b50806003600083815260200190815260200160002060000181905550846003600083815260200190815260200160002060010190805190602001906109d5929190610e42565b50600160009054906101000a900473ffffffffffffffffffffffffffffffffffffffff166003600083815260200190815260200160002060020160006101000a81548173ffffffffffffffffffffffffffffffffffffffff021916908373ffffffffffffffffffffffffffffffffffffffff16021790555060036000828152602001908152602001600020600301339080600181540180825580915050600190039060005260206000200160009091909190916101000a81548173ffffffffffffffffffffffffffffffffffffffff021916908373ffffffffffffffffffffffffffffffffffffffff1602179055508360036000838152602001908152602001600020600501819055506001600480549050610af191906114fb565b600360008381526020019081526020016000206006018190555042600360008381526020019081526020016000206007018190555060006003600083815260200190815260200160002060080160006101000a81548160ff02191690836002811115610b86577f4e487b7100000000000000000000000000000000000000000000000000000000600052602160045260246000fd5b02179055503073ffffffffffffffffffffffffffffffffffffffff167fc41039f832f30470d1a983be3dc26f5432197ae33f31f1170f73fccfd67439fb86604051610bd191906113cc565b60405180910390a260019250505092915050565b60058181548110610bf557600080fd5b906000526020600020016000915090508054610c10906115e8565b80601f0160208091040260200160405190810160405280929190818152602001828054610c3c906115e8565b8015610c895780601f10610c5e57610100808354040283529160200191610c89565b820191906000526020600020905b815481529060010190602001808311610c6c57829003601f168201915b505050505081565b610c99610e3a565b73ffffffffffffffffffffffffffffffffffffffff16610cb7610545565b73ffffffffffffffffffffffffffffffffffffffff1614610d0d576040517f08c379a0000000000000000000000000000000000000000000000000000000008152600401610d049061142e565b60405180910390fd5b600073ffffffffffffffffffffffffffffffffffffffff168173ffffffffffffffffffffffffffffffffffffffff161415610d7d576040517f08c379a0000000000000000000000000000000000000000000000000000000008152600401610d749061140e565b60405180910390fd5b8073ffffffffffffffffffffffffffffffffffffffff1660008054906101000a900473ffffffffffffffffffffffffffffffffffffffff1673ffffffffffffffffffffffffffffffffffffffff167f8be0079c531659141344cd1fd0a4f28419497f9722a3daafe3b4186f6b6457e060405160405180910390a3806000806101000a81548173ffffffffffffffffffffffffffffffffffffffff021916908373ffffffffffffffffffffffffffffffffffffffff16021790555050565b600033905090565b828054610e4e906115e8565b90600052602060002090601f016020900481019282610e705760008555610eb7565b82601f10610e8957805160ff1916838001178555610eb7565b82800160010185558215610eb7579182015b82811115610eb6578251825591602001919060010190610e9b565b5b509050610ec49190610ec8565b5090565b5b80821115610ee1576000816000905550600101610ec9565b5090565b6000610ef8610ef38461148e565b611469565b905082815260208101848484011115610f1057600080fd5b610f1b8482856115a6565b509392505050565b600081359050610f3281611881565b92915050565b600081359050610f4781611898565b92915050565b600082601f830112610f5e57600080fd5b8135610f6e848260208601610ee5565b91505092915050565b600081359050610f86816118af565b92915050565b600060208284031215610f9e57600080fd5b6000610fac84828501610f23565b91505092915050565b600060208284031215610fc757600080fd5b6000610fd584828501610f38565b91505092915050565b600060208284031215610ff057600080fd5b600082013567ffffffffffffffff81111561100a57600080fd5b61101684828501610f4d565b91505092915050565b6000806040838503121561103257600080fd5b600083013567ffffffffffffffff81111561104c57600080fd5b61105885828601610f4d565b925050602061106985828601610f77565b9150509250929050565b60006020828403121561108557600080fd5b600061109384828501610f77565b91505092915050565b6110a58161152f565b82525050565b6110bc6110b78261152f565b611694565b82525050565b6110cb81611541565b82525050565b6110da8161154d565b82525050565b6110f16110ec8261154d565b6116a6565b82525050565b61110081611594565b82525050565b6000611111826114d4565b61111b81856114df565b935061112b8185602086016115b5565b61113481611788565b840191505092915050565b600061114a826114d4565b61115481856114f0565b93506111648185602086016115b5565b80840191505092915050565b6000815461117d816115e8565b61118781866114f0565b945060018216600081146111a257600181146111b3576111e6565b60ff198316865281860193506111e6565b6111bc856114bf565b60005b838110156111de578154818901526001820191506020810190506111bf565b838801955050505b50505092915050565b60006111fc6025836114df565b9150611207826117a6565b604082019050919050565b600061121f6026836114df565b915061122a826117f5565b604082019050919050565b60006112426020836114df565b915061124d82611844565b602082019050919050565b6112618161158a565b82525050565b6112786112738261158a565b6116c2565b82525050565b600061128a82876110ab565b60148201915061129a828661113f565b91506112a68285611267565b6020820191506112b682846110e0565b60208201915081905095945050505050565b60006112d4828461113f565b915081905092915050565b60006112eb8284611170565b915081905092915050565b600060208201905061130b600083018461109c565b92915050565b600060208201905061132660008301846110c2565b92915050565b600061010082019050611342600083018b6110d1565b8181036020830152611354818a611106565b9050611363604083018961109c565b6113706060830188611258565b61137d6080830187611258565b61138a60a0830186611258565b61139760c0830185611258565b6113a460e08301846110f7565b9998505050505050505050565b60006020820190506113c660008301846110f7565b92915050565b600060208201905081810360008301526113e68184611106565b905092915050565b60006020820190508181036000830152611407816111ef565b9050919050565b6000602082019050818103600083015261142781611212565b9050919050565b6000602082019050818103600083015261144781611235565b9050919050565b60006020820190506114636000830184611258565b92915050565b6000611473611484565b905061147f828261161a565b919050565b6000604051905090565b600067ffffffffffffffff8211156114a9576114a8611759565b5b6114b282611788565b9050602081019050919050565b60008190508160005260206000209050919050565b600081519050919050565b600082825260208201905092915050565b600081905092915050565b60006115068261158a565b91506115118361158a565b925082821015611524576115236116cc565b5b828203905092915050565b600061153a8261156a565b9050919050565b60008115159050919050565b6000819050919050565b60008190506115658261186d565b919050565b600073ffffffffffffffffffffffffffffffffffffffff82169050919050565b6000819050919050565b600061159f82611557565b9050919050565b82818337600083830152505050565b60005b838110156115d35780820151818401526020810190506115b8565b838111156115e2576000848401525b50505050565b6000600282049050600182168061160057607f821691505b602082108114156116145761161361172a565b5b50919050565b61162382611788565b810181811067ffffffffffffffff8211171561164257611641611759565b5b80604052505050565b60006116568261158a565b91507fffffffffffffffffffffffffffffffffffffffffffffffffffffffffffffffff821415611689576116886116cc565b5b600182019050919050565b600061169f826116b0565b9050919050565b6000819050919050565b60006116bb82611799565b9050919050565b6000819050919050565b7f4e487b7100000000000000000000000000000000000000000000000000000000600052601160045260246000fd5b7f4e487b7100000000000000000000000000000000000000000000000000000000600052602160045260246000fd5b7f4e487b7100000000000000000000000000000000000000000000000000000000600052602260045260246000fd5b7f4e487b7100000000000000000000000000000000000000000000000000000000600052604160045260246000fd5b6000601f19601f8301169050919050565b60008160601b9050919050565b7f5468652067726f75706e616d652773206e616d652063616e6e6f74206265206560008201527f6d70747921000000000000000000000000000000000000000000000000000000602082015250565b7f4f776e61626c653a206e6577206f776e657220697320746865207a65726f206160008201527f6464726573730000000000000000000000000000000000000000000000000000602082015250565b7f4f776e61626c653a2063616c6c6572206973206e6f7420746865206f776e6572600082015250565b6003811061187e5761187d6116fb565b5b50565b61188a8161152f565b811461189557600080fd5b50565b6118a18161154d565b81146118ac57600080fd5b50565b6118b88161158a565b81146118c357600080fd5b5056fea2646970667358221220404c5c7fbe2cd945a2158f03d1f80fec9c9cf30842581be9421f0a0c86cf09dc64736f6c63430008030033",
  "immutableReferences": {},
  "source": "// SPDX-License-Identifier: MIT\n\npragma solidity ^0.8.0;\n\n\n\nimport \"@openzeppelin/contracts/access/Ownable.sol\";\nimport \"@openzeppelin/contracts/utils/math/SafeMath.sol\";\n\ncontract LiteSwapDAO1 is Ownable {\n\n\n  using SafeMath for uint;\n\n    //Group Basic info\n\n    address _owner = owner();\n\n    struct GroupDetails {\n     bytes32 id;\n     string  groupName;\n     address groupCreator;\n     address[] groupMemberAddressList;\n     uint  groupBalance;\n     uint groupCreationAmount;  \n     uint groupIndex;\n     uint createdTime;\n     GroupState groupState;\n    }\n  \n\n     enum GroupState {Created, Updated, Deleted}\n\n     GroupState public groupState;\n\n     mapping(address => uint) public membersContributions;\n\n     mapping(bytes32 => GroupDetails) public groupMembers;\n\n     bytes32[] private groupIds;\n     string[] public groupNames;\n     address[] public groupMemberList;\n\n     event GroupCreated(address indexed addr, string groupName);\n\n     event MemberJoined(address indexed member, bool joined);\n\n     event MemberAddedFund(address indexed member);\n\n  //     modifier memberHasContributed(address sender) {\n  //   require(membersContributions[sender] > 0);\n  //   _;\n  // }\n\n  constructor() public {\n    _owner = msg.sender;\n  }\n\n      /// Create a new Cooperative Group contract\n  /// @param _groupName - Name of the Cooperative\n  /// @param amount - The minimum stake required to create a group\n\n      function createCooperativeGroup(string memory _groupName, uint amount) public payable returns(bool success) {\n        require(bytes(_groupName).length > 0, \"The groupname's name cannot be empty!\");\n        \n        bytes32 blockHash = blockhash(block.number - 1);\n        bytes32 id = keccak256(abi.encodePacked(msg.sender, _groupName, block.timestamp, blockHash));\n\n\n        groupIds.push(id);\n        groupNames.push(_groupName);\n    \n  \n        groupMembers[id].id = id;\n        groupMembers[id].groupName = _groupName;\n        groupMembers[id].groupCreator = _owner;\n        groupMembers[id].groupMemberAddressList.push(msg.sender);\n        groupMembers[id].groupCreationAmount = amount;\n        groupMembers[id].groupIndex = groupIds.length - 1;\n        groupMembers[id].createdTime = block.timestamp;\n        groupMembers[id].groupState = GroupState.Created;\n\n        emit GroupCreated(address(this), _groupName);\n        \n        return true;\n    }\n\n    //add a member to the group\n\n    function addMember(string memory groupName) public payable returns(bool) {      \n       bytes32 _addr = 0x00;\n      for(uint i = 0; i < groupNames.length; i++ ){\n        if(keccak256(abi.encodePacked(groupNames[i])) == keccak256(abi.encodePacked(groupName))){\n           _addr =  groupIds[i];\n        }\n      }\n       groupMembers[_addr].groupMemberAddressList.push(msg.sender);\n\n       emit MemberJoined(msg.sender, true);\n\n       return true;\n      \n    }\n\n  //get all members count belonging to a group\n\n  function getAllGroupMembersCount(string memory groupName) public view returns (uint256) {\n        bytes32 _addr = 0x00;\n      for(uint i = 0; i < groupNames.length; i++ ){\n        if(keccak256(abi.encodePacked(groupNames[i])) == keccak256(abi.encodePacked(groupName))){\n           _addr =  groupIds[i];\n        }\n      }\n       return groupMembers[_addr].groupMemberAddressList.length;\n\n  }\n \n}",
  "sourcePath": "/home/emplug7/applications/liteswapv1/contracts/LiteSwapDAO1.sol",
  "compiler": {
    "name": "solc",
    "version": "0.8.3+commit.8d00100c.Emscripten.clang"
  },
  "schemaVersion": "3.3.4",
  "updatedAt": "2021-04-20T12:27:04.935Z",
  "devdoc": {
    "kind": "dev",
    "methods": {
      "createCooperativeGroup(string,uint256)": {
        "params": {
          "_groupName": "- Name of the Cooperative",
          "amount": "- The minimum stake required to create a group"
        }
      },
      "owner()": {
        "details": "Returns the address of the current owner."
      },
      "renounceOwnership()": {
        "details": "Leaves the contract without owner. It will not be possible to call `onlyOwner` functions anymore. Can only be called by the current owner. NOTE: Renouncing ownership will leave the contract without an owner, thereby removing any functionality that is only available to the owner."
      },
      "transferOwnership(address)": {
        "details": "Transfers ownership of the contract to a new account (`newOwner`). Can only be called by the current owner."
      }
    },
    "version": 1
  },
  "userdoc": {
    "kind": "user",
    "methods": {
      "createCooperativeGroup(string,uint256)": {
        "notice": "Create a new Cooperative Group contract"
      }
    },
    "version": 1
  }
}