{
  "contractName": "LiteSwapDAO",
  "abi": [
    {
      "inputs": [],
      "stateMutability": "nonpayable",
      "type": "constructor"
    },
    {
      "anonymous": false,
      "inputs": [
        {
          "indexed": false,
          "internalType": "address",
          "name": "groupAddress",
          "type": "address"
        }
      ],
      "name": "LTSGroupCreated",
      "type": "event"
    },
    {
      "inputs": [],
      "name": "groupCount",
      "outputs": [
        {
          "internalType": "uint256",
          "name": "",
          "type": "uint256"
        }
      ],
      "stateMutability": "view",
      "type": "function"
    },
    {
      "inputs": [
        {
          "internalType": "address",
          "name": "",
          "type": "address"
        }
      ],
      "name": "liteSwapGroupMap",
      "outputs": [
        {
          "internalType": "string",
          "name": "groupName",
          "type": "string"
        },
        {
          "internalType": "address",
          "name": "groupCreator",
          "type": "address"
        },
        {
          "internalType": "uint256",
          "name": "groupBalance",
          "type": "uint256"
        },
        {
          "internalType": "uint256",
          "name": "_groupIndex",
          "type": "uint256"
        }
      ],
      "stateMutability": "view",
      "type": "function"
    },
    {
      "inputs": [],
      "name": "owner",
      "outputs": [
        {
          "internalType": "address",
          "name": "",
          "type": "address"
        }
      ],
      "stateMutability": "view",
      "type": "function"
    },
    {
      "inputs": [
        {
          "internalType": "string",
          "name": "gName",
          "type": "string"
        }
      ],
      "name": "createLTSGroup",
      "outputs": [],
      "stateMutability": "nonpayable",
      "type": "function"
    },
    {
      "inputs": [
        {
          "internalType": "address",
          "name": "groupAddress",
          "type": "address"
        },
        {
          "internalType": "uint256",
          "name": "groupInitialDues",
          "type": "uint256"
        }
      ],
      "name": "addMembersToLTSGroup",
      "outputs": [
        {
          "internalType": "bool",
          "name": "",
          "type": "bool"
        }
      ],
      "stateMutability": "nonpayable",
      "type": "function"
    },
    {
      "inputs": [
        {
          "internalType": "address",
          "name": "group_addr",
          "type": "address"
        }
      ],
      "name": "checkIfMemberAlreadyExist",
      "outputs": [
        {
          "internalType": "bool",
          "name": "",
          "type": "bool"
        }
      ],
      "stateMutability": "view",
      "type": "function"
    },
    {
      "inputs": [
        {
          "internalType": "address payable",
          "name": "groupAddr",
          "type": "address"
        },
        {
          "internalType": "uint256",
          "name": "amount",
          "type": "uint256"
        }
      ],
      "name": "addLiquidityToLTSGroupAccount",
      "outputs": [
        {
          "internalType": "bool",
          "name": "",
          "type": "bool"
        },
        {
          "internalType": "uint256",
          "name": "",
          "type": "uint256"
        }
      ],
      "stateMutability": "nonpayable",
      "type": "function"
    },
    {
      "inputs": [],
      "name": "getGroupCount",
      "outputs": [
        {
          "internalType": "uint256",
          "name": "",
          "type": "uint256"
        }
      ],
      "stateMutability": "view",
      "type": "function"
    },
    {
      "inputs": [],
      "name": "getGroupNames",
      "outputs": [
        {
          "internalType": "string[]",
          "name": "",
          "type": "string[]"
        }
      ],
      "stateMutability": "view",
      "type": "function"
    }
  ],
  "bytecode": "0x60806040526000600155600060025534801561001a57600080fd5b50336000806101000a81548173ffffffffffffffffffffffffffffffffffffffff021916908373ffffffffffffffffffffffffffffffffffffffff16021790555033600360006101000a81548173ffffffffffffffffffffffffffffffffffffffff021916908373ffffffffffffffffffffffffffffffffffffffff1602179055506110cb806100ab6000396000f3fe608060405234801561001057600080fd5b50600436106100935760003560e01c80637cc72cab116100665780637cc72cab146101355780638da5cb5b146101665780638f23b32614610184578063a2336188146101a2578063d5f016c3146101d257610093565b806306545a93146100985780632bb11d84146100b657806341044c58146100e657806363519a3614610119575b600080fd5b6100a06101f0565b6040516100ad9190610dce565b60405180910390f35b6100d060048036038101906100cb9190610b58565b6101fd565b6040516100dd9190610d3e565b60405180910390f35b61010060048036038101906100fb9190610af3565b61031d565b6040516101109493929190610d82565b60405180910390f35b610133600480360381019061012e9190610b94565b6103f5565b005b61014f600480360381019061014a9190610b1c565b610732565b60405161015d929190610d59565b60405180910390f35b61016e61073c565b60405161017b9190610d01565b60405180910390f35b61018c610762565b6040516101999190610dce565b60405180910390f35b6101bc60048036038101906101b79190610af3565b610768565b6040516101c99190610d3e565b60405180910390f35b6101da6108ee565b6040516101e79190610d1c565b60405180910390f35b6000600980549050905090565b600061020883610768565b156102165760009050610317565b81600b60008573ffffffffffffffffffffffffffffffffffffffff1673ffffffffffffffffffffffffffffffffffffffff16815260200190815260200160002060020160008282546102689190610e4f565b92505081905550600b60008473ffffffffffffffffffffffffffffffffffffffff1673ffffffffffffffffffffffffffffffffffffffff168152602001908152602001600020600301339080600181540180825580915050600190039060005260206000200160009091909190916101000a81548173ffffffffffffffffffffffffffffffffffffffff021916908373ffffffffffffffffffffffffffffffffffffffff160217905550600190505b92915050565b600b60205280600052604060002060009150905080600001805461034090610f66565b80601f016020809104026020016040519081016040528092919081815260200182805461036c90610f66565b80156103b95780601f1061038e576101008083540402835291602001916103b9565b820191906000526020600020905b81548152906001019060200180831161039c57829003601f168201915b5050505050908060010160009054906101000a900473ffffffffffffffffffffffffffffffffffffffff16908060020154908060040154905084565b60003090508282600b60008473ffffffffffffffffffffffffffffffffffffffff1673ffffffffffffffffffffffffffffffffffffffff168152602001908152602001600020600001919061044b9291906109c7565b50600360009054906101000a900473ffffffffffffffffffffffffffffffffffffffff16600b60008373ffffffffffffffffffffffffffffffffffffffff1673ffffffffffffffffffffffffffffffffffffffff16815260200190815260200160002060010160006101000a81548173ffffffffffffffffffffffffffffffffffffffff021916908373ffffffffffffffffffffffffffffffffffffffff160217905550600254600b60008373ffffffffffffffffffffffffffffffffffffffff1673ffffffffffffffffffffffffffffffffffffffff16815260200190815260200160002060020181905550600b60008273ffffffffffffffffffffffffffffffffffffffff1673ffffffffffffffffffffffffffffffffffffffff168152602001908152602001600020600301600360009054906101000a900473ffffffffffffffffffffffffffffffffffffffff169080600181540180825580915050600190039060005260206000200160009091909190916101000a81548173ffffffffffffffffffffffffffffffffffffffff021916908373ffffffffffffffffffffffffffffffffffffffff160217905550600160098054905061060f9190610ea5565b600b60008373ffffffffffffffffffffffffffffffffffffffff1673ffffffffffffffffffffffffffffffffffffffff168152602001908152602001600020600401819055506009819080600181540180825580915050600190039060005260206000200160009091909190916101000a81548173ffffffffffffffffffffffffffffffffffffffff021916908373ffffffffffffffffffffffffffffffffffffffff160217905550600a8383909180600181540180825580915050600190039060005260206000200160009091929091929091929091925091906106f59291906109c7565b507f6182bb61d166d358fd1359513dfdca6f4fcffe3e0b13405255f14e62f8d17d6e816040516107259190610d01565b60405180910390a1505050565b6000809250929050565b600360009054906101000a900473ffffffffffffffffffffffffffffffffffffffff1681565b60015481565b600080600b60008473ffffffffffffffffffffffffffffffffffffffff1673ffffffffffffffffffffffffffffffffffffffff16815260200190815260200160002060030180548060200260200160405190810160405280929190818152602001828054801561082d57602002820191906000526020600020905b8160009054906101000a900473ffffffffffffffffffffffffffffffffffffffff1673ffffffffffffffffffffffffffffffffffffffff16815260200190600101908083116107e3575b505050505090506000815114156108485760009150506108e9565b60005b81518110156108e6573373ffffffffffffffffffffffffffffffffffffffff168282815181106108a4577f4e487b7100000000000000000000000000000000000000000000000000000000600052603260045260246000fd5b602002602001015173ffffffffffffffffffffffffffffffffffffffff1614156108d3576001925050506108e9565b80806108de90610f98565b91505061084b565b50505b919050565b6060600a805480602002602001604051908101604052809291908181526020016000905b828210156109be57838290600052602060002001805461093190610f66565b80601f016020809104026020016040519081016040528092919081815260200182805461095d90610f66565b80156109aa5780601f1061097f576101008083540402835291602001916109aa565b820191906000526020600020905b81548152906001019060200180831161098d57829003601f168201915b505050505081526020019060010190610912565b50505050905090565b8280546109d390610f66565b90600052602060002090601f0160209004810192826109f55760008555610a3c565b82601f10610a0e57803560ff1916838001178555610a3c565b82800160010185558215610a3c579182015b82811115610a3b578235825591602001919060010190610a20565b5b509050610a499190610a4d565b5090565b5b80821115610a66576000816000905550600101610a4e565b5090565b600081359050610a7981611050565b92915050565b600081359050610a8e81611067565b92915050565b60008083601f840112610aa657600080fd5b8235905067ffffffffffffffff811115610abf57600080fd5b602083019150836001820283011115610ad757600080fd5b9250929050565b600081359050610aed8161107e565b92915050565b600060208284031215610b0557600080fd5b6000610b1384828501610a6a565b91505092915050565b60008060408385031215610b2f57600080fd5b6000610b3d85828601610a7f565b9250506020610b4e85828601610ade565b9150509250929050565b60008060408385031215610b6b57600080fd5b6000610b7985828601610a6a565b9250506020610b8a85828601610ade565b9150509250929050565b60008060208385031215610ba757600080fd5b600083013567ffffffffffffffff811115610bc157600080fd5b610bcd85828601610a94565b92509250509250929050565b6000610be58383610c80565b905092915050565b610bf681610ed9565b82525050565b6000610c0782610df9565b610c118185610e1c565b935083602082028501610c2385610de9565b8060005b85811015610c5f5784840389528151610c408582610bd9565b9450610c4b83610e0f565b925060208a01995050600181019050610c27565b50829750879550505050505092915050565b610c7a81610efd565b82525050565b6000610c8b82610e04565b610c958185610e2d565b9350610ca5818560208601610f33565b610cae8161103f565b840191505092915050565b6000610cc482610e04565b610cce8185610e3e565b9350610cde818560208601610f33565b610ce78161103f565b840191505092915050565b610cfb81610f29565b82525050565b6000602082019050610d166000830184610bed565b92915050565b60006020820190508181036000830152610d368184610bfc565b905092915050565b6000602082019050610d536000830184610c71565b92915050565b6000604082019050610d6e6000830185610c71565b610d7b6020830184610cf2565b9392505050565b60006080820190508181036000830152610d9c8187610cb9565b9050610dab6020830186610bed565b610db86040830185610cf2565b610dc56060830184610cf2565b95945050505050565b6000602082019050610de36000830184610cf2565b92915050565b6000819050602082019050919050565b600081519050919050565b600081519050919050565b6000602082019050919050565b600082825260208201905092915050565b600082825260208201905092915050565b600082825260208201905092915050565b6000610e5a82610f29565b9150610e6583610f29565b9250827fffffffffffffffffffffffffffffffffffffffffffffffffffffffffffffffff03821115610e9a57610e99610fe1565b5b828201905092915050565b6000610eb082610f29565b9150610ebb83610f29565b925082821015610ece57610ecd610fe1565b5b828203905092915050565b6000610ee482610f09565b9050919050565b6000610ef682610f09565b9050919050565b60008115159050919050565b600073ffffffffffffffffffffffffffffffffffffffff82169050919050565b6000819050919050565b60005b83811015610f51578082015181840152602081019050610f36565b83811115610f60576000848401525b50505050565b60006002820490506001821680610f7e57607f821691505b60208210811415610f9257610f91611010565b5b50919050565b6000610fa382610f29565b91507fffffffffffffffffffffffffffffffffffffffffffffffffffffffffffffffff821415610fd657610fd5610fe1565b5b600182019050919050565b7f4e487b7100000000000000000000000000000000000000000000000000000000600052601160045260246000fd5b7f4e487b7100000000000000000000000000000000000000000000000000000000600052602260045260246000fd5b6000601f19601f8301169050919050565b61105981610ed9565b811461106457600080fd5b50565b61107081610eeb565b811461107b57600080fd5b50565b61108781610f29565b811461109257600080fd5b5056fea2646970667358221220897f58898cc24c8385e4246889294f92655907cdf92967866b9ec87ba593495264736f6c63430008030033",
  "immutableReferences": {},
  "source": "// SPDX-License-Identifier: MIT\n\npragma solidity ^0.8.0;\n\n\npragma experimental ABIEncoderV2;\n\nimport \"./interfaces/ILiteSwapDAO.sol\";\nimport \"./LTSERC20.sol\";\n\ncontract LiteSwapDAO is LTSERC20{\n\n    uint public  groupCount = 0;\n\n    uint private groundAccountBalance = 0;\n\n    address public owner;\n\n //structure to hold the group created\n   \n    struct LiteSwapGroup {\n        string groupName;\n        address groupCreator;\n        uint groupBalance;\n        address[] liteSwapGroupMembers;\n        uint _groupIndex;  \n    }\n\n    LiteSwapGroup ltsTypeOf;\n\n    address[] liteSwapGroupId;\n\n\n    string[] allGroupNames;\n\n    mapping(address => LiteSwapGroup) public liteSwapGroupMap;\n\n    event LTSGroupCreated(address groupAddress);\n\n    constructor() LTSERC20() public{\n        owner = msg.sender;\n        // _balances[address(this)] = groundAccountBalance;\n    }\n\n    //add members to group\n     function createLTSGroup(string calldata gName) external{\n         address groupAddress = address(this);\n         liteSwapGroupMap[groupAddress].groupName = gName;\n         liteSwapGroupMap[groupAddress].groupCreator = owner;\n         liteSwapGroupMap[groupAddress].groupBalance = groundAccountBalance;\n         liteSwapGroupMap[groupAddress].liteSwapGroupMembers.push(owner);\n         liteSwapGroupMap[groupAddress]._groupIndex = liteSwapGroupId.length - 1;\n\n         liteSwapGroupId.push(groupAddress);\n         allGroupNames.push(gName);\n\n         emit LTSGroupCreated(groupAddress);\n         \n         \n     }\n\n    /**\n     * @dev Add memebers who selected group to group\n     */\n\n    function addMembersToLTSGroup(address groupAddress, uint256 groupInitialDues) external returns(bool){\n   if(checkIfMemberAlreadyExist(groupAddress)) return false;\n        liteSwapGroupMap[groupAddress].groupBalance += groupInitialDues;\n        liteSwapGroupMap[groupAddress].liteSwapGroupMembers.push(msg.sender);\n        return true;\n        \n    }\n\n    /**\n     * @dev get all the groups\n     */\n  \n    function checkIfMemberAlreadyExist(address group_addr) public view returns (bool) {\n        address[] memory groupMembers = liteSwapGroupMap[group_addr].liteSwapGroupMembers;\n        if(groupMembers.length == 0){\n           return false;  \n        }\n       \n        for(uint i = 0; i < groupMembers.length; i++ ){\n            if(groupMembers[i] == msg.sender) {\n                return true;\n            }\n        }\n    }\n\n\n    /**\n     * @dev Add funds to the group\n     */\n    \n     function addLiquidityToLTSGroupAccount(\n         address payable groupAddr, \n         uint256 amount) external returns (bool, uint256){\n             \n        //  require(member.balance <= amount, \"No Sufficient Fund!\");\n        //  require((member == address(0)), \"No Valid Account Found\");\n\n            // _balances[msg.sender] -= amount;\n            // _balances[groupAddr] += amount;\n            // liteSwapGroupMap[groupAddr].groupBalance = _balances[groupAddr];\n\n            \n        }\n\n    /**\n     * @dev get all the groups\n     */\n\n    function getGroupCount() public view returns (uint256){\n        return liteSwapGroupId.length;\n    }\n\n    function getGroupNames() public view returns (string[] memory){\n        return allGroupNames;\n    }\n\n    // fallback()external payable {\n    //     require(msg.value == 0);\n    // }\n\n}",
  "sourcePath": "/home/emplug7/applications/liteswapv1/contracts/LiteSwapDAO.sol",
  "compiler": {
    "name": "solc",
    "version": "0.8.3+commit.8d00100c.Emscripten.clang"
  },
  "schemaVersion": "3.3.4",
  "updatedAt": "2021-04-17T15:24:23.370Z",
  "devdoc": {
    "kind": "dev",
    "methods": {
      "addLiquidityToLTSGroupAccount(address,uint256)": {
        "details": "Add funds to the group"
      },
      "addMembersToLTSGroup(address,uint256)": {
        "details": "Add memebers who selected group to group"
      },
      "checkIfMemberAlreadyExist(address)": {
        "details": "get all the groups"
      },
      "getGroupCount()": {
        "details": "get all the groups"
      }
    },
    "version": 1
  },
  "userdoc": {
    "kind": "user",
    "methods": {},
    "version": 1
  }
}