{
  "contractName": "LiteSwapDAOFactory",
  "abi": [
    {
      "inputs": [],
      "stateMutability": "nonpayable",
      "type": "constructor"
    },
    {
      "anonymous": false,
      "inputs": [
        {
          "indexed": true,
          "internalType": "address",
          "name": "previousOwner",
          "type": "address"
        },
        {
          "indexed": true,
          "internalType": "address",
          "name": "newOwner",
          "type": "address"
        }
      ],
      "name": "OwnershipTransferred",
      "type": "event"
    },
    {
      "inputs": [
        {
          "internalType": "uint256",
          "name": "",
          "type": "uint256"
        }
      ],
      "name": "cooperativeGroups",
      "outputs": [
        {
          "internalType": "address",
          "name": "",
          "type": "address"
        }
      ],
      "stateMutability": "view",
      "type": "function",
      "constant": true
    },
    {
      "inputs": [
        {
          "internalType": "uint256",
          "name": "",
          "type": "uint256"
        }
      ],
      "name": "createdGroupNames",
      "outputs": [
        {
          "internalType": "string",
          "name": "",
          "type": "string"
        }
      ],
      "stateMutability": "view",
      "type": "function",
      "constant": true
    },
    {
      "inputs": [],
      "name": "owner",
      "outputs": [
        {
          "internalType": "address",
          "name": "",
          "type": "address"
        }
      ],
      "stateMutability": "view",
      "type": "function",
      "constant": true
    },
    {
      "inputs": [],
      "name": "renounceOwnership",
      "outputs": [],
      "stateMutability": "nonpayable",
      "type": "function"
    },
    {
      "inputs": [
        {
          "internalType": "address",
          "name": "newOwner",
          "type": "address"
        }
      ],
      "name": "transferOwnership",
      "outputs": [],
      "stateMutability": "nonpayable",
      "type": "function"
    },
    {
      "inputs": [
        {
          "internalType": "string",
          "name": "groupName",
          "type": "string"
        },
        {
          "internalType": "uint256",
          "name": "amount",
          "type": "uint256"
        }
      ],
      "name": "createCooperativeGroup",
      "outputs": [],
      "stateMutability": "payable",
      "type": "function",
      "payable": true
    },
    {
      "inputs": [
        {
          "internalType": "address",
          "name": "_groupAddr",
          "type": "address"
        }
      ],
      "name": "joinCooperativeGroup",
      "outputs": [],
      "stateMutability": "payable",
      "type": "function",
      "payable": true
    },
    {
      "inputs": [
        {
          "internalType": "uint256",
          "name": "dues",
          "type": "uint256"
        },
        {
          "internalType": "string",
          "name": "groupName",
          "type": "string"
        }
      ],
      "name": "payYourGroupDues",
      "outputs": [],
      "stateMutability": "nonpayable",
      "type": "function"
    },
    {
      "inputs": [],
      "name": "getcooperativeGroups",
      "outputs": [
        {
          "internalType": "address[]",
          "name": "",
          "type": "address[]"
        }
      ],
      "stateMutability": "view",
      "type": "function",
      "constant": true
    },
    {
      "inputs": [],
      "name": "getcooperativeGroupNames",
      "outputs": [
        {
          "internalType": "string[]",
          "name": "",
          "type": "string[]"
        }
      ],
      "stateMutability": "view",
      "type": "function",
      "constant": true
    }
  ],
  "bytecode": "0x608060405234801561001057600080fd5b5060006100216100c460201b60201c565b9050806000806101000a81548173ffffffffffffffffffffffffffffffffffffffff021916908373ffffffffffffffffffffffffffffffffffffffff1602179055508073ffffffffffffffffffffffffffffffffffffffff16600073ffffffffffffffffffffffffffffffffffffffff167f8be0079c531659141344cd1fd0a4f28419497f9722a3daafe3b4186f6b6457e060405160405180910390a3506100cc565b600033905090565b612721806100db6000396000f3fe6080604052600436106200009e5760003560e01c80638cf4011211620000615780638cf4011214620001a35780638da5cb5b14620001d3578063cfe86b981462000203578063d8c6b4141462000223578063f2fde38b1462000243576200009e565b8063715018a614620000a357806375985dd114620000bd57806375e97c5a14620001015780638170905814620001455780638b1ab72c1462000173575b600080fd5b348015620000b057600080fd5b50620000bb62000271565b005b348015620000ca57600080fd5b50620000e96004803603810190620000e3919062000ea1565b620003b2565b604051620000f8919062001145565b60405180910390f35b3480156200010e57600080fd5b506200012d600480360381019062000127919062000ea1565b620003f2565b6040516200013c9190620011aa565b60405180910390f35b3480156200015257600080fd5b506200017160048036038101906200016b919062000ecd565b620004a7565b005b3480156200018057600080fd5b506200018b6200055a565b6040516200019a919062001186565b60405180910390f35b348015620001b057600080fd5b50620001bb6200063d565b604051620001ca919062001162565b60405180910390f35b348015620001e057600080fd5b50620001eb620006cd565b604051620001fa919062001145565b60405180910390f35b6200022160048036038101906200021b919062000e47565b620006f6565b005b6200024160048036038101906200023b919062000e1b565b62000876565b005b3480156200025057600080fd5b506200026f600480360381019062000269919062000e1b565b6200091c565b005b6200027b62000acf565b73ffffffffffffffffffffffffffffffffffffffff166200029b620006cd565b73ffffffffffffffffffffffffffffffffffffffff1614620002f4576040517f08c379a0000000000000000000000000000000000000000000000000000000008152600401620002eb9062001224565b60405180910390fd5b600073ffffffffffffffffffffffffffffffffffffffff1660008054906101000a900473ffffffffffffffffffffffffffffffffffffffff1673ffffffffffffffffffffffffffffffffffffffff167f8be0079c531659141344cd1fd0a4f28419497f9722a3daafe3b4186f6b6457e060405160405180910390a360008060006101000a81548173ffffffffffffffffffffffffffffffffffffffff021916908373ffffffffffffffffffffffffffffffffffffffff160217905550565b60028181548110620003c357600080fd5b906000526020600020016000915054906101000a900473ffffffffffffffffffffffffffffffffffffffff1681565b600381815481106200040357600080fd5b90600052602060002001600091509050805462000420906200141f565b80601f01602080910402602001604051908101604052809291908181526020018280546200044e906200141f565b80156200049f5780601f1062000473576101008083540402835291602001916200049f565b820191906000526020600020905b8154815290600101906020018083116200048157829003601f168201915b505050505081565b60008183604051620004b99062000aef565b620004c6929190620011ce565b604051809103906000f080158015620004e3573d6000803e3d6000fd5b5090508073ffffffffffffffffffffffffffffffffffffffff1663c1cbbca7846040518263ffffffff1660e01b815260040162000521919062001246565b600060405180830381600087803b1580156200053c57600080fd5b505af115801562000551573d6000803e3d6000fd5b50505050505050565b60606003805480602002602001604051908101604052809291908181526020016000905b8282101562000634578382906000526020600020018054620005a0906200141f565b80601f0160208091040260200160405190810160405280929190818152602001828054620005ce906200141f565b80156200061f5780601f10620005f3576101008083540402835291602001916200061f565b820191906000526020600020905b8154815290600101906020018083116200060157829003601f168201915b5050505050815260200190600101906200057e565b50505050905090565b60606002805480602002602001604051908101604052809291908181526020018280548015620006c357602002820191906000526020600020905b8160009054906101000a900473ffffffffffffffffffffffffffffffffffffffff1673ffffffffffffffffffffffffffffffffffffffff168152602001906001019080831162000678575b5050505050905090565b60008060009054906101000a900473ffffffffffffffffffffffffffffffffffffffff16905090565b60008282604051620007089062000aef565b62000715929190620011ce565b604051809103906000f08015801562000732573d6000803e3d6000fd5b509050600081905060006002905060006003905081839080600181540180825580915050600190039060005260206000200160009091909190916101000a81548173ffffffffffffffffffffffffffffffffffffffff021916908373ffffffffffffffffffffffffffffffffffffffff1602179055508086908060018154018082558091505060019003906000526020600020016000909190919091509080519060200190620007e492919062000afd565b5062000800600160028054905062000ad790919063ffffffff16565b600160008573ffffffffffffffffffffffffffffffffffffffff1673ffffffffffffffffffffffffffffffffffffffff168152602001908152602001600020600101819055508160029080546200085992919062000b8e565b508060039080546200086d92919062000be5565b50505050505050565b600160008273ffffffffffffffffffffffffffffffffffffffff1673ffffffffffffffffffffffffffffffffffffffff168152602001908152602001600020600001339080600181540180825580915050600190039060005260206000200160009091909190916101000a81548173ffffffffffffffffffffffffffffffffffffffff021916908373ffffffffffffffffffffffffffffffffffffffff16021790555050565b6200092662000acf565b73ffffffffffffffffffffffffffffffffffffffff1662000946620006cd565b73ffffffffffffffffffffffffffffffffffffffff16146200099f576040517f08c379a0000000000000000000000000000000000000000000000000000000008152600401620009969062001224565b60405180910390fd5b600073ffffffffffffffffffffffffffffffffffffffff168173ffffffffffffffffffffffffffffffffffffffff16141562000a12576040517f08c379a000000000000000000000000000000000000000000000000000000000815260040162000a099062001202565b60405180910390fd5b8073ffffffffffffffffffffffffffffffffffffffff1660008054906101000a900473ffffffffffffffffffffffffffffffffffffffff1673ffffffffffffffffffffffffffffffffffffffff167f8be0079c531659141344cd1fd0a4f28419497f9722a3daafe3b4186f6b6457e060405160405180910390a3806000806101000a81548173ffffffffffffffffffffffffffffffffffffffff021916908373ffffffffffffffffffffffffffffffffffffffff16021790555050565b600033905090565b6000818362000ae7919062001361565b905092915050565b61111680620015d683390190565b82805462000b0b906200141f565b90600052602060002090601f01602090048101928262000b2f576000855562000b7b565b82601f1062000b4a57805160ff191683800117855562000b7b565b8280016001018555821562000b7b579182015b8281111562000b7a57825182559160200191906001019062000b5d565b5b50905062000b8a919062000c56565b5090565b82805482825590600052602060002090810192821562000bd25760005260206000209182015b8281111562000bd157825482559160010191906001019062000bb4565b5b50905062000be1919062000c56565b5090565b82805482825590600052602060002090810192821562000c435760005260206000209182015b8281111562000c4257828290805462000c24906200141f565b62000c3192919062000c75565b509160010191906001019062000c0b565b5b50905062000c52919062000d0d565b5090565b5b8082111562000c7157600081600090555060010162000c57565b5090565b82805462000c83906200141f565b90600052602060002090601f01602090048101928262000ca7576000855562000cfa565b82601f1062000cba578054855562000cfa565b8280016001018555821562000cfa57600052602060002091601f016020900482015b8281111562000cf957825482559160010191906001019062000cdc565b5b50905062000d09919062000c56565b5090565b5b8082111562000d31576000818162000d27919062000d35565b5060010162000d0e565b5090565b50805462000d43906200141f565b6000825580601f1062000d57575062000d78565b601f01602090049060005260206000209081019062000d77919062000c56565b5b50565b600062000d9262000d8c846200128c565b62001263565b90508281526020810184848401111562000dab57600080fd5b62000db8848285620013da565b509392505050565b60008135905062000dd181620015a1565b92915050565b600082601f83011262000de957600080fd5b813562000dfb84826020860162000d7b565b91505092915050565b60008135905062000e1581620015bb565b92915050565b60006020828403121562000e2e57600080fd5b600062000e3e8482850162000dc0565b91505092915050565b6000806040838503121562000e5b57600080fd5b600083013567ffffffffffffffff81111562000e7657600080fd5b62000e848582860162000dd7565b925050602062000e978582860162000e04565b9150509250929050565b60006020828403121562000eb457600080fd5b600062000ec48482850162000e04565b91505092915050565b6000806040838503121562000ee157600080fd5b600062000ef18582860162000e04565b925050602083013567ffffffffffffffff81111562000f0f57600080fd5b62000f1d8582860162000dd7565b9150509250929050565b600062000f35838362000f57565b60208301905092915050565b600062000f4f838362001064565b905092915050565b62000f62816200139c565b82525050565b62000f73816200139c565b82525050565b600062000f8682620012e2565b62000f9281856200131d565b935062000f9f83620012c2565b8060005b8381101562000fd657815162000fba888262000f27565b975062000fc78362001303565b92505060018101905062000fa3565b5085935050505092915050565b600062000ff082620012ed565b62000ffc81856200132e565b9350836020820285016200101085620012d2565b8060005b8581101562001052578484038952815162001030858262000f41565b94506200103d8362001310565b925060208a0199505060018101905062001014565b50829750879550505050505092915050565b60006200107182620012f8565b6200107d81856200133f565b93506200108f818560208601620013e9565b6200109a8162001518565b840191505092915050565b6000620010b282620012f8565b620010be818562001350565b9350620010d0818560208601620013e9565b620010db8162001518565b840191505092915050565b6000620010f560268362001350565b9150620011028262001529565b604082019050919050565b60006200111c60208362001350565b9150620011298262001578565b602082019050919050565b6200113f81620013d0565b82525050565b60006020820190506200115c600083018462000f68565b92915050565b600060208201905081810360008301526200117e818462000f79565b905092915050565b60006020820190508181036000830152620011a2818462000fe3565b905092915050565b60006020820190508181036000830152620011c68184620010a5565b905092915050565b60006040820190508181036000830152620011ea8185620010a5565b9050620011fb602083018462001134565b9392505050565b600060208201905081810360008301526200121d81620010e6565b9050919050565b600060208201905081810360008301526200123f816200110d565b9050919050565b60006020820190506200125d600083018462001134565b92915050565b60006200126f62001282565b90506200127d828262001455565b919050565b6000604051905090565b600067ffffffffffffffff821115620012aa57620012a9620014e9565b5b620012b58262001518565b9050602081019050919050565b6000819050602082019050919050565b6000819050602082019050919050565b600081519050919050565b600081519050919050565b600081519050919050565b6000602082019050919050565b6000602082019050919050565b600082825260208201905092915050565b600082825260208201905092915050565b600082825260208201905092915050565b600082825260208201905092915050565b60006200136e82620013d0565b91506200137b83620013d0565b9250828210156200139157620013906200148b565b5b828203905092915050565b6000620013a982620013b0565b9050919050565b600073ffffffffffffffffffffffffffffffffffffffff82169050919050565b6000819050919050565b82818337600083830152505050565b60005b8381101562001409578082015181840152602081019050620013ec565b8381111562001419576000848401525b50505050565b600060028204905060018216806200143857607f821691505b602082108114156200144f576200144e620014ba565b5b50919050565b620014608262001518565b810181811067ffffffffffffffff82111715620014825762001481620014e9565b5b80604052505050565b7f4e487b7100000000000000000000000000000000000000000000000000000000600052601160045260246000fd5b7f4e487b7100000000000000000000000000000000000000000000000000000000600052602260045260246000fd5b7f4e487b7100000000000000000000000000000000000000000000000000000000600052604160045260246000fd5b6000601f19601f8301169050919050565b7f4f776e61626c653a206e6577206f776e657220697320746865207a65726f206160008201527f6464726573730000000000000000000000000000000000000000000000000000602082015250565b7f4f776e61626c653a2063616c6c6572206973206e6f7420746865206f776e6572600082015250565b620015ac816200139c565b8114620015b857600080fd5b50565b620015c681620013d0565b8114620015d257600080fd5b5056fe6080604052604051620011163803806200111683398181016040528101906200002991906200032d565b60006200003b620001ec60201b60201c565b9050806000806101000a81548173ffffffffffffffffffffffffffffffffffffffff021916908373ffffffffffffffffffffffffffffffffffffffff1602179055508073ffffffffffffffffffffffffffffffffffffffff16600073ffffffffffffffffffffffffffffffffffffffff167f8be0079c531659141344cd1fd0a4f28419497f9722a3daafe3b4186f6b6457e060405160405180910390a3508160019080519060200190620000f1929190620001f4565b5042600781905550600060038190555033600260006101000a81548173ffffffffffffffffffffffffffffffffffffffff021916908373ffffffffffffffffffffffffffffffffffffffff1602179055508060068190555033600560006101000a81548173ffffffffffffffffffffffffffffffffffffffff021916908373ffffffffffffffffffffffffffffffffffffffff16021790555060006003819055506000600860006101000a81548160ff02191690836002811115620001df577f4e487b7100000000000000000000000000000000000000000000000000000000600052602160045260246000fd5b021790555050506200051b565b600033905090565b828054620002029062000426565b90600052602060002090601f01602090048101928262000226576000855562000272565b82601f106200024157805160ff191683800117855562000272565b8280016001018555821562000272579182015b828111156200027157825182559160200191906001019062000254565b5b50905062000281919062000285565b5090565b5b80821115620002a057600081600090555060010162000286565b5090565b6000620002bb620002b584620003b0565b62000387565b905082815260208101848484011115620002d457600080fd5b620002e1848285620003f0565b509392505050565b600082601f830112620002fb57600080fd5b81516200030d848260208601620002a4565b91505092915050565b600081519050620003278162000501565b92915050565b600080604083850312156200034157600080fd5b600083015167ffffffffffffffff8111156200035c57600080fd5b6200036a85828601620002e9565b92505060206200037d8582860162000316565b9150509250929050565b600062000393620003a6565b9050620003a182826200045c565b919050565b6000604051905090565b600067ffffffffffffffff821115620003ce57620003cd620004c1565b5b620003d982620004f0565b9050602081019050919050565b6000819050919050565b60005b8381101562000410578082015181840152602081019050620003f3565b8381111562000420576000848401525b50505050565b600060028204905060018216806200043f57607f821691505b6020821081141562000456576200045562000492565b5b50919050565b6200046782620004f0565b810181811067ffffffffffffffff82111715620004895762000488620004c1565b5b80604052505050565b7f4e487b7100000000000000000000000000000000000000000000000000000000600052602260045260246000fd5b7f4e487b7100000000000000000000000000000000000000000000000000000000600052604160045260246000fd5b6000601f19601f8301169050919050565b6200050c81620003e6565b81146200051857600080fd5b50565b610beb806200052b6000396000f3fe608060405234801561001057600080fd5b50600436106100cf5760003560e01c80639b8193e61161008c578063b2f4bdb011610066578063b2f4bdb014610204578063c1cbbca714610222578063c9e87b021461023e578063f2fde38b1461025c576100cf565b80639b8193e6146101985780639e4d3099146101b65780639f12ba44146101e6576100cf565b80635373fa99146100d45780635daf08ca146100f2578063715018a61461012257806371fb29021461012c578063783cec801461015c5780638da5cb5b1461017a575b600080fd5b6100dc610278565b6040516100e99190610872565b60405180910390f35b61010c6004803603810190610107919061079d565b61029e565b6040516101199190610872565b60405180910390f35b61012a6102dd565b005b6101466004803603810190610141919061079d565b610417565b6040516101539190610872565b60405180910390f35b610164610456565b60405161017191906108a8565b60405180910390f35b6101826104e4565b60405161018f9190610872565b60405180910390f35b6101a061050d565b6040516101ad919061088d565b60405180910390f35b6101d060048036038101906101cb9190610774565b610520565b6040516101dd919061090a565b60405180910390f35b6101ee610538565b6040516101fb9190610872565b60405180910390f35b61020c61055e565b604051610219919061090a565b60405180910390f35b61023c6004803603810190610237919061079d565b610564565b005b61024661057d565b604051610253919061090a565b60405180910390f35b61027660048036038101906102719190610774565b610583565b005b600260009054906101000a900473ffffffffffffffffffffffffffffffffffffffff1681565b600a81815481106102ae57600080fd5b906000526020600020016000915054906101000a900473ffffffffffffffffffffffffffffffffffffffff1681565b6102e561072c565b73ffffffffffffffffffffffffffffffffffffffff166103036104e4565b73ffffffffffffffffffffffffffffffffffffffff1614610359576040517f08c379a0000000000000000000000000000000000000000000000000000000008152600401610350906108ea565b60405180910390fd5b600073ffffffffffffffffffffffffffffffffffffffff1660008054906101000a900473ffffffffffffffffffffffffffffffffffffffff1673ffffffffffffffffffffffffffffffffffffffff167f8be0079c531659141344cd1fd0a4f28419497f9722a3daafe3b4186f6b6457e060405160405180910390a360008060006101000a81548173ffffffffffffffffffffffffffffffffffffffff021916908373ffffffffffffffffffffffffffffffffffffffff160217905550565b6004818154811061042757600080fd5b906000526020600020016000915054906101000a900473ffffffffffffffffffffffffffffffffffffffff1681565b6001805461046390610a2b565b80601f016020809104026020016040519081016040528092919081815260200182805461048f90610a2b565b80156104dc5780601f106104b1576101008083540402835291602001916104dc565b820191906000526020600020905b8154815290600101906020018083116104bf57829003601f168201915b505050505081565b60008060009054906101000a900473ffffffffffffffffffffffffffffffffffffffff16905090565b600860009054906101000a900460ff1681565b60096020528060005260406000206000915090505481565b600560009054906101000a900473ffffffffffffffffffffffffffffffffffffffff1681565b60075481565b6105798160035461073490919063ffffffff16565b5050565b60035481565b61058b61072c565b73ffffffffffffffffffffffffffffffffffffffff166105a96104e4565b73ffffffffffffffffffffffffffffffffffffffff16146105ff576040517f08c379a00000000000000000000000000000000000000000000000000000000081526004016105f6906108ea565b60405180910390fd5b600073ffffffffffffffffffffffffffffffffffffffff168173ffffffffffffffffffffffffffffffffffffffff16141561066f576040517f08c379a0000000000000000000000000000000000000000000000000000000008152600401610666906108ca565b60405180910390fd5b8073ffffffffffffffffffffffffffffffffffffffff1660008054906101000a900473ffffffffffffffffffffffffffffffffffffffff1673ffffffffffffffffffffffffffffffffffffffff167f8be0079c531659141344cd1fd0a4f28419497f9722a3daafe3b4186f6b6457e060405160405180910390a3806000806101000a81548173ffffffffffffffffffffffffffffffffffffffff021916908373ffffffffffffffffffffffffffffffffffffffff16021790555050565b600033905090565b600081836107429190610941565b905092915050565b60008135905061075981610b87565b92915050565b60008135905061076e81610b9e565b92915050565b60006020828403121561078657600080fd5b60006107948482850161074a565b91505092915050565b6000602082840312156107af57600080fd5b60006107bd8482850161075f565b91505092915050565b6107cf81610997565b82525050565b6107de816109e6565b82525050565b60006107ef82610925565b6107f98185610930565b93506108098185602086016109f8565b61081281610aea565b840191505092915050565b600061082a602683610930565b915061083582610afb565b604082019050919050565b600061084d602083610930565b915061085882610b4a565b602082019050919050565b61086c816109dc565b82525050565b600060208201905061088760008301846107c6565b92915050565b60006020820190506108a260008301846107d5565b92915050565b600060208201905081810360008301526108c281846107e4565b905092915050565b600060208201905081810360008301526108e38161081d565b9050919050565b6000602082019050818103600083015261090381610840565b9050919050565b600060208201905061091f6000830184610863565b92915050565b600081519050919050565b600082825260208201905092915050565b600061094c826109dc565b9150610957836109dc565b9250827fffffffffffffffffffffffffffffffffffffffffffffffffffffffffffffffff0382111561098c5761098b610a5d565b5b828201905092915050565b60006109a2826109bc565b9050919050565b60008190506109b782610b73565b919050565b600073ffffffffffffffffffffffffffffffffffffffff82169050919050565b6000819050919050565b60006109f1826109a9565b9050919050565b60005b83811015610a165780820151818401526020810190506109fb565b83811115610a25576000848401525b50505050565b60006002820490506001821680610a4357607f821691505b60208210811415610a5757610a56610abb565b5b50919050565b7f4e487b7100000000000000000000000000000000000000000000000000000000600052601160045260246000fd5b7f4e487b7100000000000000000000000000000000000000000000000000000000600052602160045260246000fd5b7f4e487b7100000000000000000000000000000000000000000000000000000000600052602260045260246000fd5b6000601f19601f8301169050919050565b7f4f776e61626c653a206e6577206f776e657220697320746865207a65726f206160008201527f6464726573730000000000000000000000000000000000000000000000000000602082015250565b7f4f776e61626c653a2063616c6c6572206973206e6f7420746865206f776e6572600082015250565b60038110610b8457610b83610a8c565b5b50565b610b9081610997565b8114610b9b57600080fd5b50565b610ba7816109dc565b8114610bb257600080fd5b5056fea2646970667358221220328adfbbfa0c910d1de21c021b0e3abc165137f5d87c06cc64c5b900f4d3a8db64736f6c63430008030033a264697066735822122006c908ad6c10054d211fea1fd1e25107ccb1cfe178650395f6217695cf4c169a64736f6c63430008030033",
  "immutableReferences": {},
  "source": "// SPDX-License-Identifier: MIT\n\npragma solidity ^0.8.0;\npragma experimental ABIEncoderV2;\n\nimport \"@openzeppelin/contracts/access/Ownable.sol\";\nimport \"./LiteSwapDAO1.sol\";\nimport \"@openzeppelin/contracts/utils/math/SafeMath.sol\";\n\ncontract LiteSwapDAOFactory is Ownable {\n\n\n  using SafeMath for uint;\n\n    struct CooperativeGroup{\n        address[] memberList;\n        uint groupIndex;\n    }\n\n    mapping(address => CooperativeGroup) groupMapping;\n    address[] public cooperativeGroups;\n\n    string[] public createdGroupNames;\n\n  /// Empty constructor\n  constructor() public {\n\n  }\n\n  //create Cooperative Group\n  function createCooperativeGroup(string memory groupName, uint amount) public payable {\n\n    LiteSwapDAO1 new_cooperative = new LiteSwapDAO1(groupName,  amount );\n\n    address newAddr = address(new_cooperative);\n\n    address[] storage groupArr = cooperativeGroups;\n    string[] storage groupNames = createdGroupNames;\n\n    groupArr.push(newAddr);\n    groupNames.push(groupName);\n\n    //groupMapping[newAddr].memberList.push(msg.sender);\n    groupMapping[newAddr].groupIndex = cooperativeGroups.length.sub(1);\n\n    cooperativeGroups = groupArr;\n    createdGroupNames = groupNames;\n\n\n  }\n\n//All users to join a cooperative group\n  function joinCooperativeGroup(address _groupAddr) public payable {\n          groupMapping[_groupAddr].memberList.push(msg.sender);\n  }\n\n  //allow user to payu their due to their cooperative groups\n  function payYourGroupDues(uint dues, string memory groupName) public {\n    LiteSwapDAO1 groupInstance = new LiteSwapDAO1(groupName, dues);\n    groupInstance.contribute(dues);\n  }\n\n    /// Allow retrieving the the array of created contracts\n  /// @return An array of all created Cooperative Group contracts\n  function getcooperativeGroups() public view returns(address[] memory) {\n    return cooperativeGroups;\n  }\n\n      /// Allow retrieving the the array of created group names\n  /// @return An array of all created Cooperative Group names contracts\n  function getcooperativeGroupNames() public view returns (string[] memory) {\n    return createdGroupNames;\n  }\n\n}",
  "sourcePath": "/home/emplug7/applications/liteswapv1/contracts/LiteSwapDAOFactory.sol",
  "compiler": {
    "name": "solc",
    "version": "0.8.3+commit.8d00100c.Emscripten.clang"
  },
  "schemaVersion": "3.3.4",
  "updatedAt": "2021-04-19T12:37:17.989Z",
  "networkType": "ethereum",
  "devdoc": {
    "kind": "dev",
    "methods": {
      "getcooperativeGroupNames()": {
        "returns": {
          "_0": "An array of all created Cooperative Group names contracts"
        }
      },
      "getcooperativeGroups()": {
        "returns": {
          "_0": "An array of all created Cooperative Group contracts"
        }
      },
      "owner()": {
        "details": "Returns the address of the current owner."
      },
      "renounceOwnership()": {
        "details": "Leaves the contract without owner. It will not be possible to call `onlyOwner` functions anymore. Can only be called by the current owner. NOTE: Renouncing ownership will leave the contract without an owner, thereby removing any functionality that is only available to the owner."
      },
      "transferOwnership(address)": {
        "details": "Transfers ownership of the contract to a new account (`newOwner`). Can only be called by the current owner."
      }
    },
    "version": 1
  },
  "userdoc": {
    "kind": "user",
    "methods": {
      "constructor": {
        "notice": "Empty constructor"
      },
      "getcooperativeGroupNames()": {
        "notice": "Allow retrieving the the array of created group names"
      },
      "getcooperativeGroups()": {
        "notice": "Allow retrieving the the array of created contracts"
      }
    },
    "version": 1
  }
}