{
  "contractName": "LiteSwapDAO1",
  "abi": [
    {
      "inputs": [],
      "stateMutability": "nonpayable",
      "type": "constructor"
    },
    {
      "anonymous": false,
      "inputs": [
        {
          "indexed": true,
          "internalType": "address",
          "name": "owner",
          "type": "address"
        },
        {
          "indexed": true,
          "internalType": "address",
          "name": "spender",
          "type": "address"
        },
        {
          "indexed": false,
          "internalType": "uint256",
          "name": "value",
          "type": "uint256"
        }
      ],
      "name": "Approval",
      "type": "event"
    },
    {
      "anonymous": false,
      "inputs": [
        {
          "indexed": true,
          "internalType": "address",
          "name": "addr",
          "type": "address"
        },
        {
          "indexed": false,
          "internalType": "string",
          "name": "groupName",
          "type": "string"
        }
      ],
      "name": "GroupCreated",
      "type": "event"
    },
    {
      "anonymous": false,
      "inputs": [
        {
          "indexed": true,
          "internalType": "address",
          "name": "member",
          "type": "address"
        }
      ],
      "name": "MemberAddedFund",
      "type": "event"
    },
    {
      "anonymous": false,
      "inputs": [
        {
          "indexed": true,
          "internalType": "address",
          "name": "member",
          "type": "address"
        },
        {
          "indexed": false,
          "internalType": "bool",
          "name": "joined",
          "type": "bool"
        }
      ],
      "name": "MemberJoined",
      "type": "event"
    },
    {
      "anonymous": false,
      "inputs": [
        {
          "indexed": true,
          "internalType": "address",
          "name": "previousOwner",
          "type": "address"
        },
        {
          "indexed": true,
          "internalType": "address",
          "name": "newOwner",
          "type": "address"
        }
      ],
      "name": "OwnershipTransferred",
      "type": "event"
    },
    {
      "anonymous": false,
      "inputs": [
        {
          "indexed": true,
          "internalType": "address",
          "name": "from",
          "type": "address"
        },
        {
          "indexed": true,
          "internalType": "address",
          "name": "to",
          "type": "address"
        },
        {
          "indexed": false,
          "internalType": "uint256",
          "name": "value",
          "type": "uint256"
        }
      ],
      "name": "Transfer",
      "type": "event"
    },
    {
      "inputs": [
        {
          "internalType": "address",
          "name": "_owner",
          "type": "address"
        },
        {
          "internalType": "address",
          "name": "_spender",
          "type": "address"
        }
      ],
      "name": "allowance",
      "outputs": [
        {
          "internalType": "uint256",
          "name": "remaining",
          "type": "uint256"
        }
      ],
      "stateMutability": "view",
      "type": "function",
      "constant": true
    },
    {
      "inputs": [
        {
          "internalType": "address",
          "name": "",
          "type": "address"
        },
        {
          "internalType": "address",
          "name": "",
          "type": "address"
        }
      ],
      "name": "allowed",
      "outputs": [
        {
          "internalType": "uint256",
          "name": "",
          "type": "uint256"
        }
      ],
      "stateMutability": "view",
      "type": "function",
      "constant": true
    },
    {
      "inputs": [
        {
          "internalType": "address",
          "name": "_spender",
          "type": "address"
        },
        {
          "internalType": "uint256",
          "name": "_value",
          "type": "uint256"
        }
      ],
      "name": "approve",
      "outputs": [
        {
          "internalType": "bool",
          "name": "success",
          "type": "bool"
        }
      ],
      "stateMutability": "nonpayable",
      "type": "function"
    },
    {
      "inputs": [
        {
          "internalType": "address",
          "name": "_owner",
          "type": "address"
        }
      ],
      "name": "balanceOf",
      "outputs": [
        {
          "internalType": "uint256",
          "name": "",
          "type": "uint256"
        }
      ],
      "stateMutability": "view",
      "type": "function",
      "constant": true
    },
    {
      "inputs": [
        {
          "internalType": "address",
          "name": "",
          "type": "address"
        }
      ],
      "name": "balances",
      "outputs": [
        {
          "internalType": "uint256",
          "name": "",
          "type": "uint256"
        }
      ],
      "stateMutability": "view",
      "type": "function",
      "constant": true
    },
    {
      "inputs": [],
      "name": "decimals",
      "outputs": [
        {
          "internalType": "uint8",
          "name": "",
          "type": "uint8"
        }
      ],
      "stateMutability": "view",
      "type": "function",
      "constant": true
    },
    {
      "inputs": [
        {
          "internalType": "uint256",
          "name": "",
          "type": "uint256"
        }
      ],
      "name": "groupMemberList",
      "outputs": [
        {
          "internalType": "address",
          "name": "",
          "type": "address"
        }
      ],
      "stateMutability": "view",
      "type": "function",
      "constant": true
    },
    {
      "inputs": [
        {
          "internalType": "bytes32",
          "name": "",
          "type": "bytes32"
        }
      ],
      "name": "groupMembers",
      "outputs": [
        {
          "internalType": "bytes32",
          "name": "id",
          "type": "bytes32"
        },
        {
          "internalType": "string",
          "name": "groupName",
          "type": "string"
        },
        {
          "internalType": "address",
          "name": "groupCreator",
          "type": "address"
        },
        {
          "internalType": "address",
          "name": "groupAddress",
          "type": "address"
        },
        {
          "internalType": "uint256",
          "name": "groupBalance",
          "type": "uint256"
        },
        {
          "internalType": "uint256",
          "name": "groupCreationAmount",
          "type": "uint256"
        },
        {
          "internalType": "uint256",
          "name": "groupIndex",
          "type": "uint256"
        },
        {
          "internalType": "uint256",
          "name": "createdTime",
          "type": "uint256"
        },
        {
          "internalType": "enum LiteSwapDAO1.GroupState",
          "name": "groupState",
          "type": "uint8"
        }
      ],
      "stateMutability": "view",
      "type": "function",
      "constant": true
    },
    {
      "inputs": [
        {
          "internalType": "uint256",
          "name": "",
          "type": "uint256"
        }
      ],
      "name": "groupNames",
      "outputs": [
        {
          "internalType": "string",
          "name": "",
          "type": "string"
        }
      ],
      "stateMutability": "view",
      "type": "function",
      "constant": true
    },
    {
      "inputs": [],
      "name": "groupState",
      "outputs": [
        {
          "internalType": "enum LiteSwapDAO1.GroupState",
          "name": "",
          "type": "uint8"
        }
      ],
      "stateMutability": "view",
      "type": "function",
      "constant": true
    },
    {
      "inputs": [],
      "name": "memberState",
      "outputs": [
        {
          "internalType": "enum LiteSwapDAO1.MemberState",
          "name": "",
          "type": "uint8"
        }
      ],
      "stateMutability": "view",
      "type": "function",
      "constant": true
    },
    {
      "inputs": [
        {
          "internalType": "address",
          "name": "",
          "type": "address"
        }
      ],
      "name": "membersContributions",
      "outputs": [
        {
          "internalType": "uint256",
          "name": "",
          "type": "uint256"
        }
      ],
      "stateMutability": "view",
      "type": "function",
      "constant": true
    },
    {
      "inputs": [],
      "name": "name",
      "outputs": [
        {
          "internalType": "string",
          "name": "",
          "type": "string"
        }
      ],
      "stateMutability": "view",
      "type": "function",
      "constant": true
    },
    {
      "inputs": [],
      "name": "owner",
      "outputs": [
        {
          "internalType": "address",
          "name": "",
          "type": "address"
        }
      ],
      "stateMutability": "view",
      "type": "function",
      "constant": true
    },
    {
      "inputs": [],
      "name": "renounceOwnership",
      "outputs": [],
      "stateMutability": "nonpayable",
      "type": "function"
    },
    {
      "inputs": [],
      "name": "symbol",
      "outputs": [
        {
          "internalType": "string",
          "name": "",
          "type": "string"
        }
      ],
      "stateMutability": "view",
      "type": "function",
      "constant": true
    },
    {
      "inputs": [],
      "name": "totalSupply",
      "outputs": [
        {
          "internalType": "uint256",
          "name": "",
          "type": "uint256"
        }
      ],
      "stateMutability": "view",
      "type": "function",
      "constant": true
    },
    {
      "inputs": [],
      "name": "totalSupply_",
      "outputs": [
        {
          "internalType": "uint256",
          "name": "",
          "type": "uint256"
        }
      ],
      "stateMutability": "view",
      "type": "function",
      "constant": true
    },
    {
      "inputs": [
        {
          "internalType": "address",
          "name": "_to",
          "type": "address"
        },
        {
          "internalType": "uint256",
          "name": "_value",
          "type": "uint256"
        }
      ],
      "name": "transfer",
      "outputs": [
        {
          "internalType": "bool",
          "name": "success",
          "type": "bool"
        }
      ],
      "stateMutability": "nonpayable",
      "type": "function"
    },
    {
      "inputs": [
        {
          "internalType": "address",
          "name": "_from",
          "type": "address"
        },
        {
          "internalType": "address",
          "name": "_to",
          "type": "address"
        },
        {
          "internalType": "uint256",
          "name": "_value",
          "type": "uint256"
        }
      ],
      "name": "transferFrom",
      "outputs": [
        {
          "internalType": "bool",
          "name": "success",
          "type": "bool"
        }
      ],
      "stateMutability": "nonpayable",
      "type": "function"
    },
    {
      "inputs": [
        {
          "internalType": "address",
          "name": "newOwner",
          "type": "address"
        }
      ],
      "name": "transferOwnership",
      "outputs": [],
      "stateMutability": "nonpayable",
      "type": "function"
    },
    {
      "inputs": [
        {
          "internalType": "string",
          "name": "_groupName",
          "type": "string"
        },
        {
          "internalType": "uint256",
          "name": "amount",
          "type": "uint256"
        }
      ],
      "name": "createCooperativeGroup",
      "outputs": [
        {
          "internalType": "bool",
          "name": "success",
          "type": "bool"
        }
      ],
      "stateMutability": "payable",
      "type": "function",
      "payable": true
    },
    {
      "inputs": [
        {
          "internalType": "string",
          "name": "groupName",
          "type": "string"
        }
      ],
      "name": "addMember",
      "outputs": [
        {
          "internalType": "bool",
          "name": "",
          "type": "bool"
        }
      ],
      "stateMutability": "payable",
      "type": "function",
      "payable": true
    },
    {
      "inputs": [
        {
          "internalType": "string",
          "name": "groupName",
          "type": "string"
        }
      ],
      "name": "getAllGroupMembersCount",
      "outputs": [
        {
          "internalType": "uint256",
          "name": "",
          "type": "uint256"
        }
      ],
      "stateMutability": "view",
      "type": "function",
      "constant": true
    },
    {
      "inputs": [],
      "name": "getCooperativeNames",
      "outputs": [
        {
          "internalType": "string[]",
          "name": "",
          "type": "string[]"
        }
      ],
      "stateMutability": "view",
      "type": "function",
      "constant": true
    },
    {
      "inputs": [
        {
          "internalType": "address",
          "name": "member",
          "type": "address"
        }
      ],
      "name": "getMemberContributions",
      "outputs": [
        {
          "internalType": "uint256",
          "name": "",
          "type": "uint256"
        }
      ],
      "stateMutability": "view",
      "type": "function",
      "constant": true
    },
    {
      "inputs": [
        {
          "internalType": "address",
          "name": "member",
          "type": "address"
        }
      ],
      "name": "getMemberAddress",
      "outputs": [
        {
          "internalType": "bool",
          "name": "",
          "type": "bool"
        }
      ],
      "stateMutability": "view",
      "type": "function",
      "constant": true
    },
    {
      "inputs": [
        {
          "internalType": "string",
          "name": "groupName",
          "type": "string"
        }
      ],
      "name": "checkGroupAddress",
      "outputs": [
        {
          "internalType": "bool",
          "name": "",
          "type": "bool"
        }
      ],
      "stateMutability": "view",
      "type": "function",
      "constant": true
    }
  ],
  "bytecode": "0x60806040526040518060400160405280600e81526020017f4c6974657377617020546f6b656e000000000000000000000000000000000000815250600190805190602001906200005192919062000257565b506040518060400160405280600381526020017f4c54530000000000000000000000000000000000000000000000000000000000815250600290805190602001906200009f92919062000257565b506b033b2e3c9fd0803ce80000006003556012600460006101000a81548160ff021916908360ff160217905550348015620000d957600080fd5b506000620000ec6200022660201b60201c565b9050806000806101000a81548173ffffffffffffffffffffffffffffffffffffffff021916908373ffffffffffffffffffffffffffffffffffffffff1602179055508073ffffffffffffffffffffffffffffffffffffffff16600073ffffffffffffffffffffffffffffffffffffffff167f8be0079c531659141344cd1fd0a4f28419497f9722a3daafe3b4186f6b6457e060405160405180910390a350600354600560003373ffffffffffffffffffffffffffffffffffffffff1673ffffffffffffffffffffffffffffffffffffffff16815260200190815260200160002081905550620001e06200022e60201b60201c565b600760006101000a81548173ffffffffffffffffffffffffffffffffffffffff021916908373ffffffffffffffffffffffffffffffffffffffff1602179055506200036c565b600033905090565b60008060009054906101000a900473ffffffffffffffffffffffffffffffffffffffff16905090565b828054620002659062000307565b90600052602060002090601f016020900481019282620002895760008555620002d5565b82601f10620002a457805160ff1916838001178555620002d5565b82800160010185558215620002d5579182015b82811115620002d4578251825591602001919060010190620002b7565b5b509050620002e49190620002e8565b5090565b5b8082111562000303576000816000905550600101620002e9565b5090565b600060028204905060018216806200032057607f821691505b602082108114156200033757620003366200033d565b5b50919050565b7f4e487b7100000000000000000000000000000000000000000000000000000000600052602260045260246000fd5b61349d806200037c6000396000f3fe6080604052600436106101b65760003560e01c806370a08231116100ec5780639e4d30991161008a578063cfe86b9811610064578063cfe86b98146106a6578063d6271edf146106d6578063dd62ed3e14610713578063f2fde38b14610750576101b6565b80639e4d3099146105ef578063a9059cbb1461062c578063b85ca53a14610669576101b6565b8063918f9687116100c6578063918f96871461052c578063936345171461055c57806395d89b41146105995780639b8193e6146105c4576101b6565b806370a08231146104ad578063715018a6146104ea5780638da5cb5b14610501576101b6565b806323b872dd11610159578063324536eb11610133578063324536eb146103cb57806342d3f2ed146103f65780634c203fcd146104335780635c65816514610470576101b6565b806323b872dd1461032657806327e235e314610363578063313ce567146103a0576101b6565b8063095ea7b311610195578063095ea7b31461024e578063114338741461028b57806318160ddd146102d0578063219b1596146102fb576101b6565b8062a2babd146101bb57806306fdde03146101e6578063072e6d4714610211575b600080fd5b3480156101c757600080fd5b506101d0610779565b6040516101dd9190612dbf565b60405180910390f35b3480156101f257600080fd5b506101fb61078c565b6040516102089190612dda565b60405180910390f35b34801561021d57600080fd5b5061023860048036038101906102339190612746565b61081a565b6040516102459190612cf5565b60405180910390f35b34801561025a57600080fd5b50610275600480360381019061027091906127fa565b61090f565b6040516102829190612cf5565b60405180910390f35b34801561029757600080fd5b506102b260048036038101906102ad9190612836565b610a01565b6040516102c799989796959493929190612d10565b60405180910390f35b3480156102dc57600080fd5b506102e5610b24565b6040516102f29190612e9c565b60405180910390f35b34801561030757600080fd5b50610310610b2e565b60405161031d9190612cd3565b60405180910390f35b34801561033257600080fd5b5061034d600480360381019061034891906127ab565b610c07565b60405161035a9190612cf5565b60405180910390f35b34801561036f57600080fd5b5061038a60048036038101906103859190612746565b610e8d565b6040516103979190612e9c565b60405180910390f35b3480156103ac57600080fd5b506103b5610ea5565b6040516103c29190612eb7565b60405180910390f35b3480156103d757600080fd5b506103e0610eb8565b6040516103ed9190612e9c565b60405180910390f35b34801561040257600080fd5b5061041d600480360381019061041891906128f4565b610ebe565b60405161042a9190612cb8565b60405180910390f35b34801561043f57600080fd5b5061045a60048036038101906104559190612746565b610efd565b6040516104679190612e9c565b60405180910390f35b34801561047c57600080fd5b506104976004803603810190610492919061276f565b610f5f565b6040516104a49190612e9c565b60405180910390f35b3480156104b957600080fd5b506104d460048036038101906104cf9190612746565b610f84565b6040516104e19190612e9c565b60405180910390f35b3480156104f657600080fd5b506104ff610fcd565b005b34801561050d57600080fd5b50610516611107565b6040516105239190612cb8565b60405180910390f35b6105466004803603810190610541919061285f565b611130565b6040516105539190612cf5565b60405180910390f35b34801561056857600080fd5b50610583600480360381019061057e919061285f565b61157f565b6040516105909190612e9c565b60405180910390f35b3480156105a557600080fd5b506105ae6116ad565b6040516105bb9190612dda565b60405180910390f35b3480156105d057600080fd5b506105d961173b565b6040516105e69190612da4565b60405180910390f35b3480156105fb57600080fd5b5061061660048036038101906106119190612746565b61174e565b6040516106239190612e9c565b60405180910390f35b34801561063857600080fd5b50610653600480360381019061064e91906127fa565b611766565b6040516106609190612cf5565b60405180910390f35b34801561067557600080fd5b50610690600480360381019061068b919061285f565b6118cf565b60405161069d9190612cf5565b60405180910390f35b6106c060048036038101906106bb91906128a0565b611a1e565b6040516106cd9190612cf5565b60405180910390f35b3480156106e257600080fd5b506106fd60048036038101906106f891906128f4565b612318565b60405161070a9190612dda565b60405180910390f35b34801561071f57600080fd5b5061073a6004803603810190610735919061276f565b6123c4565b6040516107479190612e9c565b60405180910390f35b34801561075c57600080fd5b5061077760048036038101906107729190612746565b61244b565b005b600760159054906101000a900460ff1681565b6001805461079990613123565b80601f01602080910402602001604051908101604052809291908181526020018280546107c590613123565b80156108125780601f106107e757610100808354040283529160200191610812565b820191906000526020600020905b8154815290600101906020018083116107f557829003601f168201915b505050505081565b600080600090505b600d8054905081101561090457826040516020016108409190612c25565b60405160208183030381529060405280519060200120600d8281548110610890577f4e487b7100000000000000000000000000000000000000000000000000000000600052603260045260246000fd5b9060005260206000200160009054906101000a900473ffffffffffffffffffffffffffffffffffffffff166040516020016108cb9190612c25565b6040516020818303038152906040528051906020012014156108f157600191505061090a565b80806108fc90613186565b915050610822565b50600090505b919050565b600081600660003373ffffffffffffffffffffffffffffffffffffffff1673ffffffffffffffffffffffffffffffffffffffff16815260200190815260200160002060008573ffffffffffffffffffffffffffffffffffffffff1673ffffffffffffffffffffffffffffffffffffffff168152602001908152602001600020819055508273ffffffffffffffffffffffffffffffffffffffff163373ffffffffffffffffffffffffffffffffffffffff167f8c5be1e5ebec7d5bd14f71427d1e84f3dd0314c0f7b2291e5b200ac8c7c3b925846040516109ef9190612e9c565b60405180910390a36001905092915050565b6009602052806000526040600020600091509050806000015490806001018054610a2a90613123565b80601f0160208091040260200160405190810160405280929190818152602001828054610a5690613123565b8015610aa35780601f10610a7857610100808354040283529160200191610aa3565b820191906000526020600020905b815481529060010190602001808311610a8657829003601f168201915b5050505050908060020160009054906101000a900473ffffffffffffffffffffffffffffffffffffffff16908060030160009054906101000a900473ffffffffffffffffffffffffffffffffffffffff169080600601549080600701549080600801549080600901549080600a0160009054906101000a900460ff16905089565b6000600354905090565b6060600c805480602002602001604051908101604052809291908181526020016000905b82821015610bfe578382906000526020600020018054610b7190613123565b80601f0160208091040260200160405190810160405280929190818152602001828054610b9d90613123565b8015610bea5780601f10610bbf57610100808354040283529160200191610bea565b820191906000526020600020905b815481529060010190602001808311610bcd57829003601f168201915b505050505081526020019060010190610b52565b50505050905090565b6000600560008573ffffffffffffffffffffffffffffffffffffffff1673ffffffffffffffffffffffffffffffffffffffff16815260200190815260200160002054821115610c5557600080fd5b600660008573ffffffffffffffffffffffffffffffffffffffff1673ffffffffffffffffffffffffffffffffffffffff16815260200190815260200160002060003373ffffffffffffffffffffffffffffffffffffffff1673ffffffffffffffffffffffffffffffffffffffff16815260200190815260200160002054821115610cde57600080fd5b81600560008673ffffffffffffffffffffffffffffffffffffffff1673ffffffffffffffffffffffffffffffffffffffff1681526020019081526020016000206000828254610d2d9190613004565b9250508190555081600560008573ffffffffffffffffffffffffffffffffffffffff1673ffffffffffffffffffffffffffffffffffffffff1681526020019081526020016000206000828254610d839190612fae565b9250508190555081600660008673ffffffffffffffffffffffffffffffffffffffff1673ffffffffffffffffffffffffffffffffffffffff16815260200190815260200160002060003373ffffffffffffffffffffffffffffffffffffffff1673ffffffffffffffffffffffffffffffffffffffff1681526020019081526020016000206000828254610e169190613004565b925050819055508273ffffffffffffffffffffffffffffffffffffffff168473ffffffffffffffffffffffffffffffffffffffff167fddf252ad1be2c89b69c2b068fc378daa952ba7f163c4a11628f55a4df523b3ef84604051610e7a9190612e9c565b60405180910390a3600190509392505050565b60056020528060005260406000206000915090505481565b600460009054906101000a900460ff1681565b60035481565b600d8181548110610ece57600080fd5b906000526020600020016000915054906101000a900473ffffffffffffffffffffffffffffffffffffffff1681565b600060011515610f0c8361081a565b151514610f1857600080fd5b600860008373ffffffffffffffffffffffffffffffffffffffff1673ffffffffffffffffffffffffffffffffffffffff168152602001908152602001600020549050919050565b6006602052816000526040600020602052806000526040600020600091509150505481565b6000600560008373ffffffffffffffffffffffffffffffffffffffff1673ffffffffffffffffffffffffffffffffffffffff168152602001908152602001600020549050919050565b610fd56125f4565b73ffffffffffffffffffffffffffffffffffffffff16610ff3611107565b73ffffffffffffffffffffffffffffffffffffffff1614611049576040517f08c379a000000000000000000000000000000000000000000000000000000000815260040161104090612e7c565b60405180910390fd5b600073ffffffffffffffffffffffffffffffffffffffff1660008054906101000a900473ffffffffffffffffffffffffffffffffffffffff1673ffffffffffffffffffffffffffffffffffffffff167f8be0079c531659141344cd1fd0a4f28419497f9722a3daafe3b4186f6b6457e060405160405180910390a360008060006101000a81548173ffffffffffffffffffffffffffffffffffffffff021916908373ffffffffffffffffffffffffffffffffffffffff160217905550565b60008060009054906101000a900473ffffffffffffffffffffffffffffffffffffffff16905090565b6000806000801b905060005b600c8054905081101561123b578360405160200161115a9190612c8a565b60405160208183030381529060405280519060200120600c82815481106111aa577f4e487b7100000000000000000000000000000000000000000000000000000000600052603260045260246000fd5b906000526020600020016040516020016111c49190612ca1565b60405160208183030381529060405280519060200120141561122857600b818154811061121a577f4e487b7100000000000000000000000000000000000000000000000000000000600052603260045260246000fd5b906000526020600020015491505b808061123390613186565b91505061113c565b5060006009600083815260200190815260200160002060070154905060096000838152602001908152602001600020600401339080600181540180825580915050600190039060005260206000200160009091909190916101000a81548173ffffffffffffffffffffffffffffffffffffffff021916908373ffffffffffffffffffffffffffffffffffffffff1602179055506040518060800160405280828152602001600380811115611318577f4e487b7100000000000000000000000000000000000000000000000000000000600052602160045260246000fd5b8152602001428152602001600160096000868152602001908152602001600020600401805490506113499190613004565b8152506009600084815260200190815260200160002060050160003373ffffffffffffffffffffffffffffffffffffffff1673ffffffffffffffffffffffffffffffffffffffff1681526020019081526020016000206000820151816000015560208201518160010160006101000a81548160ff021916908360038111156113fa577f4e487b7100000000000000000000000000000000000000000000000000000000600052602160045260246000fd5b0217905550604082015181600201556060820151816003015590505080600560003373ffffffffffffffffffffffffffffffffffffffff1673ffffffffffffffffffffffffffffffffffffffff16815260200190815260200160002060008282546114659190613004565b9250508190555080600560006009600086815260200190815260200160002060030160009054906101000a900473ffffffffffffffffffffffffffffffffffffffff1673ffffffffffffffffffffffffffffffffffffffff1673ffffffffffffffffffffffffffffffffffffffff16815260200190815260200160002060008282546114f19190612fae565b925050819055508060096000848152602001908152602001600020600601600082825461151e9190612fae565b925050819055503373ffffffffffffffffffffffffffffffffffffffff167f65924ed81952443d8d3f09bbd0093fb71891133c774e1ec3a9a32a67762c5f80600160405161156c9190612cf5565b60405180910390a2600192505050919050565b6000806000801b905060005b600c8054905081101561168a57836040516020016115a99190612c8a565b60405160208183030381529060405280519060200120600c82815481106115f9577f4e487b7100000000000000000000000000000000000000000000000000000000600052603260045260246000fd5b906000526020600020016040516020016116139190612ca1565b60405160208183030381529060405280519060200120141561167757600b8181548110611669577f4e487b7100000000000000000000000000000000000000000000000000000000600052603260045260246000fd5b906000526020600020015491505b808061168290613186565b91505061158b565b506009600082815260200190815260200160002060040180549050915050919050565b600280546116ba90613123565b80601f01602080910402602001604051908101604052809291908181526020018280546116e690613123565b80156117335780601f1061170857610100808354040283529160200191611733565b820191906000526020600020905b81548152906001019060200180831161171657829003601f168201915b505050505081565b600760149054906101000a900460ff1681565b60086020528060005260406000206000915090505481565b600081600560003373ffffffffffffffffffffffffffffffffffffffff1673ffffffffffffffffffffffffffffffffffffffff1681526020019081526020016000205410156117b457600080fd5b81600560003373ffffffffffffffffffffffffffffffffffffffff1673ffffffffffffffffffffffffffffffffffffffff16815260200190815260200160002060008282546118039190613004565b9250508190555081600560008573ffffffffffffffffffffffffffffffffffffffff1673ffffffffffffffffffffffffffffffffffffffff16815260200190815260200160002060008282546118599190612fae565b925050819055508273ffffffffffffffffffffffffffffffffffffffff163373ffffffffffffffffffffffffffffffffffffffff167fddf252ad1be2c89b69c2b068fc378daa952ba7f163c4a11628f55a4df523b3ef846040516118bd9190612e9c565b60405180910390a36001905092915050565b6000806000801b905060005b600c80549050811015611a1257836040516020016118f99190612c8a565b60405160208183030381529060405280519060200120600c8281548110611949577f4e487b7100000000000000000000000000000000000000000000000000000000600052603260045260246000fd5b906000526020600020016040516020016119639190612ca1565b6040516020818303038152906040528051906020012014156119ff57600b81815481106119b9577f4e487b7100000000000000000000000000000000000000000000000000000000600052603260045260246000fd5b9060005260206000200154915060011515600a600084815260200190815260200160002060009054906101000a900460ff16151514156119fe57600192505050611a19565b5b8080611a0a90613186565b9150506118db565b5060009150505b919050565b6000611a28611107565b73ffffffffffffffffffffffffffffffffffffffff16600760009054906101000a900473ffffffffffffffffffffffffffffffffffffffff1673ffffffffffffffffffffffffffffffffffffffff1614611a8157600080fd5b6000835111611ac5576040517f08c379a0000000000000000000000000000000000000000000000000000000008152600401611abc90612e1c565b60405180910390fd5b60001515611ad2846118cf565b151514611b14576040517f08c379a0000000000000000000000000000000000000000000000000000000008152600401611b0b90612dfc565b60405180910390fd5b600060056000600760009054906101000a900473ffffffffffffffffffffffffffffffffffffffff1673ffffffffffffffffffffffffffffffffffffffff1673ffffffffffffffffffffffffffffffffffffffff16815260200190815260200160002054118015611bd35750600073ffffffffffffffffffffffffffffffffffffffff16600760009054906101000a900473ffffffffffffffffffffffffffffffffffffffff1673ffffffffffffffffffffffffffffffffffffffff16145b611bdc57600080fd5b60008211611c1f576040517f08c379a0000000000000000000000000000000000000000000000000000000008152600401611c1690612e5c565b60405180910390fd5b6000600143611c2e9190613004565b4090506000600760009054906101000a900473ffffffffffffffffffffffffffffffffffffffff16854284604051602001611c6c9493929190612c40565b604051602081830303815290604052805190602001209050600b819080600181540180825580915050600190039060005260206000200160009091909190915055600c85908060018154018082558091505060019003906000526020600020016000909190919091509080519060200190611ce89291906125fc565b5080600960008381526020019081526020016000206000018190555084600960008381526020019081526020016000206001019080519060200190611d2e9291906125fc565b50600760009054906101000a900473ffffffffffffffffffffffffffffffffffffffff166009600083815260200190815260200160002060020160006101000a81548173ffffffffffffffffffffffffffffffffffffffff021916908373ffffffffffffffffffffffffffffffffffffffff160217905550306009600083815260200190815260200160002060030160006101000a81548173ffffffffffffffffffffffffffffffffffffffff021916908373ffffffffffffffffffffffffffffffffffffffff16021790555060096000828152602001908152602001600020600401600760009054906101000a900473ffffffffffffffffffffffffffffffffffffffff169080600181540180825580915050600190039060005260206000200160009091909190916101000a81548173ffffffffffffffffffffffffffffffffffffffff021916908373ffffffffffffffffffffffffffffffffffffffff1602179055506040518060800160405280858152602001600380811115611ede577f4e487b7100000000000000000000000000000000000000000000000000000000600052602160045260246000fd5b815260200142815260200160016009600085815260200190815260200160002060040180549050611f0f9190613004565b815250600960008381526020019081526020016000206005016000600760009054906101000a900473ffffffffffffffffffffffffffffffffffffffff1673ffffffffffffffffffffffffffffffffffffffff1673ffffffffffffffffffffffffffffffffffffffff1681526020019081526020016000206000820151816000015560208201518160010160006101000a81548160ff02191690836003811115611fe2577f4e487b7100000000000000000000000000000000000000000000000000000000600052602160045260246000fd5b021790555060408201518160020155606082015181600301559050508360096000838152602001908152602001600020600601819055508360096000838152602001908152602001600020600701819055506001600b805490506120469190613004565b6009600083815260200190815260200160002060080181905550426009600083815260200190815260200160002060090181905550600060096000838152602001908152602001600020600a0160006101000a81548160ff021916908360028111156120db577f4e487b7100000000000000000000000000000000000000000000000000000000600052602160045260246000fd5b02179055508360056000600760009054906101000a900473ffffffffffffffffffffffffffffffffffffffff1673ffffffffffffffffffffffffffffffffffffffff1673ffffffffffffffffffffffffffffffffffffffff16815260200190815260200160002060008282546121519190613004565b9250508190555083600560006009600085815260200190815260200160002060030160009054906101000a900473ffffffffffffffffffffffffffffffffffffffff1673ffffffffffffffffffffffffffffffffffffffff1673ffffffffffffffffffffffffffffffffffffffff16815260200190815260200160002060008282546121dd9190612fae565b925050819055508360086000600760009054906101000a900473ffffffffffffffffffffffffffffffffffffffff1673ffffffffffffffffffffffffffffffffffffffff1673ffffffffffffffffffffffffffffffffffffffff16815260200190815260200160002060008282546122559190612fae565b925050819055506001600a600083815260200190815260200160002060006101000a81548160ff0219169083151502179055506009600082815260200190815260200160002060030160009054906101000a900473ffffffffffffffffffffffffffffffffffffffff1673ffffffffffffffffffffffffffffffffffffffff167fc41039f832f30470d1a983be3dc26f5432197ae33f31f1170f73fccfd67439fb866040516123049190612dda565b60405180910390a260019250505092915050565b600c818154811061232857600080fd5b90600052602060002001600091509050805461234390613123565b80601f016020809104026020016040519081016040528092919081815260200182805461236f90613123565b80156123bc5780601f10612391576101008083540402835291602001916123bc565b820191906000526020600020905b81548152906001019060200180831161239f57829003601f168201915b505050505081565b6000600660008473ffffffffffffffffffffffffffffffffffffffff1673ffffffffffffffffffffffffffffffffffffffff16815260200190815260200160002060008373ffffffffffffffffffffffffffffffffffffffff1673ffffffffffffffffffffffffffffffffffffffff16815260200190815260200160002054905092915050565b6124536125f4565b73ffffffffffffffffffffffffffffffffffffffff16612471611107565b73ffffffffffffffffffffffffffffffffffffffff16146124c7576040517f08c379a00000000000000000000000000000000000000000000000000000000081526004016124be90612e7c565b60405180910390fd5b600073ffffffffffffffffffffffffffffffffffffffff168173ffffffffffffffffffffffffffffffffffffffff161415612537576040517f08c379a000000000000000000000000000000000000000000000000000000000815260040161252e90612e3c565b60405180910390fd5b8073ffffffffffffffffffffffffffffffffffffffff1660008054906101000a900473ffffffffffffffffffffffffffffffffffffffff1673ffffffffffffffffffffffffffffffffffffffff167f8be0079c531659141344cd1fd0a4f28419497f9722a3daafe3b4186f6b6457e060405160405180910390a3806000806101000a81548173ffffffffffffffffffffffffffffffffffffffff021916908373ffffffffffffffffffffffffffffffffffffffff16021790555050565b600033905090565b82805461260890613123565b90600052602060002090601f01602090048101928261262a5760008555612671565b82601f1061264357805160ff1916838001178555612671565b82800160010185558215612671579182015b82811115612670578251825591602001919060010190612655565b5b50905061267e9190612682565b5090565b5b8082111561269b576000816000905550600101612683565b5090565b60006126b26126ad84612ef7565b612ed2565b9050828152602081018484840111156126ca57600080fd5b6126d58482856130e1565b509392505050565b6000813590506126ec81613422565b92915050565b60008135905061270181613439565b92915050565b600082601f83011261271857600080fd5b813561272884826020860161269f565b91505092915050565b60008135905061274081613450565b92915050565b60006020828403121561275857600080fd5b6000612766848285016126dd565b91505092915050565b6000806040838503121561278257600080fd5b6000612790858286016126dd565b92505060206127a1858286016126dd565b9150509250929050565b6000806000606084860312156127c057600080fd5b60006127ce868287016126dd565b93505060206127df868287016126dd565b92505060406127f086828701612731565b9150509250925092565b6000806040838503121561280d57600080fd5b600061281b858286016126dd565b925050602061282c85828601612731565b9150509250929050565b60006020828403121561284857600080fd5b6000612856848285016126f2565b91505092915050565b60006020828403121561287157600080fd5b600082013567ffffffffffffffff81111561288b57600080fd5b61289784828501612707565b91505092915050565b600080604083850312156128b357600080fd5b600083013567ffffffffffffffff8111156128cd57600080fd5b6128d985828601612707565b92505060206128ea85828601612731565b9150509250929050565b60006020828403121561290657600080fd5b600061291484828501612731565b91505092915050565b60006129298383612a1f565b905092915050565b61293a81613038565b82525050565b61295161294c82613038565b6131cf565b82525050565b600061296282612f4d565b61296c8185612f70565b93508360208202850161297e85612f28565b8060005b858110156129ba578484038952815161299b858261291d565b94506129a683612f63565b925060208a01995050600181019050612982565b50829750879550505050505092915050565b6129d58161304a565b82525050565b6129e481613056565b82525050565b6129fb6129f682613056565b6131e1565b82525050565b612a0a816130bd565b82525050565b612a19816130cf565b82525050565b6000612a2a82612f58565b612a348185612f81565b9350612a448185602086016130f0565b612a4d816132c3565b840191505092915050565b6000612a6382612f58565b612a6d8185612f92565b9350612a7d8185602086016130f0565b612a86816132c3565b840191505092915050565b6000612a9c82612f58565b612aa68185612fa3565b9350612ab68185602086016130f0565b80840191505092915050565b60008154612acf81613123565b612ad98186612fa3565b94506001821660008114612af45760018114612b0557612b38565b60ff19831686528186019350612b38565b612b0e85612f38565b60005b83811015612b3057815481890152600182019150602081019050612b11565b838801955050505b50505092915050565b6000612b4e601383612f92565b9150612b59826132e1565b602082019050919050565b6000612b71602583612f92565b9150612b7c8261330a565b604082019050919050565b6000612b94602683612f92565b9150612b9f82613359565b604082019050919050565b6000612bb7601d83612f92565b9150612bc2826133a8565b602082019050919050565b6000612bda602083612f92565b9150612be5826133d1565b602082019050919050565b612bf9816130a6565b82525050565b612c10612c0b826130a6565b6131fd565b82525050565b612c1f816130b0565b82525050565b6000612c318284612940565b60148201915081905092915050565b6000612c4c8287612940565b601482019150612c5c8286612a91565b9150612c688285612bff565b602082019150612c7882846129ea565b60208201915081905095945050505050565b6000612c968284612a91565b915081905092915050565b6000612cad8284612ac2565b915081905092915050565b6000602082019050612ccd6000830184612931565b92915050565b60006020820190508181036000830152612ced8184612957565b905092915050565b6000602082019050612d0a60008301846129cc565b92915050565b600061012082019050612d26600083018c6129db565b8181036020830152612d38818b612a58565b9050612d47604083018a612931565b612d546060830189612931565b612d616080830188612bf0565b612d6e60a0830187612bf0565b612d7b60c0830186612bf0565b612d8860e0830185612bf0565b612d96610100830184612a01565b9a9950505050505050505050565b6000602082019050612db96000830184612a01565b92915050565b6000602082019050612dd46000830184612a10565b92915050565b60006020820190508181036000830152612df48184612a58565b905092915050565b60006020820190508181036000830152612e1581612b41565b9050919050565b60006020820190508181036000830152612e3581612b64565b9050919050565b60006020820190508181036000830152612e5581612b87565b9050919050565b60006020820190508181036000830152612e7581612baa565b9050919050565b60006020820190508181036000830152612e9581612bcd565b9050919050565b6000602082019050612eb16000830184612bf0565b92915050565b6000602082019050612ecc6000830184612c16565b92915050565b6000612edc612eed565b9050612ee88282613155565b919050565b6000604051905090565b600067ffffffffffffffff821115612f1257612f11613294565b5b612f1b826132c3565b9050602081019050919050565b6000819050602082019050919050565b60008190508160005260206000209050919050565b600081519050919050565b600081519050919050565b6000602082019050919050565b600082825260208201905092915050565b600082825260208201905092915050565b600082825260208201905092915050565b600081905092915050565b6000612fb9826130a6565b9150612fc4836130a6565b9250827fffffffffffffffffffffffffffffffffffffffffffffffffffffffffffffffff03821115612ff957612ff8613207565b5b828201905092915050565b600061300f826130a6565b915061301a836130a6565b92508282101561302d5761302c613207565b5b828203905092915050565b600061304382613086565b9050919050565b60008115159050919050565b6000819050919050565b600081905061306e826133fa565b919050565b60008190506130818261340e565b919050565b600073ffffffffffffffffffffffffffffffffffffffff82169050919050565b6000819050919050565b600060ff82169050919050565b60006130c882613060565b9050919050565b60006130da82613073565b9050919050565b82818337600083830152505050565b60005b8381101561310e5780820151818401526020810190506130f3565b8381111561311d576000848401525b50505050565b6000600282049050600182168061313b57607f821691505b6020821081141561314f5761314e613265565b5b50919050565b61315e826132c3565b810181811067ffffffffffffffff8211171561317d5761317c613294565b5b80604052505050565b6000613191826130a6565b91507fffffffffffffffffffffffffffffffffffffffffffffffffffffffffffffffff8214156131c4576131c3613207565b5b600182019050919050565b60006131da826131eb565b9050919050565b6000819050919050565b60006131f6826132d4565b9050919050565b6000819050919050565b7f4e487b7100000000000000000000000000000000000000000000000000000000600052601160045260246000fd5b7f4e487b7100000000000000000000000000000000000000000000000000000000600052602160045260246000fd5b7f4e487b7100000000000000000000000000000000000000000000000000000000600052602260045260246000fd5b7f4e487b7100000000000000000000000000000000000000000000000000000000600052604160045260246000fd5b6000601f19601f8301169050919050565b60008160601b9050919050565b7f47726f757020616c726561647920657869737400000000000000000000000000600082015250565b7f5468652067726f75706e616d652773206e616d652063616e6e6f74206265206560008201527f6d70747921000000000000000000000000000000000000000000000000000000602082015250565b7f4f776e61626c653a206e6577206f776e657220697320746865207a65726f206160008201527f6464726573730000000000000000000000000000000000000000000000000000602082015250565b7f616d6f756e74206e65656420746f206265206d6f7265207468616e2030000000600082015250565b7f4f776e61626c653a2063616c6c6572206973206e6f7420746865206f776e6572600082015250565b6003811061340b5761340a613236565b5b50565b6004811061341f5761341e613236565b5b50565b61342b81613038565b811461343657600080fd5b50565b61344281613056565b811461344d57600080fd5b50565b613459816130a6565b811461346457600080fd5b5056fea2646970667358221220f07624e5e2a4859004b240f8346eec76d79866c528b22326501ea6d39f52f1c264736f6c63430008040033",
  "immutableReferences": {},
  "source": "// SPDX-License-Identifier: MIT\npragma solidity ^0.8.0;\npragma experimental ABIEncoderV2;\n\n\nimport \"@openzeppelin/contracts/access/Ownable.sol\";\nimport \"@openzeppelin/contracts/utils/math/SafeMath.sol\";\nimport \"./interfaces/ILiteswapToken.sol\";\nimport \"./LiteswapToken.sol\";\n\n\ncontract LiteSwapDAO1 is Ownable, LiteswapToken{\n\n\n  using SafeMath for uint;\n\n    //Group Basic info\n\n    address _owner;\n\n    struct MemberDetails {\n      uint contributions;\n      MemberState member_status;\n      uint joinedAt;\n      uint indexedAt;\n    }\n\n\n    struct GroupDetails {\n     bytes32 id;\n     string  groupName;\n     address groupCreator;\n     address groupAddress;\n     address[] groupMemberAddressList;\n     mapping(address => MemberDetails) memberList;\n     uint  groupBalance;\n     uint groupCreationAmount;  \n     uint groupIndex;\n     uint createdTime;\n     GroupState groupState;\n    }\n  \n\n     enum GroupState {Created, Updated, Deleted}\n\n     enum MemberState {Active, Suspended, Deleted, Added}\n\n     GroupState public groupState;\n\n     MemberState public memberState;\n\n     mapping(address => uint) public membersContributions;\n\n     mapping(bytes32 => GroupDetails) public groupMembers;\n\n     mapping(bytes32 => bool) private isGroupExist;\n\n     bytes32[] private groupIds;\n     string[] public groupNames;\n     address[] public groupMemberList;\n\n     event GroupCreated(address indexed addr, string groupName);\n\n     event MemberJoined(address indexed member, bool joined);\n\n     event MemberAddedFund(address indexed member);\n\n     modifier onlyCreator{\n       require(_owner == owner());\n       _;\n     }\n     \n\n\n\n  //     modifier memberHasContributed(address sender) {\n  //   require(membersContributions[sender] > 0);\n  //   _;\n  // }\n\n  constructor() public {\n    _owner = owner();\n\n\n\n  }\n\n      /**\n      * @notice Create a new Cooperative Group contract\n      * @dev function should create a cooperative\n      * @param _groupName - Name of the Cooperative\n      * @param amount - The minimum stake required to create a group\n       */ \n      \n      function createCooperativeGroup(\n        string memory _groupName, \n        uint amount) \n        public payable \n        onlyCreator \n        returns(bool success) {\n          \n        require(bytes(_groupName).length > 0, \"The groupname's name cannot be empty!\");\n        require(checkGroupAddress(_groupName) == false, \"Group already exist\");\n        require(balances[_owner] > 0 && _owner == address(0));\n        require(amount > 0,\"amount need to be more than 0\");    \n\n        \n        bytes32 blockHash = blockhash(block.number - 1);\n        bytes32 id = keccak256(abi.encodePacked(_owner, _groupName, block.timestamp, blockHash));\n\n\n        groupIds.push(id);\n        groupNames.push(_groupName);\n    \n  \n        groupMembers[id].id = id;\n        groupMembers[id].groupName = _groupName;\n        groupMembers[id].groupCreator = _owner;\n        groupMembers[id].groupAddress = address(this);\n        groupMembers[id].groupMemberAddressList.push(_owner);\n        groupMembers[id].memberList[_owner] = MemberDetails(amount, MemberState.Added, block.timestamp, groupMembers[id].groupMemberAddressList.length - 1);\n        groupMembers[id].groupBalance = amount;\n        groupMembers[id].groupCreationAmount = amount;\n        groupMembers[id].groupIndex = groupIds.length - 1;\n        groupMembers[id].createdTime = block.timestamp;\n        groupMembers[id].groupState = GroupState.Created;\n\n        balances[_owner] -= amount;\n        balances[groupMembers[id].groupAddress] += amount;\n\n        // transferFrom(_owner, groupMembers[id].groupAddress, amount); \n\n         membersContributions[_owner] += amount;\n         isGroupExist[id] = true;\n\n        emit GroupCreated(groupMembers[id].groupAddress, _groupName);\n        \n        return true;\n    }\n\n   \n    /**\n    * @notice register a new member to the cooperative\n    * @param groupName the name of the group the new member want to belong to\n    */\n\n    function addMember(string memory groupName) public payable returns(bool) {   \n\n\n       bytes32 _addr = 0x00;\n      for(uint i = 0; i < groupNames.length; i++ ){\n        if(keccak256(abi.encodePacked(groupNames[i])) == keccak256(abi.encodePacked(groupName))){\n           _addr =  groupIds[i];\n        }\n      }\n       uint addingFee = groupMembers[_addr].groupCreationAmount;   \n      // require(balances[msg.sender] > addingFee, \"No sufficient Fund!\" );\n\n       groupMembers[_addr].groupMemberAddressList.push(msg.sender);\n       groupMembers[_addr].memberList[msg.sender] = MemberDetails(addingFee, MemberState.Added, block.timestamp,  groupMembers[_addr].groupMemberAddressList.length - 1);\n\n       balances[msg.sender] -= addingFee;\n       balances[groupMembers[_addr].groupAddress] += addingFee;\n\n       groupMembers[_addr].groupBalance += addingFee;\n\n      // transferFrom(msg.sender, groupMembers[_addr].groupAddress, addingFee); \n\n       emit MemberJoined(msg.sender, true);\n\n       return true;\n      \n    }\n\n  /**\n  * @notice get all members count belonging to a group\n  * @param groupName the name of the group total member count \n  */\n\n  function getAllGroupMembersCount(string memory groupName) public view returns (uint256) {\n        bytes32 _addr = 0x00;\n      for(uint i = 0; i < groupNames.length; i++ ){\n        if(keccak256(abi.encodePacked(groupNames[i])) == keccak256(abi.encodePacked(groupName))){\n           _addr =  groupIds[i];\n        }\n      }\n       return groupMembers[_addr].groupMemberAddressList.length;\n\n  }\n\n  //get all cooperative names\n  function getCooperativeNames() public view returns (string[] memory){\n    return groupNames;\n  }\n\n  //return group members contribution\n  function getMemberContributions(address member) public view returns (uint) {\n    require(getMemberAddress(member) == true);\n    return membersContributions[member];\n  }\n\n\n  /**\n  * @notice return members account address\n  * @param member get memebr address\n  */\n  function getMemberAddress(address member) public view returns (bool){\n     for(uint i = 0;  i < groupMemberList.length; i++){\n       if(keccak256(abi.encodePacked(groupMemberList[i])) == keccak256(abi.encodePacked(member))){\n         return true;\n       }\n     }\n\n     return false;\n  }\n\n  /**\n  * @notice check if group address is in array\n  * @param groupName get name to check\n   */\n\n   function checkGroupAddress(string memory groupName) public view returns (bool) {\n       bytes32 _addr = 0x00;\n       for(uint i = 0;  i < groupNames.length; i++){\n       if(keccak256(abi.encodePacked(groupNames[i])) == keccak256(abi.encodePacked(groupName))){\n         _addr = groupIds[i];\n         if(isGroupExist[_addr] == true){\n           return true; \n         }\n                \n         \n       }\n     }\n\n     return false;\n   }\n  \n \n}",
  "sourcePath": "/home/emplug7/applications/liteswapv1/contracts/LiteSwapDAO1.sol",
  "compiler": {
    "name": "solc",
    "version": "0.8.4+commit.c7e474f2.Emscripten.clang"
  },
  "schemaVersion": "3.3.4",
  "updatedAt": "2021-04-26T11:59:52.241Z",
  "networkType": "ethereum",
  "devdoc": {
    "kind": "dev",
    "methods": {
      "addMember(string)": {
        "params": {
          "groupName": "the name of the group the new member want to belong to"
        }
      },
      "balanceOf(address)": {
        "params": {
          "_owner": "The address from which the balance will be retrieved"
        },
        "returns": {
          "_0": "The balance"
        }
      },
      "checkGroupAddress(string)": {
        "params": {
          "groupName": "get name to check"
        }
      },
      "createCooperativeGroup(string,uint256)": {
        "details": "function should create a cooperative",
        "params": {
          "_groupName": "- Name of the Cooperative",
          "amount": "- The minimum stake required to create a group"
        }
      },
      "getAllGroupMembersCount(string)": {
        "params": {
          "groupName": "the name of the group total member count "
        }
      },
      "getMemberAddress(address)": {
        "params": {
          "member": "get memebr address"
        }
      },
      "owner()": {
        "details": "Returns the address of the current owner."
      },
      "renounceOwnership()": {
        "details": "Leaves the contract without owner. It will not be possible to call `onlyOwner` functions anymore. Can only be called by the current owner. NOTE: Renouncing ownership will leave the contract without an owner, thereby removing any functionality that is only available to the owner."
      },
      "totalSupply()": {
        "returns": {
          "_0": "total amount of tokens"
        }
      },
      "transferOwnership(address)": {
        "details": "Transfers ownership of the contract to a new account (`newOwner`). Can only be called by the current owner."
      }
    },
    "version": 1
  },
  "userdoc": {
    "kind": "user",
    "methods": {
      "addMember(string)": {
        "notice": "register a new member to the cooperative"
      },
      "checkGroupAddress(string)": {
        "notice": "check if group address is in array"
      },
      "createCooperativeGroup(string,uint256)": {
        "notice": "Create a new Cooperative Group contract"
      },
      "getAllGroupMembersCount(string)": {
        "notice": "get all members count belonging to a group"
      },
      "getMemberAddress(address)": {
        "notice": "return members account address"
      }
    },
    "version": 1
  }
}