{
  "contractName": "LiteSwapDAOFactory",
  "abi": [
    {
      "inputs": [],
      "stateMutability": "nonpayable",
      "type": "constructor"
    },
    {
      "anonymous": false,
      "inputs": [
        {
          "indexed": true,
          "internalType": "address",
          "name": "previousOwner",
          "type": "address"
        },
        {
          "indexed": true,
          "internalType": "address",
          "name": "newOwner",
          "type": "address"
        }
      ],
      "name": "OwnershipTransferred",
      "type": "event"
    },
    {
      "inputs": [
        {
          "internalType": "uint256",
          "name": "",
          "type": "uint256"
        }
      ],
      "name": "cooperativeGroups",
      "outputs": [
        {
          "internalType": "address",
          "name": "",
          "type": "address"
        }
      ],
      "stateMutability": "view",
      "type": "function",
      "constant": true
    },
    {
      "inputs": [
        {
          "internalType": "uint256",
          "name": "",
          "type": "uint256"
        }
      ],
      "name": "createdGroupNames",
      "outputs": [
        {
          "internalType": "string",
          "name": "",
          "type": "string"
        }
      ],
      "stateMutability": "view",
      "type": "function",
      "constant": true
    },
    {
      "inputs": [],
      "name": "currentGroupAddress",
      "outputs": [
        {
          "internalType": "address",
          "name": "",
          "type": "address"
        }
      ],
      "stateMutability": "view",
      "type": "function",
      "constant": true
    },
    {
      "inputs": [],
      "name": "currentGroupName",
      "outputs": [
        {
          "internalType": "string",
          "name": "",
          "type": "string"
        }
      ],
      "stateMutability": "view",
      "type": "function",
      "constant": true
    },
    {
      "inputs": [],
      "name": "owner",
      "outputs": [
        {
          "internalType": "address",
          "name": "",
          "type": "address"
        }
      ],
      "stateMutability": "view",
      "type": "function",
      "constant": true
    },
    {
      "inputs": [],
      "name": "renounceOwnership",
      "outputs": [],
      "stateMutability": "nonpayable",
      "type": "function"
    },
    {
      "inputs": [
        {
          "internalType": "address",
          "name": "newOwner",
          "type": "address"
        }
      ],
      "name": "transferOwnership",
      "outputs": [],
      "stateMutability": "nonpayable",
      "type": "function"
    },
    {
      "inputs": [
        {
          "internalType": "address",
          "name": "token",
          "type": "address"
        },
        {
          "internalType": "address",
          "name": "to",
          "type": "address"
        },
        {
          "internalType": "uint256",
          "name": "value",
          "type": "uint256"
        }
      ],
      "name": "distribute",
      "outputs": [],
      "stateMutability": "nonpayable",
      "type": "function"
    },
    {
      "inputs": [
        {
          "internalType": "string",
          "name": "groupName",
          "type": "string"
        },
        {
          "internalType": "uint256",
          "name": "amount",
          "type": "uint256"
        }
      ],
      "name": "createCooperativeGroup",
      "outputs": [
        {
          "internalType": "bool",
          "name": "",
          "type": "bool"
        }
      ],
      "stateMutability": "payable",
      "type": "function",
      "payable": true
    },
    {
      "inputs": [
        {
          "internalType": "string",
          "name": "groupName",
          "type": "string"
        }
      ],
      "name": "joinCooperativeGroup",
      "outputs": [
        {
          "internalType": "bool",
          "name": "",
          "type": "bool"
        }
      ],
      "stateMutability": "payable",
      "type": "function",
      "payable": true
    },
    {
      "inputs": [
        {
          "internalType": "string",
          "name": "name",
          "type": "string"
        }
      ],
      "name": "getGroupCount",
      "outputs": [
        {
          "internalType": "uint256",
          "name": "",
          "type": "uint256"
        }
      ],
      "stateMutability": "payable",
      "type": "function",
      "payable": true
    },
    {
      "inputs": [],
      "name": "getcooperativeGroups",
      "outputs": [
        {
          "internalType": "address[]",
          "name": "",
          "type": "address[]"
        }
      ],
      "stateMutability": "view",
      "type": "function",
      "constant": true
    },
    {
      "inputs": [],
      "name": "getcooperativeGroupNames",
      "outputs": [
        {
          "internalType": "string[]",
          "name": "",
          "type": "string[]"
        }
      ],
      "stateMutability": "view",
      "type": "function",
      "constant": true
    }
  ],
  "bytecode": "0x608060405234801561001057600080fd5b50600061002161012d60201b60201c565b9050806000806101000a81548173ffffffffffffffffffffffffffffffffffffffff021916908373ffffffffffffffffffffffffffffffffffffffff1602179055508073ffffffffffffffffffffffffffffffffffffffff16600073ffffffffffffffffffffffffffffffffffffffff167f8be0079c531659141344cd1fd0a4f28419497f9722a3daafe3b4186f6b6457e060405160405180910390a3506040516100cb90610135565b604051809103906000f0801580156100e7573d6000803e3d6000fd5b50600160006101000a81548173ffffffffffffffffffffffffffffffffffffffff021916908373ffffffffffffffffffffffffffffffffffffffff160217905550610143565b600033905090565b6137b3806200191583390190565b6117c280620001536000396000f3fe6080604052600436106100c25760003560e01c80638cf401121161007f578063ad146eeb11610059578063ad146eeb14610258578063cfe86b9814610288578063ef9364fe146102b8578063f2fde38b146102e8576100c2565b80638cf40112146101d95780638da5cb5b14610204578063a16a91831461022f576100c2565b806309433ae2146100c7578063676ad26b146100f2578063715018a61461011d57806375985dd11461013457806375e97c5a146101715780638b1ab72c146101ae575b600080fd5b3480156100d357600080fd5b506100dc610311565b6040516100e99190611346565b60405180910390f35b3480156100fe57600080fd5b5061010761039f565b60405161011491906112a3565b60405180910390f35b34801561012957600080fd5b506101326103c5565b005b34801561014057600080fd5b5061015b60048036038101906101569190610ff3565b6104ff565b60405161016891906112a3565b60405180910390f35b34801561017d57600080fd5b5061019860048036038101906101939190610ff3565b61053e565b6040516101a59190611346565b60405180910390f35b3480156101ba57600080fd5b506101c36105ea565b6040516101d09190611309565b60405180910390f35b3480156101e557600080fd5b506101ee610696565b6040516101fb91906112e7565b60405180910390f35b34801561021057600080fd5b50610219610724565b60405161022691906112a3565b60405180910390f35b34801561023b57600080fd5b5061025660048036038101906102519190610ea5565b61074d565b005b610272600480360381019061026d9190610f5e565b6108d7565b60405161027f91906113f8565b60405180910390f35b6102a2600480360381019061029d9190610f9f565b61098a565b6040516102af919061132b565b60405180910390f35b6102d260048036038101906102cd9190610f5e565b610a42565b6040516102df919061132b565b60405180910390f35b3480156102f457600080fd5b5061030f600480360381019061030a9190610e7c565b610af7565b005b6006805461031e906115d4565b80601f016020809104026020016040519081016040528092919081815260200182805461034a906115d4565b80156103975780601f1061036c57610100808354040283529160200191610397565b820191906000526020600020905b81548152906001019060200180831161037a57829003601f168201915b505050505081565b600560009054906101000a900473ffffffffffffffffffffffffffffffffffffffff1681565b6103cd610ca0565b73ffffffffffffffffffffffffffffffffffffffff166103eb610724565b73ffffffffffffffffffffffffffffffffffffffff1614610441576040517f08c379a0000000000000000000000000000000000000000000000000000000008152600401610438906113d8565b60405180910390fd5b600073ffffffffffffffffffffffffffffffffffffffff1660008054906101000a900473ffffffffffffffffffffffffffffffffffffffff1673ffffffffffffffffffffffffffffffffffffffff167f8be0079c531659141344cd1fd0a4f28419497f9722a3daafe3b4186f6b6457e060405160405180910390a360008060006101000a81548173ffffffffffffffffffffffffffffffffffffffff021916908373ffffffffffffffffffffffffffffffffffffffff160217905550565b6003818154811061050f57600080fd5b906000526020600020016000915054906101000a900473ffffffffffffffffffffffffffffffffffffffff1681565b6004818154811061054e57600080fd5b906000526020600020016000915090508054610569906115d4565b80601f0160208091040260200160405190810160405280929190818152602001828054610595906115d4565b80156105e25780601f106105b7576101008083540402835291602001916105e2565b820191906000526020600020905b8154815290600101906020018083116105c557829003601f168201915b505050505081565b6060600160009054906101000a900473ffffffffffffffffffffffffffffffffffffffff1673ffffffffffffffffffffffffffffffffffffffff1663219b15966040518163ffffffff1660e01b815260040160006040518083038186803b15801561065457600080fd5b505afa158015610668573d6000803e3d6000fd5b505050506040513d6000823e3d601f19601f820116820180604052508101906106919190610ef4565b905090565b6060600380548060200260200160405190810160405280929190818152602001828054801561071a57602002820191906000526020600020905b8160009054906101000a900473ffffffffffffffffffffffffffffffffffffffff1673ffffffffffffffffffffffffffffffffffffffff16815260200190600101908083116106d0575b5050505050905090565b60008060009054906101000a900473ffffffffffffffffffffffffffffffffffffffff16905090565b6000808473ffffffffffffffffffffffffffffffffffffffff166040518060400160405280601981526020017f7472616e7366657228616464726573732c75696e7432353629000000000000008152508051906020012085856040516024016107b79291906112be565b604051602081830303815290604052907bffffffffffffffffffffffffffffffffffffffffffffffffffffffff19166020820180517bffffffffffffffffffffffffffffffffffffffffffffffffffffffff8381831617835250505050604051610821919061128c565b6000604051808303816000865af19150503d806000811461085e576040519150601f19603f3d011682016040523d82523d6000602084013e610863565b606091505b5091509150818015610891575060008151148061089057508080602001905181019061088f9190610f35565b5b5b6108d0576040517f08c379a00000000000000000000000000000000000000000000000000000000081526004016108c7906113b8565b60405180910390fd5b5050505050565b6000600160009054906101000a900473ffffffffffffffffffffffffffffffffffffffff1673ffffffffffffffffffffffffffffffffffffffff166393634517836040518263ffffffff1660e01b81526004016109349190611346565b60206040518083038186803b15801561094c57600080fd5b505afa158015610960573d6000803e3d6000fd5b505050506040513d601f19601f82011682018060405250810190610984919061101c565b50919050565b6000600160009054906101000a900473ffffffffffffffffffffffffffffffffffffffff1673ffffffffffffffffffffffffffffffffffffffff1663cfe86b9884846040518363ffffffff1660e01b81526004016109e9929190611368565b602060405180830381600087803b158015610a0357600080fd5b505af1158015610a17573d6000803e3d6000fd5b505050506040513d601f19601f82011682018060405250810190610a3b9190610f35565b5092915050565b6000600160009054906101000a900473ffffffffffffffffffffffffffffffffffffffff1673ffffffffffffffffffffffffffffffffffffffff1663918f9687836040518263ffffffff1660e01b8152600401610a9f9190611346565b602060405180830381600087803b158015610ab957600080fd5b505af1158015610acd573d6000803e3d6000fd5b505050506040513d601f19601f82011682018060405250810190610af19190610f35565b50919050565b610aff610ca0565b73ffffffffffffffffffffffffffffffffffffffff16610b1d610724565b73ffffffffffffffffffffffffffffffffffffffff1614610b73576040517f08c379a0000000000000000000000000000000000000000000000000000000008152600401610b6a906113d8565b60405180910390fd5b600073ffffffffffffffffffffffffffffffffffffffff168173ffffffffffffffffffffffffffffffffffffffff161415610be3576040517f08c379a0000000000000000000000000000000000000000000000000000000008152600401610bda90611398565b60405180910390fd5b8073ffffffffffffffffffffffffffffffffffffffff1660008054906101000a900473ffffffffffffffffffffffffffffffffffffffff1673ffffffffffffffffffffffffffffffffffffffff167f8be0079c531659141344cd1fd0a4f28419497f9722a3daafe3b4186f6b6457e060405160405180910390a3806000806101000a81548173ffffffffffffffffffffffffffffffffffffffff021916908373ffffffffffffffffffffffffffffffffffffffff16021790555050565b600033905090565b6000610cbb610cb684611438565b611413565b90508083825260208201905082856020860282011115610cda57600080fd5b60005b85811015610d2457815167ffffffffffffffff811115610cfc57600080fd5b808601610d098982610e28565b85526020850194506020840193505050600181019050610cdd565b5050509392505050565b6000610d41610d3c84611464565b611413565b905082815260208101848484011115610d5957600080fd5b610d64848285611592565b509392505050565b6000610d7f610d7a84611464565b611413565b905082815260208101848484011115610d9757600080fd5b610da28482856115a1565b509392505050565b600081359050610db981611747565b92915050565b600082601f830112610dd057600080fd5b8151610de0848260208601610ca8565b91505092915050565b600081519050610df88161175e565b92915050565b600082601f830112610e0f57600080fd5b8135610e1f848260208601610d2e565b91505092915050565b600082601f830112610e3957600080fd5b8151610e49848260208601610d6c565b91505092915050565b600081359050610e6181611775565b92915050565b600081519050610e7681611775565b92915050565b600060208284031215610e8e57600080fd5b6000610e9c84828501610daa565b91505092915050565b600080600060608486031215610eba57600080fd5b6000610ec886828701610daa565b9350506020610ed986828701610daa565b9250506040610eea86828701610e52565b9150509250925092565b600060208284031215610f0657600080fd5b600082015167ffffffffffffffff811115610f2057600080fd5b610f2c84828501610dbf565b91505092915050565b600060208284031215610f4757600080fd5b6000610f5584828501610de9565b91505092915050565b600060208284031215610f7057600080fd5b600082013567ffffffffffffffff811115610f8a57600080fd5b610f9684828501610dfe565b91505092915050565b60008060408385031215610fb257600080fd5b600083013567ffffffffffffffff811115610fcc57600080fd5b610fd885828601610dfe565b9250506020610fe985828601610e52565b9150509250929050565b60006020828403121561100557600080fd5b600061101384828501610e52565b91505092915050565b60006020828403121561102e57600080fd5b600061103c84828501610e67565b91505092915050565b60006110518383611071565b60208301905092915050565b600061106983836111a2565b905092915050565b61107a8161154a565b82525050565b6110898161154a565b82525050565b600061109a826114b5565b6110a481856114fb565b93506110af83611495565b8060005b838110156110e05781516110c78882611045565b97506110d2836114e1565b9250506001810190506110b3565b5085935050505092915050565b60006110f8826114c0565b611102818561150c565b935083602082028501611114856114a5565b8060005b858110156111505784840389528151611131858261105d565b945061113c836114ee565b925060208a01995050600181019050611118565b50829750879550505050505092915050565b61116b8161155c565b82525050565b600061117c826114cb565b611186818561151d565b93506111968185602086016115a1565b80840191505092915050565b60006111ad826114d6565b6111b78185611528565b93506111c78185602086016115a1565b6111d081611695565b840191505092915050565b60006111e6826114d6565b6111f08185611539565b93506112008185602086016115a1565b61120981611695565b840191505092915050565b6000611221602683611539565b915061122c826116a6565b604082019050919050565b6000611244601483611539565b915061124f826116f5565b602082019050919050565b6000611267602083611539565b91506112728261171e565b602082019050919050565b61128681611588565b82525050565b60006112988284611171565b915081905092915050565b60006020820190506112b86000830184611080565b92915050565b60006040820190506112d36000830185611080565b6112e0602083018461127d565b9392505050565b60006020820190508181036000830152611301818461108f565b905092915050565b6000602082019050818103600083015261132381846110ed565b905092915050565b60006020820190506113406000830184611162565b92915050565b6000602082019050818103600083015261136081846111db565b905092915050565b6000604082019050818103600083015261138281856111db565b9050611391602083018461127d565b9392505050565b600060208201905081810360008301526113b181611214565b9050919050565b600060208201905081810360008301526113d181611237565b9050919050565b600060208201905081810360008301526113f18161125a565b9050919050565b600060208201905061140d600083018461127d565b92915050565b600061141d61142e565b90506114298282611606565b919050565b6000604051905090565b600067ffffffffffffffff82111561145357611452611666565b5b602082029050602081019050919050565b600067ffffffffffffffff82111561147f5761147e611666565b5b61148882611695565b9050602081019050919050565b6000819050602082019050919050565b6000819050602082019050919050565b600081519050919050565b600081519050919050565b600081519050919050565b600081519050919050565b6000602082019050919050565b6000602082019050919050565b600082825260208201905092915050565b600082825260208201905092915050565b600081905092915050565b600082825260208201905092915050565b600082825260208201905092915050565b600061155582611568565b9050919050565b60008115159050919050565b600073ffffffffffffffffffffffffffffffffffffffff82169050919050565b6000819050919050565b82818337600083830152505050565b60005b838110156115bf5780820151818401526020810190506115a4565b838111156115ce576000848401525b50505050565b600060028204905060018216806115ec57607f821691505b60208210811415611600576115ff611637565b5b50919050565b61160f82611695565b810181811067ffffffffffffffff8211171561162e5761162d611666565b5b80604052505050565b7f4e487b7100000000000000000000000000000000000000000000000000000000600052602260045260246000fd5b7f4e487b7100000000000000000000000000000000000000000000000000000000600052604160045260246000fd5b6000601f19601f8301169050919050565b7f4f776e61626c653a206e6577206f776e657220697320746865207a65726f206160008201527f6464726573730000000000000000000000000000000000000000000000000000602082015250565b7f4c54533a205452414e534645525f4641494c4544000000000000000000000000600082015250565b7f4f776e61626c653a2063616c6c6572206973206e6f7420746865206f776e6572600082015250565b6117508161154a565b811461175b57600080fd5b50565b6117678161155c565b811461177257600080fd5b50565b61177e81611588565b811461178957600080fd5b5056fea2646970667358221220a29e4134f351fbdab3bf95e670fe61a0aba1393b3e8148bebbbba182a2fcc59064736f6c6343000804003360806040526040518060400160405280600e81526020017f4c6974657377617020546f6b656e000000000000000000000000000000000000815250600190805190602001906200005192919062000257565b506040518060400160405280600381526020017f4c54530000000000000000000000000000000000000000000000000000000000815250600290805190602001906200009f92919062000257565b506b033b2e3c9fd0803ce80000006003556012600460006101000a81548160ff021916908360ff160217905550348015620000d957600080fd5b506000620000ec6200022660201b60201c565b9050806000806101000a81548173ffffffffffffffffffffffffffffffffffffffff021916908373ffffffffffffffffffffffffffffffffffffffff1602179055508073ffffffffffffffffffffffffffffffffffffffff16600073ffffffffffffffffffffffffffffffffffffffff167f8be0079c531659141344cd1fd0a4f28419497f9722a3daafe3b4186f6b6457e060405160405180910390a350600354600560003373ffffffffffffffffffffffffffffffffffffffff1673ffffffffffffffffffffffffffffffffffffffff16815260200190815260200160002081905550620001e06200022e60201b60201c565b600760006101000a81548173ffffffffffffffffffffffffffffffffffffffff021916908373ffffffffffffffffffffffffffffffffffffffff1602179055506200036c565b600033905090565b60008060009054906101000a900473ffffffffffffffffffffffffffffffffffffffff16905090565b828054620002659062000307565b90600052602060002090601f016020900481019282620002895760008555620002d5565b82601f10620002a457805160ff1916838001178555620002d5565b82800160010185558215620002d5579182015b82811115620002d4578251825591602001919060010190620002b7565b5b509050620002e49190620002e8565b5090565b5b8082111562000303576000816000905550600101620002e9565b5090565b600060028204905060018216806200032057607f821691505b602082108114156200033757620003366200033d565b5b50919050565b7f4e487b7100000000000000000000000000000000000000000000000000000000600052602260045260246000fd5b613437806200037c6000396000f3fe6080604052600436106101b65760003560e01c806370a08231116100ec5780639e4d30991161008a578063cfe86b9811610064578063cfe86b98146106a6578063d6271edf146106d6578063dd62ed3e14610713578063f2fde38b14610750576101b6565b80639e4d3099146105ef578063a9059cbb1461062c578063b85ca53a14610669576101b6565b8063918f9687116100c6578063918f96871461052c578063936345171461055c57806395d89b41146105995780639b8193e6146105c4576101b6565b806370a08231146104ad578063715018a6146104ea5780638da5cb5b14610501576101b6565b806323b872dd11610159578063324536eb11610133578063324536eb146103cb57806342d3f2ed146103f65780634c203fcd146104335780635c65816514610470576101b6565b806323b872dd1461032657806327e235e314610363578063313ce567146103a0576101b6565b8063095ea7b311610195578063095ea7b31461024e578063114338741461028b57806318160ddd146102d0578063219b1596146102fb576101b6565b8062a2babd146101bb57806306fdde03146101e6578063072e6d4714610211575b600080fd5b3480156101c757600080fd5b506101d0610779565b6040516101dd9190612d59565b60405180910390f35b3480156101f257600080fd5b506101fb61078c565b6040516102089190612d74565b60405180910390f35b34801561021d57600080fd5b50610238600480360381019061023391906126e0565b61081a565b6040516102459190612c8f565b60405180910390f35b34801561025a57600080fd5b5061027560048036038101906102709190612794565b61090f565b6040516102829190612c8f565b60405180910390f35b34801561029757600080fd5b506102b260048036038101906102ad91906127d0565b610a01565b6040516102c799989796959493929190612caa565b60405180910390f35b3480156102dc57600080fd5b506102e5610b24565b6040516102f29190612e36565b60405180910390f35b34801561030757600080fd5b50610310610b2e565b60405161031d9190612c6d565b60405180910390f35b34801561033257600080fd5b5061034d60048036038101906103489190612745565b610c07565b60405161035a9190612c8f565b60405180910390f35b34801561036f57600080fd5b5061038a600480360381019061038591906126e0565b610e8d565b6040516103979190612e36565b60405180910390f35b3480156103ac57600080fd5b506103b5610ea5565b6040516103c29190612e51565b60405180910390f35b3480156103d757600080fd5b506103e0610eb8565b6040516103ed9190612e36565b60405180910390f35b34801561040257600080fd5b5061041d6004803603810190610418919061288e565b610ebe565b60405161042a9190612c52565b60405180910390f35b34801561043f57600080fd5b5061045a600480360381019061045591906126e0565b610efd565b6040516104679190612e36565b60405180910390f35b34801561047c57600080fd5b5061049760048036038101906104929190612709565b610f5f565b6040516104a49190612e36565b60405180910390f35b3480156104b957600080fd5b506104d460048036038101906104cf91906126e0565b610f84565b6040516104e19190612e36565b60405180910390f35b3480156104f657600080fd5b506104ff610fcd565b005b34801561050d57600080fd5b50610516611107565b6040516105239190612c52565b60405180910390f35b610546600480360381019061054191906127f9565b611130565b6040516105539190612c8f565b60405180910390f35b34801561056857600080fd5b50610583600480360381019061057e91906127f9565b61157f565b6040516105909190612e36565b60405180910390f35b3480156105a557600080fd5b506105ae6116ad565b6040516105bb9190612d74565b60405180910390f35b3480156105d057600080fd5b506105d961173b565b6040516105e69190612d3e565b60405180910390f35b3480156105fb57600080fd5b50610616600480360381019061061191906126e0565b61174e565b6040516106239190612e36565b60405180910390f35b34801561063857600080fd5b50610653600480360381019061064e9190612794565b611766565b6040516106609190612c8f565b60405180910390f35b34801561067557600080fd5b50610690600480360381019061068b91906127f9565b6118cf565b60405161069d9190612c8f565b60405180910390f35b6106c060048036038101906106bb919061283a565b611a1e565b6040516106cd9190612c8f565b60405180910390f35b3480156106e257600080fd5b506106fd60048036038101906106f8919061288e565b6122b2565b60405161070a9190612d74565b60405180910390f35b34801561071f57600080fd5b5061073a60048036038101906107359190612709565b61235e565b6040516107479190612e36565b60405180910390f35b34801561075c57600080fd5b50610777600480360381019061077291906126e0565b6123e5565b005b600760159054906101000a900460ff1681565b60018054610799906130bd565b80601f01602080910402602001604051908101604052809291908181526020018280546107c5906130bd565b80156108125780601f106107e757610100808354040283529160200191610812565b820191906000526020600020905b8154815290600101906020018083116107f557829003601f168201915b505050505081565b600080600090505b600d8054905081101561090457826040516020016108409190612bbf565b60405160208183030381529060405280519060200120600d8281548110610890577f4e487b7100000000000000000000000000000000000000000000000000000000600052603260045260246000fd5b9060005260206000200160009054906101000a900473ffffffffffffffffffffffffffffffffffffffff166040516020016108cb9190612bbf565b6040516020818303038152906040528051906020012014156108f157600191505061090a565b80806108fc90613120565b915050610822565b50600090505b919050565b600081600660003373ffffffffffffffffffffffffffffffffffffffff1673ffffffffffffffffffffffffffffffffffffffff16815260200190815260200160002060008573ffffffffffffffffffffffffffffffffffffffff1673ffffffffffffffffffffffffffffffffffffffff168152602001908152602001600020819055508273ffffffffffffffffffffffffffffffffffffffff163373ffffffffffffffffffffffffffffffffffffffff167f8c5be1e5ebec7d5bd14f71427d1e84f3dd0314c0f7b2291e5b200ac8c7c3b925846040516109ef9190612e36565b60405180910390a36001905092915050565b6009602052806000526040600020600091509050806000015490806001018054610a2a906130bd565b80601f0160208091040260200160405190810160405280929190818152602001828054610a56906130bd565b8015610aa35780601f10610a7857610100808354040283529160200191610aa3565b820191906000526020600020905b815481529060010190602001808311610a8657829003601f168201915b5050505050908060020160009054906101000a900473ffffffffffffffffffffffffffffffffffffffff16908060030160009054906101000a900473ffffffffffffffffffffffffffffffffffffffff169080600601549080600701549080600801549080600901549080600a0160009054906101000a900460ff16905089565b6000600354905090565b6060600c805480602002602001604051908101604052809291908181526020016000905b82821015610bfe578382906000526020600020018054610b71906130bd565b80601f0160208091040260200160405190810160405280929190818152602001828054610b9d906130bd565b8015610bea5780601f10610bbf57610100808354040283529160200191610bea565b820191906000526020600020905b815481529060010190602001808311610bcd57829003601f168201915b505050505081526020019060010190610b52565b50505050905090565b6000600560008573ffffffffffffffffffffffffffffffffffffffff1673ffffffffffffffffffffffffffffffffffffffff16815260200190815260200160002054821115610c5557600080fd5b600660008573ffffffffffffffffffffffffffffffffffffffff1673ffffffffffffffffffffffffffffffffffffffff16815260200190815260200160002060003373ffffffffffffffffffffffffffffffffffffffff1673ffffffffffffffffffffffffffffffffffffffff16815260200190815260200160002054821115610cde57600080fd5b81600560008673ffffffffffffffffffffffffffffffffffffffff1673ffffffffffffffffffffffffffffffffffffffff1681526020019081526020016000206000828254610d2d9190612f9e565b9250508190555081600560008573ffffffffffffffffffffffffffffffffffffffff1673ffffffffffffffffffffffffffffffffffffffff1681526020019081526020016000206000828254610d839190612f48565b9250508190555081600660008673ffffffffffffffffffffffffffffffffffffffff1673ffffffffffffffffffffffffffffffffffffffff16815260200190815260200160002060003373ffffffffffffffffffffffffffffffffffffffff1673ffffffffffffffffffffffffffffffffffffffff1681526020019081526020016000206000828254610e169190612f9e565b925050819055508273ffffffffffffffffffffffffffffffffffffffff168473ffffffffffffffffffffffffffffffffffffffff167fddf252ad1be2c89b69c2b068fc378daa952ba7f163c4a11628f55a4df523b3ef84604051610e7a9190612e36565b60405180910390a3600190509392505050565b60056020528060005260406000206000915090505481565b600460009054906101000a900460ff1681565b60035481565b600d8181548110610ece57600080fd5b906000526020600020016000915054906101000a900473ffffffffffffffffffffffffffffffffffffffff1681565b600060011515610f0c8361081a565b151514610f1857600080fd5b600860008373ffffffffffffffffffffffffffffffffffffffff1673ffffffffffffffffffffffffffffffffffffffff168152602001908152602001600020549050919050565b6006602052816000526040600020602052806000526040600020600091509150505481565b6000600560008373ffffffffffffffffffffffffffffffffffffffff1673ffffffffffffffffffffffffffffffffffffffff168152602001908152602001600020549050919050565b610fd561258e565b73ffffffffffffffffffffffffffffffffffffffff16610ff3611107565b73ffffffffffffffffffffffffffffffffffffffff1614611049576040517f08c379a000000000000000000000000000000000000000000000000000000000815260040161104090612e16565b60405180910390fd5b600073ffffffffffffffffffffffffffffffffffffffff1660008054906101000a900473ffffffffffffffffffffffffffffffffffffffff1673ffffffffffffffffffffffffffffffffffffffff167f8be0079c531659141344cd1fd0a4f28419497f9722a3daafe3b4186f6b6457e060405160405180910390a360008060006101000a81548173ffffffffffffffffffffffffffffffffffffffff021916908373ffffffffffffffffffffffffffffffffffffffff160217905550565b60008060009054906101000a900473ffffffffffffffffffffffffffffffffffffffff16905090565b6000806000801b905060005b600c8054905081101561123b578360405160200161115a9190612c24565b60405160208183030381529060405280519060200120600c82815481106111aa577f4e487b7100000000000000000000000000000000000000000000000000000000600052603260045260246000fd5b906000526020600020016040516020016111c49190612c3b565b60405160208183030381529060405280519060200120141561122857600b818154811061121a577f4e487b7100000000000000000000000000000000000000000000000000000000600052603260045260246000fd5b906000526020600020015491505b808061123390613120565b91505061113c565b5060006009600083815260200190815260200160002060070154905060096000838152602001908152602001600020600401339080600181540180825580915050600190039060005260206000200160009091909190916101000a81548173ffffffffffffffffffffffffffffffffffffffff021916908373ffffffffffffffffffffffffffffffffffffffff1602179055506040518060800160405280828152602001600380811115611318577f4e487b7100000000000000000000000000000000000000000000000000000000600052602160045260246000fd5b8152602001428152602001600160096000868152602001908152602001600020600401805490506113499190612f9e565b8152506009600084815260200190815260200160002060050160003373ffffffffffffffffffffffffffffffffffffffff1673ffffffffffffffffffffffffffffffffffffffff1681526020019081526020016000206000820151816000015560208201518160010160006101000a81548160ff021916908360038111156113fa577f4e487b7100000000000000000000000000000000000000000000000000000000600052602160045260246000fd5b0217905550604082015181600201556060820151816003015590505080600560003373ffffffffffffffffffffffffffffffffffffffff1673ffffffffffffffffffffffffffffffffffffffff16815260200190815260200160002060008282546114659190612f9e565b9250508190555080600560006009600086815260200190815260200160002060030160009054906101000a900473ffffffffffffffffffffffffffffffffffffffff1673ffffffffffffffffffffffffffffffffffffffff1673ffffffffffffffffffffffffffffffffffffffff16815260200190815260200160002060008282546114f19190612f48565b925050819055508060096000848152602001908152602001600020600601600082825461151e9190612f48565b925050819055503373ffffffffffffffffffffffffffffffffffffffff167f65924ed81952443d8d3f09bbd0093fb71891133c774e1ec3a9a32a67762c5f80600160405161156c9190612c8f565b60405180910390a2600192505050919050565b6000806000801b905060005b600c8054905081101561168a57836040516020016115a99190612c24565b60405160208183030381529060405280519060200120600c82815481106115f9577f4e487b7100000000000000000000000000000000000000000000000000000000600052603260045260246000fd5b906000526020600020016040516020016116139190612c3b565b60405160208183030381529060405280519060200120141561167757600b8181548110611669577f4e487b7100000000000000000000000000000000000000000000000000000000600052603260045260246000fd5b906000526020600020015491505b808061168290613120565b91505061158b565b506009600082815260200190815260200160002060040180549050915050919050565b600280546116ba906130bd565b80601f01602080910402602001604051908101604052809291908181526020018280546116e6906130bd565b80156117335780601f1061170857610100808354040283529160200191611733565b820191906000526020600020905b81548152906001019060200180831161171657829003601f168201915b505050505081565b600760149054906101000a900460ff1681565b60086020528060005260406000206000915090505481565b600081600560003373ffffffffffffffffffffffffffffffffffffffff1673ffffffffffffffffffffffffffffffffffffffff1681526020019081526020016000205410156117b457600080fd5b81600560003373ffffffffffffffffffffffffffffffffffffffff1673ffffffffffffffffffffffffffffffffffffffff16815260200190815260200160002060008282546118039190612f9e565b9250508190555081600560008573ffffffffffffffffffffffffffffffffffffffff1673ffffffffffffffffffffffffffffffffffffffff16815260200190815260200160002060008282546118599190612f48565b925050819055508273ffffffffffffffffffffffffffffffffffffffff163373ffffffffffffffffffffffffffffffffffffffff167fddf252ad1be2c89b69c2b068fc378daa952ba7f163c4a11628f55a4df523b3ef846040516118bd9190612e36565b60405180910390a36001905092915050565b6000806000801b905060005b600c80549050811015611a1257836040516020016118f99190612c24565b60405160208183030381529060405280519060200120600c8281548110611949577f4e487b7100000000000000000000000000000000000000000000000000000000600052603260045260246000fd5b906000526020600020016040516020016119639190612c3b565b6040516020818303038152906040528051906020012014156119ff57600b81815481106119b9577f4e487b7100000000000000000000000000000000000000000000000000000000600052603260045260246000fd5b9060005260206000200154915060011515600a600084815260200190815260200160002060009054906101000a900460ff16151514156119fe57600192505050611a19565b5b8080611a0a90613120565b9150506118db565b5060009150505b919050565b6000611a28611107565b73ffffffffffffffffffffffffffffffffffffffff16600760009054906101000a900473ffffffffffffffffffffffffffffffffffffffff1673ffffffffffffffffffffffffffffffffffffffff1614611a8157600080fd5b6000835111611ac5576040517f08c379a0000000000000000000000000000000000000000000000000000000008152600401611abc90612db6565b60405180910390fd5b60001515611ad2846118cf565b151514611b14576040517f08c379a0000000000000000000000000000000000000000000000000000000008152600401611b0b90612d96565b60405180910390fd5b6000600560003373ffffffffffffffffffffffffffffffffffffffff1673ffffffffffffffffffffffffffffffffffffffff16815260200190815260200160002054118015611b8f5750600073ffffffffffffffffffffffffffffffffffffffff163373ffffffffffffffffffffffffffffffffffffffff16145b611b9857600080fd5b60008211611bdb576040517f08c379a0000000000000000000000000000000000000000000000000000000008152600401611bd290612df6565b60405180910390fd5b6000600143611bea9190612f9e565b4090506000600760009054906101000a900473ffffffffffffffffffffffffffffffffffffffff16854284604051602001611c289493929190612bda565b604051602081830303815290604052805190602001209050600b819080600181540180825580915050600190039060005260206000200160009091909190915055600c85908060018154018082558091505060019003906000526020600020016000909190919091509080519060200190611ca4929190612596565b5080600960008381526020019081526020016000206000018190555084600960008381526020019081526020016000206001019080519060200190611cea929190612596565b50600760009054906101000a900473ffffffffffffffffffffffffffffffffffffffff166009600083815260200190815260200160002060020160006101000a81548173ffffffffffffffffffffffffffffffffffffffff021916908373ffffffffffffffffffffffffffffffffffffffff160217905550306009600083815260200190815260200160002060030160006101000a81548173ffffffffffffffffffffffffffffffffffffffff021916908373ffffffffffffffffffffffffffffffffffffffff16021790555060096000828152602001908152602001600020600401339080600181540180825580915050600190039060005260206000200160009091909190916101000a81548173ffffffffffffffffffffffffffffffffffffffff021916908373ffffffffffffffffffffffffffffffffffffffff1602179055506040518060800160405280858152602001600380811115611e78577f4e487b7100000000000000000000000000000000000000000000000000000000600052602160045260246000fd5b815260200142815260200160016009600085815260200190815260200160002060040180549050611ea99190612f9e565b815250600960008381526020019081526020016000206005016000600760009054906101000a900473ffffffffffffffffffffffffffffffffffffffff1673ffffffffffffffffffffffffffffffffffffffff1673ffffffffffffffffffffffffffffffffffffffff1681526020019081526020016000206000820151816000015560208201518160010160006101000a81548160ff02191690836003811115611f7c577f4e487b7100000000000000000000000000000000000000000000000000000000600052602160045260246000fd5b021790555060408201518160020155606082015181600301559050508360096000838152602001908152602001600020600601819055508360096000838152602001908152602001600020600701819055506001600b80549050611fe09190612f9e565b6009600083815260200190815260200160002060080181905550426009600083815260200190815260200160002060090181905550600060096000838152602001908152602001600020600a0160006101000a81548160ff02191690836002811115612075577f4e487b7100000000000000000000000000000000000000000000000000000000600052602160045260246000fd5b02179055508360056000600760009054906101000a900473ffffffffffffffffffffffffffffffffffffffff1673ffffffffffffffffffffffffffffffffffffffff1673ffffffffffffffffffffffffffffffffffffffff16815260200190815260200160002060008282546120eb9190612f9e565b9250508190555083600560006009600085815260200190815260200160002060030160009054906101000a900473ffffffffffffffffffffffffffffffffffffffff1673ffffffffffffffffffffffffffffffffffffffff1673ffffffffffffffffffffffffffffffffffffffff16815260200190815260200160002060008282546121779190612f48565b925050819055508360086000600760009054906101000a900473ffffffffffffffffffffffffffffffffffffffff1673ffffffffffffffffffffffffffffffffffffffff1673ffffffffffffffffffffffffffffffffffffffff16815260200190815260200160002060008282546121ef9190612f48565b925050819055506001600a600083815260200190815260200160002060006101000a81548160ff0219169083151502179055506009600082815260200190815260200160002060030160009054906101000a900473ffffffffffffffffffffffffffffffffffffffff1673ffffffffffffffffffffffffffffffffffffffff167fc41039f832f30470d1a983be3dc26f5432197ae33f31f1170f73fccfd67439fb8660405161229e9190612d74565b60405180910390a260019250505092915050565b600c81815481106122c257600080fd5b9060005260206000200160009150905080546122dd906130bd565b80601f0160208091040260200160405190810160405280929190818152602001828054612309906130bd565b80156123565780601f1061232b57610100808354040283529160200191612356565b820191906000526020600020905b81548152906001019060200180831161233957829003601f168201915b505050505081565b6000600660008473ffffffffffffffffffffffffffffffffffffffff1673ffffffffffffffffffffffffffffffffffffffff16815260200190815260200160002060008373ffffffffffffffffffffffffffffffffffffffff1673ffffffffffffffffffffffffffffffffffffffff16815260200190815260200160002054905092915050565b6123ed61258e565b73ffffffffffffffffffffffffffffffffffffffff1661240b611107565b73ffffffffffffffffffffffffffffffffffffffff1614612461576040517f08c379a000000000000000000000000000000000000000000000000000000000815260040161245890612e16565b60405180910390fd5b600073ffffffffffffffffffffffffffffffffffffffff168173ffffffffffffffffffffffffffffffffffffffff1614156124d1576040517f08c379a00000000000000000000000000000000000000000000000000000000081526004016124c890612dd6565b60405180910390fd5b8073ffffffffffffffffffffffffffffffffffffffff1660008054906101000a900473ffffffffffffffffffffffffffffffffffffffff1673ffffffffffffffffffffffffffffffffffffffff167f8be0079c531659141344cd1fd0a4f28419497f9722a3daafe3b4186f6b6457e060405160405180910390a3806000806101000a81548173ffffffffffffffffffffffffffffffffffffffff021916908373ffffffffffffffffffffffffffffffffffffffff16021790555050565b600033905090565b8280546125a2906130bd565b90600052602060002090601f0160209004810192826125c4576000855561260b565b82601f106125dd57805160ff191683800117855561260b565b8280016001018555821561260b579182015b8281111561260a5782518255916020019190600101906125ef565b5b509050612618919061261c565b5090565b5b8082111561263557600081600090555060010161261d565b5090565b600061264c61264784612e91565b612e6c565b90508281526020810184848401111561266457600080fd5b61266f84828561307b565b509392505050565b600081359050612686816133bc565b92915050565b60008135905061269b816133d3565b92915050565b600082601f8301126126b257600080fd5b81356126c2848260208601612639565b91505092915050565b6000813590506126da816133ea565b92915050565b6000602082840312156126f257600080fd5b600061270084828501612677565b91505092915050565b6000806040838503121561271c57600080fd5b600061272a85828601612677565b925050602061273b85828601612677565b9150509250929050565b60008060006060848603121561275a57600080fd5b600061276886828701612677565b935050602061277986828701612677565b925050604061278a868287016126cb565b9150509250925092565b600080604083850312156127a757600080fd5b60006127b585828601612677565b92505060206127c6858286016126cb565b9150509250929050565b6000602082840312156127e257600080fd5b60006127f08482850161268c565b91505092915050565b60006020828403121561280b57600080fd5b600082013567ffffffffffffffff81111561282557600080fd5b612831848285016126a1565b91505092915050565b6000806040838503121561284d57600080fd5b600083013567ffffffffffffffff81111561286757600080fd5b612873858286016126a1565b9250506020612884858286016126cb565b9150509250929050565b6000602082840312156128a057600080fd5b60006128ae848285016126cb565b91505092915050565b60006128c383836129b9565b905092915050565b6128d481612fd2565b82525050565b6128eb6128e682612fd2565b613169565b82525050565b60006128fc82612ee7565b6129068185612f0a565b93508360208202850161291885612ec2565b8060005b85811015612954578484038952815161293585826128b7565b945061294083612efd565b925060208a0199505060018101905061291c565b50829750879550505050505092915050565b61296f81612fe4565b82525050565b61297e81612ff0565b82525050565b61299561299082612ff0565b61317b565b82525050565b6129a481613057565b82525050565b6129b381613069565b82525050565b60006129c482612ef2565b6129ce8185612f1b565b93506129de81856020860161308a565b6129e78161325d565b840191505092915050565b60006129fd82612ef2565b612a078185612f2c565b9350612a1781856020860161308a565b612a208161325d565b840191505092915050565b6000612a3682612ef2565b612a408185612f3d565b9350612a5081856020860161308a565b80840191505092915050565b60008154612a69816130bd565b612a738186612f3d565b94506001821660008114612a8e5760018114612a9f57612ad2565b60ff19831686528186019350612ad2565b612aa885612ed2565b60005b83811015612aca57815481890152600182019150602081019050612aab565b838801955050505b50505092915050565b6000612ae8601383612f2c565b9150612af38261327b565b602082019050919050565b6000612b0b602583612f2c565b9150612b16826132a4565b604082019050919050565b6000612b2e602683612f2c565b9150612b39826132f3565b604082019050919050565b6000612b51601d83612f2c565b9150612b5c82613342565b602082019050919050565b6000612b74602083612f2c565b9150612b7f8261336b565b602082019050919050565b612b9381613040565b82525050565b612baa612ba582613040565b613197565b82525050565b612bb98161304a565b82525050565b6000612bcb82846128da565b60148201915081905092915050565b6000612be682876128da565b601482019150612bf68286612a2b565b9150612c028285612b99565b602082019150612c128284612984565b60208201915081905095945050505050565b6000612c308284612a2b565b915081905092915050565b6000612c478284612a5c565b915081905092915050565b6000602082019050612c6760008301846128cb565b92915050565b60006020820190508181036000830152612c8781846128f1565b905092915050565b6000602082019050612ca46000830184612966565b92915050565b600061012082019050612cc0600083018c612975565b8181036020830152612cd2818b6129f2565b9050612ce1604083018a6128cb565b612cee60608301896128cb565b612cfb6080830188612b8a565b612d0860a0830187612b8a565b612d1560c0830186612b8a565b612d2260e0830185612b8a565b612d3061010083018461299b565b9a9950505050505050505050565b6000602082019050612d53600083018461299b565b92915050565b6000602082019050612d6e60008301846129aa565b92915050565b60006020820190508181036000830152612d8e81846129f2565b905092915050565b60006020820190508181036000830152612daf81612adb565b9050919050565b60006020820190508181036000830152612dcf81612afe565b9050919050565b60006020820190508181036000830152612def81612b21565b9050919050565b60006020820190508181036000830152612e0f81612b44565b9050919050565b60006020820190508181036000830152612e2f81612b67565b9050919050565b6000602082019050612e4b6000830184612b8a565b92915050565b6000602082019050612e666000830184612bb0565b92915050565b6000612e76612e87565b9050612e8282826130ef565b919050565b6000604051905090565b600067ffffffffffffffff821115612eac57612eab61322e565b5b612eb58261325d565b9050602081019050919050565b6000819050602082019050919050565b60008190508160005260206000209050919050565b600081519050919050565b600081519050919050565b6000602082019050919050565b600082825260208201905092915050565b600082825260208201905092915050565b600082825260208201905092915050565b600081905092915050565b6000612f5382613040565b9150612f5e83613040565b9250827fffffffffffffffffffffffffffffffffffffffffffffffffffffffffffffffff03821115612f9357612f926131a1565b5b828201905092915050565b6000612fa982613040565b9150612fb483613040565b925082821015612fc757612fc66131a1565b5b828203905092915050565b6000612fdd82613020565b9050919050565b60008115159050919050565b6000819050919050565b600081905061300882613394565b919050565b600081905061301b826133a8565b919050565b600073ffffffffffffffffffffffffffffffffffffffff82169050919050565b6000819050919050565b600060ff82169050919050565b600061306282612ffa565b9050919050565b60006130748261300d565b9050919050565b82818337600083830152505050565b60005b838110156130a857808201518184015260208101905061308d565b838111156130b7576000848401525b50505050565b600060028204905060018216806130d557607f821691505b602082108114156130e9576130e86131ff565b5b50919050565b6130f88261325d565b810181811067ffffffffffffffff821117156131175761311661322e565b5b80604052505050565b600061312b82613040565b91507fffffffffffffffffffffffffffffffffffffffffffffffffffffffffffffffff82141561315e5761315d6131a1565b5b600182019050919050565b600061317482613185565b9050919050565b6000819050919050565b60006131908261326e565b9050919050565b6000819050919050565b7f4e487b7100000000000000000000000000000000000000000000000000000000600052601160045260246000fd5b7f4e487b7100000000000000000000000000000000000000000000000000000000600052602160045260246000fd5b7f4e487b7100000000000000000000000000000000000000000000000000000000600052602260045260246000fd5b7f4e487b7100000000000000000000000000000000000000000000000000000000600052604160045260246000fd5b6000601f19601f8301169050919050565b60008160601b9050919050565b7f47726f757020616c726561647920657869737400000000000000000000000000600082015250565b7f5468652067726f75706e616d652773206e616d652063616e6e6f74206265206560008201527f6d70747921000000000000000000000000000000000000000000000000000000602082015250565b7f4f776e61626c653a206e6577206f776e657220697320746865207a65726f206160008201527f6464726573730000000000000000000000000000000000000000000000000000602082015250565b7f616d6f756e74206e65656420746f206265206d6f7265207468616e2030000000600082015250565b7f4f776e61626c653a2063616c6c6572206973206e6f7420746865206f776e6572600082015250565b600381106133a5576133a46131d0565b5b50565b600481106133b9576133b86131d0565b5b50565b6133c581612fd2565b81146133d057600080fd5b50565b6133dc81612ff0565b81146133e757600080fd5b50565b6133f381613040565b81146133fe57600080fd5b5056fea2646970667358221220d886e01fdcdd5b3e72830850fbc046f2188364f9380ac741946088fc04c226fc64736f6c63430008040033",
  "immutableReferences": {},
  "source": "// SPDX-License-Identifier: MIT\n\npragma solidity ^0.8.0;\npragma experimental ABIEncoderV2;\n\nimport \"@openzeppelin/contracts/access/Ownable.sol\";\nimport \"./LiteSwapDAO1.sol\";\nimport \"@openzeppelin/contracts/utils/math/SafeMath.sol\";\nimport \"./LiteswapToken.sol\";\nimport \"./interfaces/ILiteswapToken.sol\";\ncontract LiteSwapDAOFactory is Ownable {\n\n\n  using SafeMath for uint;\n\n\n    LiteSwapDAO1 new_cooperative;\n\n    ILiteswapToken lToken;\n\n    address[] public cooperativeGroups;\n\n    string[] public createdGroupNames;\n\n    address public currentGroupAddress;\n    string public currentGroupName;\n\n  /// Empty constructor\n  constructor() public {\n    new_cooperative = new LiteSwapDAO1();\n  }\n\n\n/***\n* distribute LTS to caller\n */\n\n bytes4 private constant SELECTOR = bytes4(keccak256(bytes('transfer(address,uint256)')));\n\n\n function distribute(address token, address to, uint value) public {\n      (bool success, bytes memory data) = token.call(abi.encodeWithSelector(SELECTOR, to, value));\n        require(success && (data.length == 0 || abi.decode(data, (bool))), 'LTS: TRANSFER_FAILED');\n\n }\n  //create Cooperative Group\n  function createCooperativeGroup(string memory groupName, uint amount) public payable returns (bool) {\n       new_cooperative.createCooperativeGroup(groupName, amount );\n\n  }\n\n//All users to join a cooperative group\n  function joinCooperativeGroup(string memory groupName) public payable returns (bool) {\n    new_cooperative.addMember(groupName);\n  }\n\n  //get group members count\n\n  function getGroupCount(string memory name) public payable returns (uint){\n          new_cooperative.getAllGroupMembersCount(name);\n  }\n\n    /// Allow retrieving the the array of created contracts\n  /// @return An array of all created Cooperative Group contracts\n  function getcooperativeGroups() public view returns(address[] memory) {\n    return cooperativeGroups;\n  }\n\n      /// Allow retrieving the the array of created group names\n  /// @return An array of all created Cooperative Group names contracts\n  function getcooperativeGroupNames() public view returns (string[] memory) {\n      return new_cooperative.getCooperativeNames();\n  }\n\n}",
  "sourcePath": "/home/emplug7/applications/liteswapv1/contracts/LiteSwapDAOFactory.sol",
  "compiler": {
    "name": "solc",
    "version": "0.8.4+commit.c7e474f2.Emscripten.clang"
  },
  "schemaVersion": "3.3.4",
  "updatedAt": "2021-04-26T16:48:49.885Z",
  "networkType": "ethereum",
  "devdoc": {
    "kind": "dev",
    "methods": {
      "getcooperativeGroupNames()": {
        "returns": {
          "_0": "An array of all created Cooperative Group names contracts"
        }
      },
      "getcooperativeGroups()": {
        "returns": {
          "_0": "An array of all created Cooperative Group contracts"
        }
      },
      "owner()": {
        "details": "Returns the address of the current owner."
      },
      "renounceOwnership()": {
        "details": "Leaves the contract without owner. It will not be possible to call `onlyOwner` functions anymore. Can only be called by the current owner. NOTE: Renouncing ownership will leave the contract without an owner, thereby removing any functionality that is only available to the owner."
      },
      "transferOwnership(address)": {
        "details": "Transfers ownership of the contract to a new account (`newOwner`). Can only be called by the current owner."
      }
    },
    "version": 1
  },
  "userdoc": {
    "kind": "user",
    "methods": {
      "constructor": {
        "notice": "Empty constructor"
      },
      "getcooperativeGroupNames()": {
        "notice": "Allow retrieving the the array of created group names"
      },
      "getcooperativeGroups()": {
        "notice": "Allow retrieving the the array of created contracts"
      }
    },
    "version": 1
  }
}