{
  "contractName": "LiteSwapDAO1",
  "abi": [
    {
      "inputs": [],
      "stateMutability": "nonpayable",
      "type": "constructor"
    },
    {
      "anonymous": false,
      "inputs": [
        {
          "indexed": true,
          "internalType": "address",
          "name": "addr",
          "type": "address"
        },
        {
          "indexed": false,
          "internalType": "string",
          "name": "groupName",
          "type": "string"
        }
      ],
      "name": "GroupCreated",
      "type": "event"
    },
    {
      "anonymous": false,
      "inputs": [
        {
          "indexed": true,
          "internalType": "address",
          "name": "member",
          "type": "address"
        }
      ],
      "name": "MemberAddedFund",
      "type": "event"
    },
    {
      "anonymous": false,
      "inputs": [
        {
          "indexed": true,
          "internalType": "address",
          "name": "member",
          "type": "address"
        },
        {
          "indexed": false,
          "internalType": "bool",
          "name": "joined",
          "type": "bool"
        }
      ],
      "name": "MemberJoined",
      "type": "event"
    },
    {
      "anonymous": false,
      "inputs": [
        {
          "indexed": true,
          "internalType": "address",
          "name": "previousOwner",
          "type": "address"
        },
        {
          "indexed": true,
          "internalType": "address",
          "name": "newOwner",
          "type": "address"
        }
      ],
      "name": "OwnershipTransferred",
      "type": "event"
    },
    {
      "inputs": [
        {
          "internalType": "uint256",
          "name": "",
          "type": "uint256"
        }
      ],
      "name": "groupMemberList",
      "outputs": [
        {
          "internalType": "address",
          "name": "",
          "type": "address"
        }
      ],
      "stateMutability": "view",
      "type": "function"
    },
    {
      "inputs": [
        {
          "internalType": "bytes32",
          "name": "",
          "type": "bytes32"
        }
      ],
      "name": "groupMembers",
      "outputs": [
        {
          "internalType": "bytes32",
          "name": "id",
          "type": "bytes32"
        },
        {
          "internalType": "string",
          "name": "groupName",
          "type": "string"
        },
        {
          "internalType": "address",
          "name": "groupCreator",
          "type": "address"
        },
        {
          "internalType": "uint256",
          "name": "groupBalance",
          "type": "uint256"
        },
        {
          "internalType": "uint256",
          "name": "groupCreationAmount",
          "type": "uint256"
        },
        {
          "internalType": "uint256",
          "name": "groupIndex",
          "type": "uint256"
        },
        {
          "internalType": "uint256",
          "name": "createdTime",
          "type": "uint256"
        },
        {
          "internalType": "enum LiteSwapDAO1.GroupState",
          "name": "groupState",
          "type": "uint8"
        }
      ],
      "stateMutability": "view",
      "type": "function"
    },
    {
      "inputs": [
        {
          "internalType": "uint256",
          "name": "",
          "type": "uint256"
        }
      ],
      "name": "groupNames",
      "outputs": [
        {
          "internalType": "string",
          "name": "",
          "type": "string"
        }
      ],
      "stateMutability": "view",
      "type": "function"
    },
    {
      "inputs": [],
      "name": "groupState",
      "outputs": [
        {
          "internalType": "enum LiteSwapDAO1.GroupState",
          "name": "",
          "type": "uint8"
        }
      ],
      "stateMutability": "view",
      "type": "function"
    },
    {
      "inputs": [
        {
          "internalType": "address",
          "name": "",
          "type": "address"
        }
      ],
      "name": "membersContributions",
      "outputs": [
        {
          "internalType": "uint256",
          "name": "",
          "type": "uint256"
        }
      ],
      "stateMutability": "view",
      "type": "function"
    },
    {
      "inputs": [],
      "name": "owner",
      "outputs": [
        {
          "internalType": "address",
          "name": "",
          "type": "address"
        }
      ],
      "stateMutability": "view",
      "type": "function"
    },
    {
      "inputs": [],
      "name": "renounceOwnership",
      "outputs": [],
      "stateMutability": "nonpayable",
      "type": "function"
    },
    {
      "inputs": [
        {
          "internalType": "address",
          "name": "newOwner",
          "type": "address"
        }
      ],
      "name": "transferOwnership",
      "outputs": [],
      "stateMutability": "nonpayable",
      "type": "function"
    },
    {
      "inputs": [
        {
          "internalType": "string",
          "name": "_groupName",
          "type": "string"
        },
        {
          "internalType": "uint256",
          "name": "amount",
          "type": "uint256"
        }
      ],
      "name": "createCooperativeGroup",
      "outputs": [
        {
          "internalType": "bool",
          "name": "success",
          "type": "bool"
        }
      ],
      "stateMutability": "payable",
      "type": "function"
    },
    {
      "inputs": [
        {
          "internalType": "string",
          "name": "groupName",
          "type": "string"
        }
      ],
      "name": "addMember",
      "outputs": [
        {
          "internalType": "bool",
          "name": "",
          "type": "bool"
        }
      ],
      "stateMutability": "payable",
      "type": "function"
    },
    {
      "inputs": [
        {
          "internalType": "string",
          "name": "groupName",
          "type": "string"
        }
      ],
      "name": "getAllGroupMembersCount",
      "outputs": [
        {
          "internalType": "uint256",
          "name": "",
          "type": "uint256"
        }
      ],
      "stateMutability": "view",
      "type": "function"
    },
    {
      "inputs": [],
      "name": "getCooperativeNames",
      "outputs": [
        {
          "internalType": "string[]",
          "name": "",
          "type": "string[]"
        }
      ],
      "stateMutability": "view",
      "type": "function"
    }
  ],
  "bytecode": "0x608060405261001261015360201b60201c565b600160006101000a81548173ffffffffffffffffffffffffffffffffffffffff021916908373ffffffffffffffffffffffffffffffffffffffff16021790555034801561005e57600080fd5b50600061006f61017c60201b60201c565b9050806000806101000a81548173ffffffffffffffffffffffffffffffffffffffff021916908373ffffffffffffffffffffffffffffffffffffffff1602179055508073ffffffffffffffffffffffffffffffffffffffff16600073ffffffffffffffffffffffffffffffffffffffff167f8be0079c531659141344cd1fd0a4f28419497f9722a3daafe3b4186f6b6457e060405160405180910390a35033600160006101000a81548173ffffffffffffffffffffffffffffffffffffffff021916908373ffffffffffffffffffffffffffffffffffffffff160217905550610184565b60008060009054906101000a900473ffffffffffffffffffffffffffffffffffffffff16905090565b600033905090565b611b39806101936000396000f3fe6080604052600436106100a75760003560e01c8063936345171161006457806393634517146101ca5780639b8193e6146102075780639e4d309914610232578063cfe86b981461026f578063d6271edf1461029f578063f2fde38b146102dc576100a7565b806311433874146100ac578063219b1596146100f057806342d3f2ed1461011b578063715018a6146101585780638da5cb5b1461016f578063918f96871461019a575b600080fd5b3480156100b857600080fd5b506100d360048036038101906100ce91906110c4565b610305565b6040516100e798979695949392919061151f565b60405180910390f35b3480156100fc57600080fd5b50610105610402565b60405161011291906114e2565b60405180910390f35b34801561012757600080fd5b50610142600480360381019061013d9190611182565b6104db565b60405161014f91906114c7565b60405180910390f35b34801561016457600080fd5b5061016d61051a565b005b34801561017b57600080fd5b50610184610654565b60405161019191906114c7565b60405180910390f35b6101b460048036038101906101af91906110ed565b61067d565b6040516101c19190611504565b60405180910390f35b3480156101d657600080fd5b506101f160048036038101906101ec91906110ed565b610859565b6040516101fe9190611641565b60405180910390f35b34801561021357600080fd5b5061021c610987565b60405161022991906115a4565b60405180910390f35b34801561023e57600080fd5b506102596004803603810190610254919061109b565b61099a565b6040516102669190611641565b60405180910390f35b6102896004803603810190610284919061112e565b6109b2565b6040516102969190611504565b60405180910390f35b3480156102ab57600080fd5b506102c660048036038101906102c19190611182565b610cf4565b6040516102d391906115bf565b60405180910390f35b3480156102e857600080fd5b5061030360048036038101906102fe919061109b565b610da0565b005b600360205280600052604060002060009150905080600001549080600101805461032e90611825565b80601f016020809104026020016040519081016040528092919081815260200182805461035a90611825565b80156103a75780601f1061037c576101008083540402835291602001916103a7565b820191906000526020600020905b81548152906001019060200180831161038a57829003601f168201915b5050505050908060020160009054906101000a900473ffffffffffffffffffffffffffffffffffffffff16908060040154908060050154908060060154908060070154908060080160009054906101000a900460ff16905088565b60606005805480602002602001604051908101604052809291908181526020016000905b828210156104d257838290600052602060002001805461044590611825565b80601f016020809104026020016040519081016040528092919081815260200182805461047190611825565b80156104be5780601f10610493576101008083540402835291602001916104be565b820191906000526020600020905b8154815290600101906020018083116104a157829003601f168201915b505050505081526020019060010190610426565b50505050905090565b600681815481106104eb57600080fd5b906000526020600020016000915054906101000a900473ffffffffffffffffffffffffffffffffffffffff1681565b610522610f49565b73ffffffffffffffffffffffffffffffffffffffff16610540610654565b73ffffffffffffffffffffffffffffffffffffffff1614610596576040517f08c379a000000000000000000000000000000000000000000000000000000000815260040161058d90611621565b60405180910390fd5b600073ffffffffffffffffffffffffffffffffffffffff1660008054906101000a900473ffffffffffffffffffffffffffffffffffffffff1673ffffffffffffffffffffffffffffffffffffffff167f8be0079c531659141344cd1fd0a4f28419497f9722a3daafe3b4186f6b6457e060405160405180910390a360008060006101000a81548173ffffffffffffffffffffffffffffffffffffffff021916908373ffffffffffffffffffffffffffffffffffffffff160217905550565b60008060009054906101000a900473ffffffffffffffffffffffffffffffffffffffff16905090565b6000806000801b905060005b60058054905081101561078857836040516020016106a79190611499565b60405160208183030381529060405280519060200120600582815481106106f7577f4e487b7100000000000000000000000000000000000000000000000000000000600052603260045260246000fd5b9060005260206000200160405160200161071191906114b0565b6040516020818303038152906040528051906020012014156107755760048181548110610767577f4e487b7100000000000000000000000000000000000000000000000000000000600052603260045260246000fd5b906000526020600020015491505b808061078090611888565b915050610689565b5060036000828152602001908152602001600020600301339080600181540180825580915050600190039060005260206000200160009091909190916101000a81548173ffffffffffffffffffffffffffffffffffffffff021916908373ffffffffffffffffffffffffffffffffffffffff1602179055503373ffffffffffffffffffffffffffffffffffffffff167f65924ed81952443d8d3f09bbd0093fb71891133c774e1ec3a9a32a67762c5f8060016040516108479190611504565b60405180910390a26001915050919050565b6000806000801b905060005b60058054905081101561096457836040516020016108839190611499565b60405160208183030381529060405280519060200120600582815481106108d3577f4e487b7100000000000000000000000000000000000000000000000000000000600052603260045260246000fd5b906000526020600020016040516020016108ed91906114b0565b6040516020818303038152906040528051906020012014156109515760048181548110610943577f4e487b7100000000000000000000000000000000000000000000000000000000600052603260045260246000fd5b906000526020600020015491505b808061095c90611888565b915050610865565b506003600082815260200190815260200160002060030180549050915050919050565b600160149054906101000a900460ff1681565b60026020528060005260406000206000915090505481565b6000808351116109f7576040517f08c379a00000000000000000000000000000000000000000000000000000000081526004016109ee906115e1565b60405180910390fd5b6000600143610a069190611738565b409050600033854284604051602001610a22949392919061144f565b6040516020818303038152906040528051906020012090506004819080600181540180825580915050600190039060005260206000200160009091909190915055600585908060018154018082558091505060019003906000526020600020016000909190919091509080519060200190610a9e929190610f51565b5080600360008381526020019081526020016000206000018190555084600360008381526020019081526020016000206001019080519060200190610ae4929190610f51565b50600160009054906101000a900473ffffffffffffffffffffffffffffffffffffffff166003600083815260200190815260200160002060020160006101000a81548173ffffffffffffffffffffffffffffffffffffffff021916908373ffffffffffffffffffffffffffffffffffffffff16021790555060036000828152602001908152602001600020600301339080600181540180825580915050600190039060005260206000200160009091909190916101000a81548173ffffffffffffffffffffffffffffffffffffffff021916908373ffffffffffffffffffffffffffffffffffffffff1602179055508360036000838152602001908152602001600020600501819055506001600480549050610c009190611738565b600360008381526020019081526020016000206006018190555042600360008381526020019081526020016000206007018190555060006003600083815260200190815260200160002060080160006101000a81548160ff02191690836002811115610c95577f4e487b7100000000000000000000000000000000000000000000000000000000600052602160045260246000fd5b02179055503073ffffffffffffffffffffffffffffffffffffffff167fc41039f832f30470d1a983be3dc26f5432197ae33f31f1170f73fccfd67439fb86604051610ce091906115bf565b60405180910390a260019250505092915050565b60058181548110610d0457600080fd5b906000526020600020016000915090508054610d1f90611825565b80601f0160208091040260200160405190810160405280929190818152602001828054610d4b90611825565b8015610d985780601f10610d6d57610100808354040283529160200191610d98565b820191906000526020600020905b815481529060010190602001808311610d7b57829003601f168201915b505050505081565b610da8610f49565b73ffffffffffffffffffffffffffffffffffffffff16610dc6610654565b73ffffffffffffffffffffffffffffffffffffffff1614610e1c576040517f08c379a0000000000000000000000000000000000000000000000000000000008152600401610e1390611621565b60405180910390fd5b600073ffffffffffffffffffffffffffffffffffffffff168173ffffffffffffffffffffffffffffffffffffffff161415610e8c576040517f08c379a0000000000000000000000000000000000000000000000000000000008152600401610e8390611601565b60405180910390fd5b8073ffffffffffffffffffffffffffffffffffffffff1660008054906101000a900473ffffffffffffffffffffffffffffffffffffffff1673ffffffffffffffffffffffffffffffffffffffff167f8be0079c531659141344cd1fd0a4f28419497f9722a3daafe3b4186f6b6457e060405160405180910390a3806000806101000a81548173ffffffffffffffffffffffffffffffffffffffff021916908373ffffffffffffffffffffffffffffffffffffffff16021790555050565b600033905090565b828054610f5d90611825565b90600052602060002090601f016020900481019282610f7f5760008555610fc6565b82601f10610f9857805160ff1916838001178555610fc6565b82800160010185558215610fc6579182015b82811115610fc5578251825591602001919060010190610faa565b5b509050610fd39190610fd7565b5090565b5b80821115610ff0576000816000905550600101610fd8565b5090565b600061100761100284611681565b61165c565b90508281526020810184848401111561101f57600080fd5b61102a8482856117e3565b509392505050565b60008135905061104181611abe565b92915050565b60008135905061105681611ad5565b92915050565b600082601f83011261106d57600080fd5b813561107d848260208601610ff4565b91505092915050565b60008135905061109581611aec565b92915050565b6000602082840312156110ad57600080fd5b60006110bb84828501611032565b91505092915050565b6000602082840312156110d657600080fd5b60006110e484828501611047565b91505092915050565b6000602082840312156110ff57600080fd5b600082013567ffffffffffffffff81111561111957600080fd5b6111258482850161105c565b91505092915050565b6000806040838503121561114157600080fd5b600083013567ffffffffffffffff81111561115b57600080fd5b6111678582860161105c565b925050602061117885828601611086565b9150509250929050565b60006020828403121561119457600080fd5b60006111a284828501611086565b91505092915050565b60006111b7838361129e565b905092915050565b6111c88161176c565b82525050565b6111df6111da8261176c565b6118d1565b82525050565b60006111f0826116d7565b6111fa81856116fa565b93508360208202850161120c856116b2565b8060005b85811015611248578484038952815161122985826111ab565b9450611234836116ed565b925060208a01995050600181019050611210565b50829750879550505050505092915050565b6112638161177e565b82525050565b6112728161178a565b82525050565b6112896112848261178a565b6118e3565b82525050565b611298816117d1565b82525050565b60006112a9826116e2565b6112b3818561170b565b93506112c38185602086016117f2565b6112cc816119c5565b840191505092915050565b60006112e2826116e2565b6112ec818561171c565b93506112fc8185602086016117f2565b611305816119c5565b840191505092915050565b600061131b826116e2565b611325818561172d565b93506113358185602086016117f2565b80840191505092915050565b6000815461134e81611825565b611358818661172d565b945060018216600081146113735760018114611384576113b7565b60ff198316865281860193506113b7565b61138d856116c2565b60005b838110156113af57815481890152600182019150602081019050611390565b838801955050505b50505092915050565b60006113cd60258361171c565b91506113d8826119e3565b604082019050919050565b60006113f060268361171c565b91506113fb82611a32565b604082019050919050565b600061141360208361171c565b915061141e82611a81565b602082019050919050565b611432816117c7565b82525050565b611449611444826117c7565b6118ff565b82525050565b600061145b82876111ce565b60148201915061146b8286611310565b91506114778285611438565b6020820191506114878284611278565b60208201915081905095945050505050565b60006114a58284611310565b915081905092915050565b60006114bc8284611341565b915081905092915050565b60006020820190506114dc60008301846111bf565b92915050565b600060208201905081810360008301526114fc81846111e5565b905092915050565b6000602082019050611519600083018461125a565b92915050565b600061010082019050611535600083018b611269565b8181036020830152611547818a6112d7565b905061155660408301896111bf565b6115636060830188611429565b6115706080830187611429565b61157d60a0830186611429565b61158a60c0830185611429565b61159760e083018461128f565b9998505050505050505050565b60006020820190506115b9600083018461128f565b92915050565b600060208201905081810360008301526115d981846112d7565b905092915050565b600060208201905081810360008301526115fa816113c0565b9050919050565b6000602082019050818103600083015261161a816113e3565b9050919050565b6000602082019050818103600083015261163a81611406565b9050919050565b60006020820190506116566000830184611429565b92915050565b6000611666611677565b90506116728282611857565b919050565b6000604051905090565b600067ffffffffffffffff82111561169c5761169b611996565b5b6116a5826119c5565b9050602081019050919050565b6000819050602082019050919050565b60008190508160005260206000209050919050565b600081519050919050565b600081519050919050565b6000602082019050919050565b600082825260208201905092915050565b600082825260208201905092915050565b600082825260208201905092915050565b600081905092915050565b6000611743826117c7565b915061174e836117c7565b92508282101561176157611760611909565b5b828203905092915050565b6000611777826117a7565b9050919050565b60008115159050919050565b6000819050919050565b60008190506117a282611aaa565b919050565b600073ffffffffffffffffffffffffffffffffffffffff82169050919050565b6000819050919050565b60006117dc82611794565b9050919050565b82818337600083830152505050565b60005b838110156118105780820151818401526020810190506117f5565b8381111561181f576000848401525b50505050565b6000600282049050600182168061183d57607f821691505b6020821081141561185157611850611967565b5b50919050565b611860826119c5565b810181811067ffffffffffffffff8211171561187f5761187e611996565b5b80604052505050565b6000611893826117c7565b91507fffffffffffffffffffffffffffffffffffffffffffffffffffffffffffffffff8214156118c6576118c5611909565b5b600182019050919050565b60006118dc826118ed565b9050919050565b6000819050919050565b60006118f8826119d6565b9050919050565b6000819050919050565b7f4e487b7100000000000000000000000000000000000000000000000000000000600052601160045260246000fd5b7f4e487b7100000000000000000000000000000000000000000000000000000000600052602160045260246000fd5b7f4e487b7100000000000000000000000000000000000000000000000000000000600052602260045260246000fd5b7f4e487b7100000000000000000000000000000000000000000000000000000000600052604160045260246000fd5b6000601f19601f8301169050919050565b60008160601b9050919050565b7f5468652067726f75706e616d652773206e616d652063616e6e6f74206265206560008201527f6d70747921000000000000000000000000000000000000000000000000000000602082015250565b7f4f776e61626c653a206e6577206f776e657220697320746865207a65726f206160008201527f6464726573730000000000000000000000000000000000000000000000000000602082015250565b7f4f776e61626c653a2063616c6c6572206973206e6f7420746865206f776e6572600082015250565b60038110611abb57611aba611938565b5b50565b611ac78161176c565b8114611ad257600080fd5b50565b611ade8161178a565b8114611ae957600080fd5b50565b611af5816117c7565b8114611b0057600080fd5b5056fea2646970667358221220833fabfcb28159014880b5e586df3b2d8e142ab68c1922921803de66d11c6a6364736f6c63430008030033",
  "immutableReferences": {},
  "source": "// SPDX-License-Identifier: MIT\npragma solidity ^0.8.0;\npragma experimental ABIEncoderV2;\n\n\nimport \"@openzeppelin/contracts/access/Ownable.sol\";\nimport \"@openzeppelin/contracts/utils/math/SafeMath.sol\";\n\ncontract LiteSwapDAO1 is Ownable {\n\n\n  using SafeMath for uint;\n\n    //Group Basic info\n\n    address _owner = owner();\n\n    struct GroupDetails {\n     bytes32 id;\n     string  groupName;\n     address groupCreator;\n     address[] groupMemberAddressList;\n     uint  groupBalance;\n     uint groupCreationAmount;  \n     uint groupIndex;\n     uint createdTime;\n     GroupState groupState;\n    }\n  \n\n     enum GroupState {Created, Updated, Deleted}\n\n     GroupState public groupState;\n\n     mapping(address => uint) public membersContributions;\n\n     mapping(bytes32 => GroupDetails) public groupMembers;\n\n     bytes32[] private groupIds;\n     string[] public groupNames;\n     address[] public groupMemberList;\n\n     event GroupCreated(address indexed addr, string groupName);\n\n     event MemberJoined(address indexed member, bool joined);\n\n     event MemberAddedFund(address indexed member);\n\n  //     modifier memberHasContributed(address sender) {\n  //   require(membersContributions[sender] > 0);\n  //   _;\n  // }\n\n  constructor() public {\n    _owner = msg.sender;\n  }\n\n      /// Create a new Cooperative Group contract\n  /// @param _groupName - Name of the Cooperative\n  /// @param amount - The minimum stake required to create a group\n\n      function createCooperativeGroup(string memory _groupName, uint amount) public payable returns(bool success) {\n        require(bytes(_groupName).length > 0, \"The groupname's name cannot be empty!\");\n        \n        bytes32 blockHash = blockhash(block.number - 1);\n        bytes32 id = keccak256(abi.encodePacked(msg.sender, _groupName, block.timestamp, blockHash));\n\n\n        groupIds.push(id);\n        groupNames.push(_groupName);\n    \n  \n        groupMembers[id].id = id;\n        groupMembers[id].groupName = _groupName;\n        groupMembers[id].groupCreator = _owner;\n        groupMembers[id].groupMemberAddressList.push(msg.sender);\n        groupMembers[id].groupCreationAmount = amount;\n        groupMembers[id].groupIndex = groupIds.length - 1;\n        groupMembers[id].createdTime = block.timestamp;\n        groupMembers[id].groupState = GroupState.Created;\n\n        emit GroupCreated(address(this), _groupName);\n        \n        return true;\n    }\n\n    //add a member to the group\n\n    function addMember(string memory groupName) public payable returns(bool) {      \n       bytes32 _addr = 0x00;\n      for(uint i = 0; i < groupNames.length; i++ ){\n        if(keccak256(abi.encodePacked(groupNames[i])) == keccak256(abi.encodePacked(groupName))){\n           _addr =  groupIds[i];\n        }\n      }\n       groupMembers[_addr].groupMemberAddressList.push(msg.sender);\n\n       emit MemberJoined(msg.sender, true);\n\n       return true;\n      \n    }\n\n  //get all members count belonging to a group\n\n  function getAllGroupMembersCount(string memory groupName) public view returns (uint256) {\n        bytes32 _addr = 0x00;\n      for(uint i = 0; i < groupNames.length; i++ ){\n        if(keccak256(abi.encodePacked(groupNames[i])) == keccak256(abi.encodePacked(groupName))){\n           _addr =  groupIds[i];\n        }\n      }\n       return groupMembers[_addr].groupMemberAddressList.length;\n\n  }\n\n  //get all cooperative names\n  function getCooperativeNames() public view returns (string[] memory){\n    return groupNames;\n  }\n \n}",
  "sourcePath": "/home/emplug7/applications/liteswapv1/contracts/LiteSwapDAO1.sol",
  "compiler": {
    "name": "solc",
    "version": "0.8.3+commit.8d00100c.Emscripten.clang"
  },
  "schemaVersion": "3.3.4",
  "updatedAt": "2021-04-20T13:40:51.921Z",
  "devdoc": {
    "kind": "dev",
    "methods": {
      "createCooperativeGroup(string,uint256)": {
        "params": {
          "_groupName": "- Name of the Cooperative",
          "amount": "- The minimum stake required to create a group"
        }
      },
      "owner()": {
        "details": "Returns the address of the current owner."
      },
      "renounceOwnership()": {
        "details": "Leaves the contract without owner. It will not be possible to call `onlyOwner` functions anymore. Can only be called by the current owner. NOTE: Renouncing ownership will leave the contract without an owner, thereby removing any functionality that is only available to the owner."
      },
      "transferOwnership(address)": {
        "details": "Transfers ownership of the contract to a new account (`newOwner`). Can only be called by the current owner."
      }
    },
    "version": 1
  },
  "userdoc": {
    "kind": "user",
    "methods": {
      "createCooperativeGroup(string,uint256)": {
        "notice": "Create a new Cooperative Group contract"
      }
    },
    "version": 1
  }
}