{
  "contractName": "LiteSwapDAOFactory",
  "abi": [
    {
      "inputs": [],
      "stateMutability": "nonpayable",
      "type": "constructor"
    },
    {
      "anonymous": false,
      "inputs": [
        {
          "indexed": true,
          "internalType": "address",
          "name": "previousOwner",
          "type": "address"
        },
        {
          "indexed": true,
          "internalType": "address",
          "name": "newOwner",
          "type": "address"
        }
      ],
      "name": "OwnershipTransferred",
      "type": "event"
    },
    {
      "inputs": [
        {
          "internalType": "uint256",
          "name": "",
          "type": "uint256"
        }
      ],
      "name": "cooperativeGroups",
      "outputs": [
        {
          "internalType": "address",
          "name": "",
          "type": "address"
        }
      ],
      "stateMutability": "view",
      "type": "function",
      "constant": true
    },
    {
      "inputs": [
        {
          "internalType": "uint256",
          "name": "",
          "type": "uint256"
        }
      ],
      "name": "createdGroupName",
      "outputs": [
        {
          "internalType": "string",
          "name": "",
          "type": "string"
        }
      ],
      "stateMutability": "view",
      "type": "function",
      "constant": true
    },
    {
      "inputs": [],
      "name": "owner",
      "outputs": [
        {
          "internalType": "address",
          "name": "",
          "type": "address"
        }
      ],
      "stateMutability": "view",
      "type": "function",
      "constant": true
    },
    {
      "inputs": [],
      "name": "renounceOwnership",
      "outputs": [],
      "stateMutability": "nonpayable",
      "type": "function"
    },
    {
      "inputs": [
        {
          "internalType": "address",
          "name": "newOwner",
          "type": "address"
        }
      ],
      "name": "transferOwnership",
      "outputs": [],
      "stateMutability": "nonpayable",
      "type": "function"
    },
    {
      "inputs": [
        {
          "internalType": "string",
          "name": "groupName",
          "type": "string"
        },
        {
          "internalType": "uint256",
          "name": "amount",
          "type": "uint256"
        }
      ],
      "name": "createCooperativeGroup",
      "outputs": [
        {
          "internalType": "contract LiteSwapDAO1",
          "name": "",
          "type": "address"
        }
      ],
      "stateMutability": "payable",
      "type": "function",
      "payable": true
    },
    {
      "inputs": [
        {
          "internalType": "address",
          "name": "_groupAddr",
          "type": "address"
        }
      ],
      "name": "joinCooperativeGroup",
      "outputs": [],
      "stateMutability": "payable",
      "type": "function",
      "payable": true
    },
    {
      "inputs": [
        {
          "internalType": "uint256",
          "name": "dues",
          "type": "uint256"
        },
        {
          "internalType": "string",
          "name": "groupName",
          "type": "string"
        }
      ],
      "name": "payYourGroupDues",
      "outputs": [],
      "stateMutability": "nonpayable",
      "type": "function"
    },
    {
      "inputs": [],
      "name": "getcooperativeGroups",
      "outputs": [
        {
          "internalType": "address[]",
          "name": "",
          "type": "address[]"
        }
      ],
      "stateMutability": "view",
      "type": "function",
      "constant": true
    },
    {
      "inputs": [],
      "name": "getcooperativeGroupNames",
      "outputs": [
        {
          "internalType": "string[]",
          "name": "",
          "type": "string[]"
        }
      ],
      "stateMutability": "view",
      "type": "function",
      "constant": true
    }
  ],
  "bytecode": "0x608060405234801561001057600080fd5b5060006100216100c460201b60201c565b9050806000806101000a81548173ffffffffffffffffffffffffffffffffffffffff021916908373ffffffffffffffffffffffffffffffffffffffff1602179055508073ffffffffffffffffffffffffffffffffffffffff16600073ffffffffffffffffffffffffffffffffffffffff167f8be0079c531659141344cd1fd0a4f28419497f9722a3daafe3b4186f6b6457e060405160405180910390a3506100cc565b600033905090565b6126c0806100db6000396000f3fe6080604052600436106200009e5760003560e01c80638da5cb5b11620000615780638da5cb5b146200018f578063cb93531a14620001bf578063cfe86b981462000203578063d8c6b4141462000239578063f2fde38b1462000259576200009e565b8063715018a614620000a357806375985dd114620000bd5780638170905814620001015780638b1ab72c146200012f5780638cf40112146200015f575b600080fd5b348015620000b057600080fd5b50620000bb62000287565b005b348015620000ca57600080fd5b50620000e96004803603810190620000e3919062000d3f565b620003c8565b604051620000f8919062000ff4565b60405180910390f35b3480156200010e57600080fd5b506200012d600480360381019062000127919062000d6b565b62000408565b005b3480156200013c57600080fd5b5062000147620004bb565b60405162000156919062001035565b60405180910390f35b3480156200016c57600080fd5b50620001776200059e565b60405162000186919062001011565b60405180910390f35b3480156200019c57600080fd5b50620001a76200062e565b604051620001b6919062000ff4565b60405180910390f35b348015620001cc57600080fd5b50620001eb6004803603810190620001e5919062000d3f565b62000657565b604051620001fa919062001076565b60405180910390f35b6200022160048036038101906200021b919062000ce5565b6200070c565b60405162000230919062001059565b60405180910390f35b62000257600480360381019062000251919062000cb9565b620008fa565b005b3480156200026657600080fd5b506200028560048036038101906200027f919062000cb9565b620009a0565b005b6200029162000b53565b73ffffffffffffffffffffffffffffffffffffffff16620002b16200062e565b73ffffffffffffffffffffffffffffffffffffffff16146200030a576040517f08c379a00000000000000000000000000000000000000000000000000000000081526004016200030190620010f0565b60405180910390fd5b600073ffffffffffffffffffffffffffffffffffffffff1660008054906101000a900473ffffffffffffffffffffffffffffffffffffffff1673ffffffffffffffffffffffffffffffffffffffff167f8be0079c531659141344cd1fd0a4f28419497f9722a3daafe3b4186f6b6457e060405160405180910390a360008060006101000a81548173ffffffffffffffffffffffffffffffffffffffff021916908373ffffffffffffffffffffffffffffffffffffffff160217905550565b60028181548110620003d957600080fd5b906000526020600020016000915054906101000a900473ffffffffffffffffffffffffffffffffffffffff1681565b600081836040516200041a9062000b5b565b620004279291906200109a565b604051809103906000f08015801562000444573d6000803e3d6000fd5b5090508073ffffffffffffffffffffffffffffffffffffffff1663c1cbbca7846040518263ffffffff1660e01b815260040162000482919062001112565b600060405180830381600087803b1580156200049d57600080fd5b505af1158015620004b2573d6000803e3d6000fd5b50505050505050565b60606003805480602002602001604051908101604052809291908181526020016000905b8282101562000595578382906000526020600020018054620005019062001313565b80601f01602080910402602001604051908101604052809291908181526020018280546200052f9062001313565b8015620005805780601f10620005545761010080835404028352916020019162000580565b820191906000526020600020905b8154815290600101906020018083116200056257829003601f168201915b505050505081526020019060010190620004df565b50505050905090565b606060028054806020026020016040519081016040528092919081815260200182805480156200062457602002820191906000526020600020905b8160009054906101000a900473ffffffffffffffffffffffffffffffffffffffff1673ffffffffffffffffffffffffffffffffffffffff1681526020019060010190808311620005d9575b5050505050905090565b60008060009054906101000a900473ffffffffffffffffffffffffffffffffffffffff16905090565b600381815481106200066857600080fd5b906000526020600020016000915090508054620006859062001313565b80601f0160208091040260200160405190810160405280929190818152602001828054620006b39062001313565b8015620007045780601f10620006d85761010080835404028352916020019162000704565b820191906000526020600020905b815481529060010190602001808311620006e657829003601f168201915b505050505081565b60008083836040516200071f9062000b5b565b6200072c9291906200109a565b604051809103906000f08015801562000749573d6000803e3d6000fd5b50905060008190506002819080600181540180825580915050600190039060005260206000200160009091909190916101000a81548173ffffffffffffffffffffffffffffffffffffffff021916908373ffffffffffffffffffffffffffffffffffffffff160217905550600385908060018154018082558091505060019003906000526020600020016000909190919091509080519060200190620007f192919062000b69565b50600160008273ffffffffffffffffffffffffffffffffffffffff1673ffffffffffffffffffffffffffffffffffffffff168152602001908152602001600020600001339080600181540180825580915050600190039060005260206000200160009091909190916101000a81548173ffffffffffffffffffffffffffffffffffffffff021916908373ffffffffffffffffffffffffffffffffffffffff1602179055506001600280549050620008a991906200122d565b600160008373ffffffffffffffffffffffffffffffffffffffff1673ffffffffffffffffffffffffffffffffffffffff16815260200190815260200160002060010181905550819250505092915050565b600160008273ffffffffffffffffffffffffffffffffffffffff1673ffffffffffffffffffffffffffffffffffffffff168152602001908152602001600020600001339080600181540180825580915050600190039060005260206000200160009091909190916101000a81548173ffffffffffffffffffffffffffffffffffffffff021916908373ffffffffffffffffffffffffffffffffffffffff16021790555050565b620009aa62000b53565b73ffffffffffffffffffffffffffffffffffffffff16620009ca6200062e565b73ffffffffffffffffffffffffffffffffffffffff161462000a23576040517f08c379a000000000000000000000000000000000000000000000000000000000815260040162000a1a90620010f0565b60405180910390fd5b600073ffffffffffffffffffffffffffffffffffffffff168173ffffffffffffffffffffffffffffffffffffffff16141562000a96576040517f08c379a000000000000000000000000000000000000000000000000000000000815260040162000a8d90620010ce565b60405180910390fd5b8073ffffffffffffffffffffffffffffffffffffffff1660008054906101000a900473ffffffffffffffffffffffffffffffffffffffff1673ffffffffffffffffffffffffffffffffffffffff167f8be0079c531659141344cd1fd0a4f28419497f9722a3daafe3b4186f6b6457e060405160405180910390a3806000806101000a81548173ffffffffffffffffffffffffffffffffffffffff021916908373ffffffffffffffffffffffffffffffffffffffff16021790555050565b600033905090565b6111c180620014ca83390190565b82805462000b779062001313565b90600052602060002090601f01602090048101928262000b9b576000855562000be7565b82601f1062000bb657805160ff191683800117855562000be7565b8280016001018555821562000be7579182015b8281111562000be657825182559160200191906001019062000bc9565b5b50905062000bf6919062000bfa565b5090565b5b8082111562000c1557600081600090555060010162000bfb565b5090565b600062000c3062000c2a8462001158565b6200112f565b90508281526020810184848401111562000c4957600080fd5b62000c56848285620012ce565b509392505050565b60008135905062000c6f8162001495565b92915050565b600082601f83011262000c8757600080fd5b813562000c9984826020860162000c19565b91505092915050565b60008135905062000cb381620014af565b92915050565b60006020828403121562000ccc57600080fd5b600062000cdc8482850162000c5e565b91505092915050565b6000806040838503121562000cf957600080fd5b600083013567ffffffffffffffff81111562000d1457600080fd5b62000d228582860162000c75565b925050602062000d358582860162000ca2565b9150509250929050565b60006020828403121562000d5257600080fd5b600062000d628482850162000ca2565b91505092915050565b6000806040838503121562000d7f57600080fd5b600062000d8f8582860162000ca2565b925050602083013567ffffffffffffffff81111562000dad57600080fd5b62000dbb8582860162000c75565b9150509250929050565b600062000dd3838362000df5565b60208301905092915050565b600062000ded838362000f13565b905092915050565b62000e008162001268565b82525050565b62000e118162001268565b82525050565b600062000e2482620011ae565b62000e308185620011e9565b935062000e3d836200118e565b8060005b8381101562000e7457815162000e58888262000dc5565b975062000e6583620011cf565b92505060018101905062000e41565b5085935050505092915050565b600062000e8e82620011b9565b62000e9a8185620011fa565b93508360208202850162000eae856200119e565b8060005b8581101562000ef0578484038952815162000ece858262000ddf565b945062000edb83620011dc565b925060208a0199505060018101905062000eb2565b50829750879550505050505092915050565b62000f0d81620012a6565b82525050565b600062000f2082620011c4565b62000f2c81856200120b565b935062000f3e818560208601620012dd565b62000f49816200140c565b840191505092915050565b600062000f6182620011c4565b62000f6d81856200121c565b935062000f7f818560208601620012dd565b62000f8a816200140c565b840191505092915050565b600062000fa46026836200121c565b915062000fb1826200141d565b604082019050919050565b600062000fcb6020836200121c565b915062000fd8826200146c565b602082019050919050565b62000fee816200129c565b82525050565b60006020820190506200100b600083018462000e06565b92915050565b600060208201905081810360008301526200102d818462000e17565b905092915050565b6000602082019050818103600083015262001051818462000e81565b905092915050565b600060208201905062001070600083018462000f02565b92915050565b6000602082019050818103600083015262001092818462000f54565b905092915050565b60006040820190508181036000830152620010b6818562000f54565b9050620010c7602083018462000fe3565b9392505050565b60006020820190508181036000830152620010e98162000f95565b9050919050565b600060208201905081810360008301526200110b8162000fbc565b9050919050565b600060208201905062001129600083018462000fe3565b92915050565b60006200113b6200114e565b905062001149828262001349565b919050565b6000604051905090565b600067ffffffffffffffff821115620011765762001175620013dd565b5b62001181826200140c565b9050602081019050919050565b6000819050602082019050919050565b6000819050602082019050919050565b600081519050919050565b600081519050919050565b600081519050919050565b6000602082019050919050565b6000602082019050919050565b600082825260208201905092915050565b600082825260208201905092915050565b600082825260208201905092915050565b600082825260208201905092915050565b60006200123a826200129c565b915062001247836200129c565b9250828210156200125d576200125c6200137f565b5b828203905092915050565b600062001275826200127c565b9050919050565b600073ffffffffffffffffffffffffffffffffffffffff82169050919050565b6000819050919050565b6000620012b382620012ba565b9050919050565b6000620012c7826200127c565b9050919050565b82818337600083830152505050565b60005b83811015620012fd578082015181840152602081019050620012e0565b838111156200130d576000848401525b50505050565b600060028204905060018216806200132c57607f821691505b60208210811415620013435762001342620013ae565b5b50919050565b62001354826200140c565b810181811067ffffffffffffffff82111715620013765762001375620013dd565b5b80604052505050565b7f4e487b7100000000000000000000000000000000000000000000000000000000600052601160045260246000fd5b7f4e487b7100000000000000000000000000000000000000000000000000000000600052602260045260246000fd5b7f4e487b7100000000000000000000000000000000000000000000000000000000600052604160045260246000fd5b6000601f19601f8301169050919050565b7f4f776e61626c653a206e6577206f776e657220697320746865207a65726f206160008201527f6464726573730000000000000000000000000000000000000000000000000000602082015250565b7f4f776e61626c653a2063616c6c6572206973206e6f7420746865206f776e6572600082015250565b620014a08162001268565b8114620014ac57600080fd5b50565b620014ba816200129c565b8114620014c657600080fd5b5056fe6080604052604051620011c1380380620011c183398181016040528101906200002991906200032f565b60006200003b620001ee60201b60201c565b9050806000806101000a81548173ffffffffffffffffffffffffffffffffffffffff021916908373ffffffffffffffffffffffffffffffffffffffff1602179055508073ffffffffffffffffffffffffffffffffffffffff16600073ffffffffffffffffffffffffffffffffffffffff167f8be0079c531659141344cd1fd0a4f28419497f9722a3daafe3b4186f6b6457e060405160405180910390a350600081116200011f576040517f08c379a00000000000000000000000000000000000000000000000000000000081526004016200011690620003b0565b60405180910390fd5b803410156200012d57600080fd5b816001908051906020019062000145929190620001f6565b5042600781905550600060038190555033600260006101000a81548173ffffffffffffffffffffffffffffffffffffffff021916908373ffffffffffffffffffffffffffffffffffffffff1602179055508060068190555033600560006101000a81548173ffffffffffffffffffffffffffffffffffffffff021916908373ffffffffffffffffffffffffffffffffffffffff16021790555060006003819055505050620005c6565b600033905090565b828054620002049062000482565b90600052602060002090601f01602090048101928262000228576000855562000274565b82601f106200024357805160ff191683800117855562000274565b8280016001018555821562000274579182015b828111156200027357825182559160200191906001019062000256565b5b50905062000283919062000287565b5090565b5b80821115620002a257600081600090555060010162000288565b5090565b6000620002bd620002b784620003fb565b620003d2565b905082815260208101848484011115620002d657600080fd5b620002e38482856200044c565b509392505050565b600082601f830112620002fd57600080fd5b81516200030f848260208601620002a6565b91505092915050565b6000815190506200032981620005ac565b92915050565b600080604083850312156200034357600080fd5b600083015167ffffffffffffffff8111156200035e57600080fd5b6200036c85828601620002eb565b92505060206200037f8582860162000318565b9150509250929050565b600062000398602a8362000431565b9150620003a5826200055d565b604082019050919050565b60006020820190508181036000830152620003cb8162000389565b9050919050565b6000620003de620003f1565b9050620003ec8282620004b8565b919050565b6000604051905090565b600067ffffffffffffffff8211156200041957620004186200051d565b5b62000424826200054c565b9050602081019050919050565b600082825260208201905092915050565b6000819050919050565b60005b838110156200046c5780820151818401526020810190506200044f565b838111156200047c576000848401525b50505050565b600060028204905060018216806200049b57607f821691505b60208210811415620004b257620004b1620004ee565b5b50919050565b620004c3826200054c565b810181811067ffffffffffffffff82111715620004e557620004e46200051d565b5b80604052505050565b7f4e487b7100000000000000000000000000000000000000000000000000000000600052602260045260246000fd5b7f4e487b7100000000000000000000000000000000000000000000000000000000600052604160045260246000fd5b6000601f19601f8301169050919050565b7f546865206d696e696d756d2066756e642068617320746f20626520677265617460008201527f6572207468616e20302e00000000000000000000000000000000000000000000602082015250565b620005b78162000442565b8114620005c357600080fd5b50565b610beb80620005d66000396000f3fe608060405234801561001057600080fd5b50600436106100cf5760003560e01c80639b8193e61161008c578063b2f4bdb011610066578063b2f4bdb014610204578063c1cbbca714610222578063c9e87b021461023e578063f2fde38b1461025c576100cf565b80639b8193e6146101985780639e4d3099146101b65780639f12ba44146101e6576100cf565b80635373fa99146100d45780635daf08ca146100f2578063715018a61461012257806371fb29021461012c578063783cec801461015c5780638da5cb5b1461017a575b600080fd5b6100dc610278565b6040516100e99190610872565b60405180910390f35b61010c6004803603810190610107919061079d565b61029e565b6040516101199190610872565b60405180910390f35b61012a6102dd565b005b6101466004803603810190610141919061079d565b610417565b6040516101539190610872565b60405180910390f35b610164610456565b60405161017191906108a8565b60405180910390f35b6101826104e4565b60405161018f9190610872565b60405180910390f35b6101a061050d565b6040516101ad919061088d565b60405180910390f35b6101d060048036038101906101cb9190610774565b610520565b6040516101dd919061090a565b60405180910390f35b6101ee610538565b6040516101fb9190610872565b60405180910390f35b61020c61055e565b604051610219919061090a565b60405180910390f35b61023c6004803603810190610237919061079d565b610564565b005b61024661057d565b604051610253919061090a565b60405180910390f35b61027660048036038101906102719190610774565b610583565b005b600260009054906101000a900473ffffffffffffffffffffffffffffffffffffffff1681565b600a81815481106102ae57600080fd5b906000526020600020016000915054906101000a900473ffffffffffffffffffffffffffffffffffffffff1681565b6102e561072c565b73ffffffffffffffffffffffffffffffffffffffff166103036104e4565b73ffffffffffffffffffffffffffffffffffffffff1614610359576040517f08c379a0000000000000000000000000000000000000000000000000000000008152600401610350906108ea565b60405180910390fd5b600073ffffffffffffffffffffffffffffffffffffffff1660008054906101000a900473ffffffffffffffffffffffffffffffffffffffff1673ffffffffffffffffffffffffffffffffffffffff167f8be0079c531659141344cd1fd0a4f28419497f9722a3daafe3b4186f6b6457e060405160405180910390a360008060006101000a81548173ffffffffffffffffffffffffffffffffffffffff021916908373ffffffffffffffffffffffffffffffffffffffff160217905550565b6004818154811061042757600080fd5b906000526020600020016000915054906101000a900473ffffffffffffffffffffffffffffffffffffffff1681565b6001805461046390610a2b565b80601f016020809104026020016040519081016040528092919081815260200182805461048f90610a2b565b80156104dc5780601f106104b1576101008083540402835291602001916104dc565b820191906000526020600020905b8154815290600101906020018083116104bf57829003601f168201915b505050505081565b60008060009054906101000a900473ffffffffffffffffffffffffffffffffffffffff16905090565b600860009054906101000a900460ff1681565b60096020528060005260406000206000915090505481565b600560009054906101000a900473ffffffffffffffffffffffffffffffffffffffff1681565b60075481565b6105798160035461073490919063ffffffff16565b5050565b60035481565b61058b61072c565b73ffffffffffffffffffffffffffffffffffffffff166105a96104e4565b73ffffffffffffffffffffffffffffffffffffffff16146105ff576040517f08c379a00000000000000000000000000000000000000000000000000000000081526004016105f6906108ea565b60405180910390fd5b600073ffffffffffffffffffffffffffffffffffffffff168173ffffffffffffffffffffffffffffffffffffffff16141561066f576040517f08c379a0000000000000000000000000000000000000000000000000000000008152600401610666906108ca565b60405180910390fd5b8073ffffffffffffffffffffffffffffffffffffffff1660008054906101000a900473ffffffffffffffffffffffffffffffffffffffff1673ffffffffffffffffffffffffffffffffffffffff167f8be0079c531659141344cd1fd0a4f28419497f9722a3daafe3b4186f6b6457e060405160405180910390a3806000806101000a81548173ffffffffffffffffffffffffffffffffffffffff021916908373ffffffffffffffffffffffffffffffffffffffff16021790555050565b600033905090565b600081836107429190610941565b905092915050565b60008135905061075981610b87565b92915050565b60008135905061076e81610b9e565b92915050565b60006020828403121561078657600080fd5b60006107948482850161074a565b91505092915050565b6000602082840312156107af57600080fd5b60006107bd8482850161075f565b91505092915050565b6107cf81610997565b82525050565b6107de816109e6565b82525050565b60006107ef82610925565b6107f98185610930565b93506108098185602086016109f8565b61081281610aea565b840191505092915050565b600061082a602683610930565b915061083582610afb565b604082019050919050565b600061084d602083610930565b915061085882610b4a565b602082019050919050565b61086c816109dc565b82525050565b600060208201905061088760008301846107c6565b92915050565b60006020820190506108a260008301846107d5565b92915050565b600060208201905081810360008301526108c281846107e4565b905092915050565b600060208201905081810360008301526108e38161081d565b9050919050565b6000602082019050818103600083015261090381610840565b9050919050565b600060208201905061091f6000830184610863565b92915050565b600081519050919050565b600082825260208201905092915050565b600061094c826109dc565b9150610957836109dc565b9250827fffffffffffffffffffffffffffffffffffffffffffffffffffffffffffffffff0382111561098c5761098b610a5d565b5b828201905092915050565b60006109a2826109bc565b9050919050565b60008190506109b782610b73565b919050565b600073ffffffffffffffffffffffffffffffffffffffff82169050919050565b6000819050919050565b60006109f1826109a9565b9050919050565b60005b83811015610a165780820151818401526020810190506109fb565b83811115610a25576000848401525b50505050565b60006002820490506001821680610a4357607f821691505b60208210811415610a5757610a56610abb565b5b50919050565b7f4e487b7100000000000000000000000000000000000000000000000000000000600052601160045260246000fd5b7f4e487b7100000000000000000000000000000000000000000000000000000000600052602160045260246000fd5b7f4e487b7100000000000000000000000000000000000000000000000000000000600052602260045260246000fd5b6000601f19601f8301169050919050565b7f4f776e61626c653a206e6577206f776e657220697320746865207a65726f206160008201527f6464726573730000000000000000000000000000000000000000000000000000602082015250565b7f4f776e61626c653a2063616c6c6572206973206e6f7420746865206f776e6572600082015250565b60038110610b8457610b83610a8c565b5b50565b610b9081610997565b8114610b9b57600080fd5b50565b610ba7816109dc565b8114610bb257600080fd5b5056fea264697066735822122061c7d9ff302a4b11bb3ecac80261bd4216845f9c3965bfeb0716aa98be76ae5464736f6c63430008030033a26469706673582212203167a75c31f3f75a5db5b3a9f5b6fdc79b36280619e4d7acc308585e2f69192464736f6c63430008030033",
  "immutableReferences": {},
  "source": "// SPDX-License-Identifier: MIT\n\npragma solidity ^0.8.0;\n\nimport \"@openzeppelin/contracts/access/Ownable.sol\";\nimport \"./LiteSwapDAO1.sol\";\n\ncontract LiteSwapDAOFactory is Ownable {\n\n\n    struct CooperativeGroup{\n        address[] memberList;\n        uint groupIndex;\n    }\n\n    mapping(address => CooperativeGroup) groupMapping;\n    address[] public cooperativeGroups;\n\n    string[] public createdGroupName;\n\n  /// Empty constructor\n  constructor() public {\n\n  }\n\n  //create Cooperative Group\n  function createCooperativeGroup(string memory groupName, uint amount) public payable returns (LiteSwapDAO1) {\n\n    LiteSwapDAO1 new_cooperative = new LiteSwapDAO1(groupName,  amount );\n\n    address newAddr = address(new_cooperative);\n\n    cooperativeGroups.push(newAddr);\n    createdGroupName.push(groupName);\n\n    groupMapping[newAddr].memberList.push(msg.sender);\n    groupMapping[newAddr].groupIndex = cooperativeGroups.length - 1;\n\n    return new_cooperative;\n\n\n  }\n\n//All users to join a cooperative group\n  function joinCooperativeGroup(address _groupAddr) public payable {\n          groupMapping[_groupAddr].memberList.push(msg.sender);\n  }\n\n  //allow user to payu their due to their cooperative groups\n  function payYourGroupDues(uint dues, string memory groupName) public {\n    LiteSwapDAO1 groupInstance = new LiteSwapDAO1(groupName, dues);\n    groupInstance.contribute(dues);\n  }\n\n    /// Allow retrieving the the array of created contracts\n  /// @return An array of all created Cooperative Group contracts\n  function getcooperativeGroups() public view returns(address[] memory) {\n    return cooperativeGroups;\n  }\n\n      /// Allow retrieving the the array of created group names\n  /// @return An array of all created Cooperative Group names contracts\n  function getcooperativeGroupNames() public view returns(string[] memory) {\n    return createdGroupName;\n  }\n\n}",
  "sourcePath": "/home/emplug7/applications/liteswapv1/contracts/LiteSwapDAOFactory.sol",
  "compiler": {
    "name": "solc",
    "version": "0.8.3+commit.8d00100c.Emscripten.clang"
  },
  "schemaVersion": "3.3.4",
  "updatedAt": "2021-04-17T16:01:44.557Z",
  "networkType": "ethereum",
  "devdoc": {
    "kind": "dev",
    "methods": {
      "getcooperativeGroupNames()": {
        "returns": {
          "_0": "An array of all created Cooperative Group names contracts"
        }
      },
      "getcooperativeGroups()": {
        "returns": {
          "_0": "An array of all created Cooperative Group contracts"
        }
      },
      "owner()": {
        "details": "Returns the address of the current owner."
      },
      "renounceOwnership()": {
        "details": "Leaves the contract without owner. It will not be possible to call `onlyOwner` functions anymore. Can only be called by the current owner. NOTE: Renouncing ownership will leave the contract without an owner, thereby removing any functionality that is only available to the owner."
      },
      "transferOwnership(address)": {
        "details": "Transfers ownership of the contract to a new account (`newOwner`). Can only be called by the current owner."
      }
    },
    "version": 1
  },
  "userdoc": {
    "kind": "user",
    "methods": {
      "constructor": {
        "notice": "Empty constructor"
      },
      "getcooperativeGroupNames()": {
        "notice": "Allow retrieving the the array of created group names"
      },
      "getcooperativeGroups()": {
        "notice": "Allow retrieving the the array of created contracts"
      }
    },
    "version": 1
  }
}