{
  "contractName": "LiteSwapDAO",
  "abi": [
    {
      "inputs": [],
      "payable": false,
      "stateMutability": "nonpayable",
      "type": "constructor"
    },
    {
      "anonymous": false,
      "inputs": [
        {
          "indexed": false,
          "internalType": "address",
          "name": "groupAddress",
          "type": "address"
        }
      ],
      "name": "LTSGroupCreated",
      "type": "event"
    },
    {
      "constant": true,
      "inputs": [],
      "name": "groupCount",
      "outputs": [
        {
          "internalType": "uint256",
          "name": "",
          "type": "uint256"
        }
      ],
      "payable": false,
      "stateMutability": "view",
      "type": "function"
    },
    {
      "constant": true,
      "inputs": [
        {
          "internalType": "address",
          "name": "",
          "type": "address"
        }
      ],
      "name": "liteSwapGroupMap",
      "outputs": [
        {
          "internalType": "string",
          "name": "groupName",
          "type": "string"
        },
        {
          "internalType": "address",
          "name": "groupCreator",
          "type": "address"
        },
        {
          "internalType": "uint256",
          "name": "groupBalance",
          "type": "uint256"
        },
        {
          "internalType": "uint256",
          "name": "_groupIndex",
          "type": "uint256"
        }
      ],
      "payable": false,
      "stateMutability": "view",
      "type": "function"
    },
    {
      "constant": true,
      "inputs": [],
      "name": "owner",
      "outputs": [
        {
          "internalType": "address",
          "name": "",
          "type": "address"
        }
      ],
      "payable": false,
      "stateMutability": "view",
      "type": "function"
    },
    {
      "constant": false,
      "inputs": [
        {
          "internalType": "string",
          "name": "gName",
          "type": "string"
        }
      ],
      "name": "createLTSGroup",
      "outputs": [],
      "payable": false,
      "stateMutability": "nonpayable",
      "type": "function"
    },
    {
      "constant": false,
      "inputs": [
        {
          "internalType": "address",
          "name": "groupAddress",
          "type": "address"
        },
        {
          "internalType": "uint256",
          "name": "groupInitialDues",
          "type": "uint256"
        }
      ],
      "name": "addMembersToLTSGroup",
      "outputs": [
        {
          "internalType": "bool",
          "name": "",
          "type": "bool"
        }
      ],
      "payable": false,
      "stateMutability": "nonpayable",
      "type": "function"
    },
    {
      "constant": true,
      "inputs": [
        {
          "internalType": "address",
          "name": "group_addr",
          "type": "address"
        }
      ],
      "name": "checkIfMemberAlreadyExist",
      "outputs": [
        {
          "internalType": "bool",
          "name": "",
          "type": "bool"
        }
      ],
      "payable": false,
      "stateMutability": "view",
      "type": "function"
    },
    {
      "constant": true,
      "inputs": [],
      "name": "getGroupCount",
      "outputs": [
        {
          "internalType": "uint256",
          "name": "",
          "type": "uint256"
        }
      ],
      "payable": false,
      "stateMutability": "view",
      "type": "function"
    }
  ],
  "bytecode": "0x60806040526000805534801561001457600080fd5b5033600160006101000a81548173ffffffffffffffffffffffffffffffffffffffff021916908373ffffffffffffffffffffffffffffffffffffffff160217905550610ad4806100656000396000f3fe608060405234801561001057600080fd5b506004361061007d5760003560e01c806363519a361161005b57806363519a36146102045780638da5cb5b1461027d5780638f23b326146102c7578063a2336188146102e55761007d565b806306545a93146100825780632bb11d84146100a057806341044c5814610106575b600080fd5b61008a610341565b6040518082815260200191505060405180910390f35b6100ec600480360360408110156100b657600080fd5b81019080803573ffffffffffffffffffffffffffffffffffffffff1690602001909291908035906020019092919050505061034e565b604051808215151515815260200191505060405180910390f35b6101486004803603602081101561011c57600080fd5b81019080803573ffffffffffffffffffffffffffffffffffffffff169060200190929190505050610468565b60405180806020018573ffffffffffffffffffffffffffffffffffffffff1673ffffffffffffffffffffffffffffffffffffffff168152602001848152602001838152602001828103825286818151815260200191508051906020019080838360005b838110156101c65780820151818401526020810190506101ab565b50505050905090810190601f1680156101f35780820380516001836020036101000a031916815260200191505b509550505050505060405180910390f35b61027b6004803603602081101561021a57600080fd5b810190808035906020019064010000000081111561023757600080fd5b82018360208201111561024957600080fd5b8035906020019184600183028401116401000000008311171561026b57600080fd5b9091929391929390505050610550565b005b610285610877565b604051808273ffffffffffffffffffffffffffffffffffffffff1673ffffffffffffffffffffffffffffffffffffffff16815260200191505060405180910390f35b6102cf61089d565b6040518082815260200191505060405180910390f35b610327600480360360208110156102fb57600080fd5b81019080803573ffffffffffffffffffffffffffffffffffffffff1690602001909291905050506108a3565b604051808215151515815260200191505060405180910390f35b6000600780549050905090565b6000610359836108a3565b156103675760009050610462565b81600860008573ffffffffffffffffffffffffffffffffffffffff1673ffffffffffffffffffffffffffffffffffffffff16815260200190815260200160002060020160008282540192505081905550600860008473ffffffffffffffffffffffffffffffffffffffff1673ffffffffffffffffffffffffffffffffffffffff1681526020019081526020016000206003013390806001815401808255809150509060018203906000526020600020016000909192909190916101000a81548173ffffffffffffffffffffffffffffffffffffffff021916908373ffffffffffffffffffffffffffffffffffffffff16021790555050600190505b92915050565b6008602052806000526040600020600091509050806000018054600181600116156101000203166002900480601f0160208091040260200160405190810160405280929190818152602001828054600181600116156101000203166002900480156105145780601f106104e957610100808354040283529160200191610514565b820191906000526020600020905b8154815290600101906020018083116104f757829003601f168201915b5050505050908060010160009054906101000a900473ffffffffffffffffffffffffffffffffffffffff16908060020154908060040154905084565b60003090508282600860008473ffffffffffffffffffffffffffffffffffffffff1673ffffffffffffffffffffffffffffffffffffffff16815260200190815260200160002060000191906105a69291906109fa565b50600160009054906101000a900473ffffffffffffffffffffffffffffffffffffffff16600860008373ffffffffffffffffffffffffffffffffffffffff1673ffffffffffffffffffffffffffffffffffffffff16815260200190815260200160002060010160006101000a81548173ffffffffffffffffffffffffffffffffffffffff021916908373ffffffffffffffffffffffffffffffffffffffff1602179055506000600860008373ffffffffffffffffffffffffffffffffffffffff1673ffffffffffffffffffffffffffffffffffffffff16815260200190815260200160002060020181905550600860008273ffffffffffffffffffffffffffffffffffffffff1673ffffffffffffffffffffffffffffffffffffffff168152602001908152602001600020600301600160009054906101000a900473ffffffffffffffffffffffffffffffffffffffff1690806001815401808255809150509060018203906000526020600020016000909192909190916101000a81548173ffffffffffffffffffffffffffffffffffffffff021916908373ffffffffffffffffffffffffffffffffffffffff16021790555050600160078054905003600860008373ffffffffffffffffffffffffffffffffffffffff1673ffffffffffffffffffffffffffffffffffffffff1681526020019081526020016000206004018190555060078190806001815401808255809150509060018203906000526020600020016000909192909190916101000a81548173ffffffffffffffffffffffffffffffffffffffff021916908373ffffffffffffffffffffffffffffffffffffffff160217905550507f6182bb61d166d358fd1359513dfdca6f4fcffe3e0b13405255f14e62f8d17d6e81604051808273ffffffffffffffffffffffffffffffffffffffff1673ffffffffffffffffffffffffffffffffffffffff16815260200191505060405180910390a1505050565b600160009054906101000a900473ffffffffffffffffffffffffffffffffffffffff1681565b60005481565b60006060600860008473ffffffffffffffffffffffffffffffffffffffff1673ffffffffffffffffffffffffffffffffffffffff16815260200190815260200160002060030180548060200260200160405190810160405280929190818152602001828054801561096957602002820191906000526020600020905b8160009054906101000a900473ffffffffffffffffffffffffffffffffffffffff1673ffffffffffffffffffffffffffffffffffffffff168152602001906001019080831161091f575b505050505090506000815114156109845760009150506109f5565b60008090505b81518110156109f2573373ffffffffffffffffffffffffffffffffffffffff168282815181106109b657fe5b602002602001015173ffffffffffffffffffffffffffffffffffffffff1614156109e5576001925050506109f5565b808060010191505061098a565b50505b919050565b828054600181600116156101000203166002900490600052602060002090601f016020900481019282601f10610a3b57803560ff1916838001178555610a69565b82800160010185558215610a69579182015b82811115610a68578235825591602001919060010190610a4d565b5b509050610a769190610a7a565b5090565b610a9c91905b80821115610a98576000816000905550600101610a80565b5090565b9056fea265627a7a72315820b32542a56642a381109573364f8ab411287d65c333f36ec2483897353b8670a764736f6c63430005100032",
  "source": "// SPDX-License-Identifier: MIT\npragma solidity >=0.4.21 <0.8.0;\n\nimport \"./interfaces/ILiteSwapDAO.sol\";\n\ncontract LiteSwapDAO {\n\n    uint public  groupCount = 0;\n\n    address public owner;\n\n //structure to hold the group created\n   \n    struct LiteSwapGroup {\n        string groupName;\n        address groupCreator;\n        uint groupBalance;\n        address[] liteSwapGroupMembers;\n        uint _groupIndex;  \n    }\n\n    LiteSwapGroup ltsTypeOf;\n\n    address[] liteSwapGroupId;\n\n    mapping(address => LiteSwapGroup) public liteSwapGroupMap;\n\n    event LTSGroupCreated(address groupAddress);\n\n    constructor() public {\n        owner = msg.sender;\n    }\n\n    //add members to group\n     function createLTSGroup(string calldata gName) external{\n         address groupAddress = address(this);\n         liteSwapGroupMap[groupAddress].groupName = gName;\n         liteSwapGroupMap[groupAddress].groupCreator = owner;\n         liteSwapGroupMap[groupAddress].groupBalance = 0;\n         liteSwapGroupMap[groupAddress].liteSwapGroupMembers.push(owner);\n         liteSwapGroupMap[groupAddress]._groupIndex = liteSwapGroupId.length - 1;\n\n         liteSwapGroupId.push(groupAddress);\n\n         emit LTSGroupCreated(groupAddress);\n         \n         \n     }\n\n    /**\n     * @dev Add memebers who selected group to group\n     */\n\n    function addMembersToLTSGroup(address groupAddress, uint256 groupInitialDues) external returns(bool){\n   if(checkIfMemberAlreadyExist(groupAddress)) return false;\n        liteSwapGroupMap[groupAddress].groupBalance += groupInitialDues;\n        liteSwapGroupMap[groupAddress].liteSwapGroupMembers.push(msg.sender);\n        return true;\n        \n    }\n\n    /**\n     * @dev get all the groups\n     */\n  \n    function checkIfMemberAlreadyExist(address group_addr) public view returns (bool) {\n        address[] memory groupMembers = liteSwapGroupMap[group_addr].liteSwapGroupMembers;\n        if(groupMembers.length == 0)\n        return false;\n        for(uint i = 0; i < groupMembers.length; i++ ){\n            if(groupMembers[i] == msg.sender) {\n                return true;\n            }\n        }\n    }\n\n    /**\n     * @dev get all the groups\n     */\n\n    function getGroupCount() public view returns (uint256){\n        return liteSwapGroupId.length;\n    }\n\n}",
  "sourcePath": "/home/emplug7/applications/liteswapv1/contracts/LiteSwapDAO.sol",
  "compiler": {
    "name": "solc",
    "version": "0.5.16+commit.9c3226ce.Emscripten.clang"
  },
  "schemaVersion": "3.3.4",
  "updatedAt": "2021-04-14T22:46:37.072Z",
  "networkType": "ethereum",
  "devdoc": {
    "methods": {
      "addMembersToLTSGroup(address,uint256)": {
        "details": "Add memebers who selected group to group"
      },
      "checkIfMemberAlreadyExist(address)": {
        "details": "get all the groups"
      },
      "getGroupCount()": {
        "details": "get all the groups"
      }
    }
  },
  "userdoc": {
    "methods": {}
  }
}