{
  "contractName": "LiteSwapDAO1",
  "abi": [
    {
      "inputs": [
        {
          "internalType": "string",
          "name": "_groupName",
          "type": "string"
        },
        {
          "internalType": "uint256",
          "name": "_groupCreationAmount",
          "type": "uint256"
        }
      ],
      "stateMutability": "payable",
      "type": "constructor"
    },
    {
      "anonymous": false,
      "inputs": [
        {
          "indexed": true,
          "internalType": "address",
          "name": "member",
          "type": "address"
        }
      ],
      "name": "MemberAddedFund",
      "type": "event"
    },
    {
      "anonymous": false,
      "inputs": [
        {
          "indexed": true,
          "internalType": "address",
          "name": "member",
          "type": "address"
        }
      ],
      "name": "MemberJoined",
      "type": "event"
    },
    {
      "anonymous": false,
      "inputs": [
        {
          "indexed": true,
          "internalType": "address",
          "name": "previousOwner",
          "type": "address"
        },
        {
          "indexed": true,
          "internalType": "address",
          "name": "newOwner",
          "type": "address"
        }
      ],
      "name": "OwnershipTransferred",
      "type": "event"
    },
    {
      "inputs": [],
      "name": "createdTime",
      "outputs": [
        {
          "internalType": "uint256",
          "name": "",
          "type": "uint256"
        }
      ],
      "stateMutability": "view",
      "type": "function"
    },
    {
      "inputs": [],
      "name": "groupAccountNumber",
      "outputs": [
        {
          "internalType": "address",
          "name": "",
          "type": "address"
        }
      ],
      "stateMutability": "view",
      "type": "function"
    },
    {
      "inputs": [],
      "name": "groupBalance",
      "outputs": [
        {
          "internalType": "uint256",
          "name": "",
          "type": "uint256"
        }
      ],
      "stateMutability": "view",
      "type": "function"
    },
    {
      "inputs": [],
      "name": "groupCreator",
      "outputs": [
        {
          "internalType": "address",
          "name": "",
          "type": "address"
        }
      ],
      "stateMutability": "view",
      "type": "function"
    },
    {
      "inputs": [
        {
          "internalType": "uint256",
          "name": "",
          "type": "uint256"
        }
      ],
      "name": "groupMemberAddress",
      "outputs": [
        {
          "internalType": "address",
          "name": "",
          "type": "address"
        }
      ],
      "stateMutability": "view",
      "type": "function"
    },
    {
      "inputs": [],
      "name": "groupName",
      "outputs": [
        {
          "internalType": "string",
          "name": "",
          "type": "string"
        }
      ],
      "stateMutability": "view",
      "type": "function"
    },
    {
      "inputs": [],
      "name": "groupState",
      "outputs": [
        {
          "internalType": "enum LiteSwapDAO1.GroupState",
          "name": "",
          "type": "uint8"
        }
      ],
      "stateMutability": "view",
      "type": "function"
    },
    {
      "inputs": [
        {
          "internalType": "uint256",
          "name": "",
          "type": "uint256"
        }
      ],
      "name": "members",
      "outputs": [
        {
          "internalType": "address",
          "name": "",
          "type": "address"
        }
      ],
      "stateMutability": "view",
      "type": "function"
    },
    {
      "inputs": [
        {
          "internalType": "address",
          "name": "",
          "type": "address"
        }
      ],
      "name": "membersContributions",
      "outputs": [
        {
          "internalType": "uint256",
          "name": "",
          "type": "uint256"
        }
      ],
      "stateMutability": "view",
      "type": "function"
    },
    {
      "inputs": [],
      "name": "owner",
      "outputs": [
        {
          "internalType": "address",
          "name": "",
          "type": "address"
        }
      ],
      "stateMutability": "view",
      "type": "function"
    },
    {
      "inputs": [],
      "name": "renounceOwnership",
      "outputs": [],
      "stateMutability": "nonpayable",
      "type": "function"
    },
    {
      "inputs": [
        {
          "internalType": "address",
          "name": "newOwner",
          "type": "address"
        }
      ],
      "name": "transferOwnership",
      "outputs": [],
      "stateMutability": "nonpayable",
      "type": "function"
    },
    {
      "inputs": [
        {
          "internalType": "uint256",
          "name": "amount",
          "type": "uint256"
        }
      ],
      "name": "contribute",
      "outputs": [],
      "stateMutability": "nonpayable",
      "type": "function"
    }
  ],
  "bytecode": "0x6080604052604051620011c1380380620011c183398181016040528101906200002991906200032f565b60006200003b620001ee60201b60201c565b9050806000806101000a81548173ffffffffffffffffffffffffffffffffffffffff021916908373ffffffffffffffffffffffffffffffffffffffff1602179055508073ffffffffffffffffffffffffffffffffffffffff16600073ffffffffffffffffffffffffffffffffffffffff167f8be0079c531659141344cd1fd0a4f28419497f9722a3daafe3b4186f6b6457e060405160405180910390a350600081116200011f576040517f08c379a00000000000000000000000000000000000000000000000000000000081526004016200011690620003b0565b60405180910390fd5b803410156200012d57600080fd5b816001908051906020019062000145929190620001f6565b5042600781905550600060038190555033600260006101000a81548173ffffffffffffffffffffffffffffffffffffffff021916908373ffffffffffffffffffffffffffffffffffffffff1602179055508060068190555033600560006101000a81548173ffffffffffffffffffffffffffffffffffffffff021916908373ffffffffffffffffffffffffffffffffffffffff16021790555060006003819055505050620005c6565b600033905090565b828054620002049062000482565b90600052602060002090601f01602090048101928262000228576000855562000274565b82601f106200024357805160ff191683800117855562000274565b8280016001018555821562000274579182015b828111156200027357825182559160200191906001019062000256565b5b50905062000283919062000287565b5090565b5b80821115620002a257600081600090555060010162000288565b5090565b6000620002bd620002b784620003fb565b620003d2565b905082815260208101848484011115620002d657600080fd5b620002e38482856200044c565b509392505050565b600082601f830112620002fd57600080fd5b81516200030f848260208601620002a6565b91505092915050565b6000815190506200032981620005ac565b92915050565b600080604083850312156200034357600080fd5b600083015167ffffffffffffffff8111156200035e57600080fd5b6200036c85828601620002eb565b92505060206200037f8582860162000318565b9150509250929050565b600062000398602a8362000431565b9150620003a5826200055d565b604082019050919050565b60006020820190508181036000830152620003cb8162000389565b9050919050565b6000620003de620003f1565b9050620003ec8282620004b8565b919050565b6000604051905090565b600067ffffffffffffffff8211156200041957620004186200051d565b5b62000424826200054c565b9050602081019050919050565b600082825260208201905092915050565b6000819050919050565b60005b838110156200046c5780820151818401526020810190506200044f565b838111156200047c576000848401525b50505050565b600060028204905060018216806200049b57607f821691505b60208210811415620004b257620004b1620004ee565b5b50919050565b620004c3826200054c565b810181811067ffffffffffffffff82111715620004e557620004e46200051d565b5b80604052505050565b7f4e487b7100000000000000000000000000000000000000000000000000000000600052602260045260246000fd5b7f4e487b7100000000000000000000000000000000000000000000000000000000600052604160045260246000fd5b6000601f19601f8301169050919050565b7f546865206d696e696d756d2066756e642068617320746f20626520677265617460008201527f6572207468616e20302e00000000000000000000000000000000000000000000602082015250565b620005b78162000442565b8114620005c357600080fd5b50565b610beb80620005d66000396000f3fe608060405234801561001057600080fd5b50600436106100cf5760003560e01c80639b8193e61161008c578063b2f4bdb011610066578063b2f4bdb014610204578063c1cbbca714610222578063c9e87b021461023e578063f2fde38b1461025c576100cf565b80639b8193e6146101985780639e4d3099146101b65780639f12ba44146101e6576100cf565b80635373fa99146100d45780635daf08ca146100f2578063715018a61461012257806371fb29021461012c578063783cec801461015c5780638da5cb5b1461017a575b600080fd5b6100dc610278565b6040516100e99190610872565b60405180910390f35b61010c6004803603810190610107919061079d565b61029e565b6040516101199190610872565b60405180910390f35b61012a6102dd565b005b6101466004803603810190610141919061079d565b610417565b6040516101539190610872565b60405180910390f35b610164610456565b60405161017191906108a8565b60405180910390f35b6101826104e4565b60405161018f9190610872565b60405180910390f35b6101a061050d565b6040516101ad919061088d565b60405180910390f35b6101d060048036038101906101cb9190610774565b610520565b6040516101dd919061090a565b60405180910390f35b6101ee610538565b6040516101fb9190610872565b60405180910390f35b61020c61055e565b604051610219919061090a565b60405180910390f35b61023c6004803603810190610237919061079d565b610564565b005b61024661057d565b604051610253919061090a565b60405180910390f35b61027660048036038101906102719190610774565b610583565b005b600260009054906101000a900473ffffffffffffffffffffffffffffffffffffffff1681565b600a81815481106102ae57600080fd5b906000526020600020016000915054906101000a900473ffffffffffffffffffffffffffffffffffffffff1681565b6102e561072c565b73ffffffffffffffffffffffffffffffffffffffff166103036104e4565b73ffffffffffffffffffffffffffffffffffffffff1614610359576040517f08c379a0000000000000000000000000000000000000000000000000000000008152600401610350906108ea565b60405180910390fd5b600073ffffffffffffffffffffffffffffffffffffffff1660008054906101000a900473ffffffffffffffffffffffffffffffffffffffff1673ffffffffffffffffffffffffffffffffffffffff167f8be0079c531659141344cd1fd0a4f28419497f9722a3daafe3b4186f6b6457e060405160405180910390a360008060006101000a81548173ffffffffffffffffffffffffffffffffffffffff021916908373ffffffffffffffffffffffffffffffffffffffff160217905550565b6004818154811061042757600080fd5b906000526020600020016000915054906101000a900473ffffffffffffffffffffffffffffffffffffffff1681565b6001805461046390610a2b565b80601f016020809104026020016040519081016040528092919081815260200182805461048f90610a2b565b80156104dc5780601f106104b1576101008083540402835291602001916104dc565b820191906000526020600020905b8154815290600101906020018083116104bf57829003601f168201915b505050505081565b60008060009054906101000a900473ffffffffffffffffffffffffffffffffffffffff16905090565b600860009054906101000a900460ff1681565b60096020528060005260406000206000915090505481565b600560009054906101000a900473ffffffffffffffffffffffffffffffffffffffff1681565b60075481565b6105798160035461073490919063ffffffff16565b5050565b60035481565b61058b61072c565b73ffffffffffffffffffffffffffffffffffffffff166105a96104e4565b73ffffffffffffffffffffffffffffffffffffffff16146105ff576040517f08c379a00000000000000000000000000000000000000000000000000000000081526004016105f6906108ea565b60405180910390fd5b600073ffffffffffffffffffffffffffffffffffffffff168173ffffffffffffffffffffffffffffffffffffffff16141561066f576040517f08c379a0000000000000000000000000000000000000000000000000000000008152600401610666906108ca565b60405180910390fd5b8073ffffffffffffffffffffffffffffffffffffffff1660008054906101000a900473ffffffffffffffffffffffffffffffffffffffff1673ffffffffffffffffffffffffffffffffffffffff167f8be0079c531659141344cd1fd0a4f28419497f9722a3daafe3b4186f6b6457e060405160405180910390a3806000806101000a81548173ffffffffffffffffffffffffffffffffffffffff021916908373ffffffffffffffffffffffffffffffffffffffff16021790555050565b600033905090565b600081836107429190610941565b905092915050565b60008135905061075981610b87565b92915050565b60008135905061076e81610b9e565b92915050565b60006020828403121561078657600080fd5b60006107948482850161074a565b91505092915050565b6000602082840312156107af57600080fd5b60006107bd8482850161075f565b91505092915050565b6107cf81610997565b82525050565b6107de816109e6565b82525050565b60006107ef82610925565b6107f98185610930565b93506108098185602086016109f8565b61081281610aea565b840191505092915050565b600061082a602683610930565b915061083582610afb565b604082019050919050565b600061084d602083610930565b915061085882610b4a565b602082019050919050565b61086c816109dc565b82525050565b600060208201905061088760008301846107c6565b92915050565b60006020820190506108a260008301846107d5565b92915050565b600060208201905081810360008301526108c281846107e4565b905092915050565b600060208201905081810360008301526108e38161081d565b9050919050565b6000602082019050818103600083015261090381610840565b9050919050565b600060208201905061091f6000830184610863565b92915050565b600081519050919050565b600082825260208201905092915050565b600061094c826109dc565b9150610957836109dc565b9250827fffffffffffffffffffffffffffffffffffffffffffffffffffffffffffffffff0382111561098c5761098b610a5d565b5b828201905092915050565b60006109a2826109bc565b9050919050565b60008190506109b782610b73565b919050565b600073ffffffffffffffffffffffffffffffffffffffff82169050919050565b6000819050919050565b60006109f1826109a9565b9050919050565b60005b83811015610a165780820151818401526020810190506109fb565b83811115610a25576000848401525b50505050565b60006002820490506001821680610a4357607f821691505b60208210811415610a5757610a56610abb565b5b50919050565b7f4e487b7100000000000000000000000000000000000000000000000000000000600052601160045260246000fd5b7f4e487b7100000000000000000000000000000000000000000000000000000000600052602160045260246000fd5b7f4e487b7100000000000000000000000000000000000000000000000000000000600052602260045260246000fd5b6000601f19601f8301169050919050565b7f4f776e61626c653a206e6577206f776e657220697320746865207a65726f206160008201527f6464726573730000000000000000000000000000000000000000000000000000602082015250565b7f4f776e61626c653a2063616c6c6572206973206e6f7420746865206f776e6572600082015250565b60038110610b8457610b83610a8c565b5b50565b610b9081610997565b8114610b9b57600080fd5b50565b610ba7816109dc565b8114610bb257600080fd5b5056fea264697066735822122061c7d9ff302a4b11bb3ecac80261bd4216845f9c3965bfeb0716aa98be76ae5464736f6c63430008030033",
  "immutableReferences": {},
  "source": "// SPDX-License-Identifier: MIT\n\npragma solidity ^0.8.0;\n\n\n\nimport \"@openzeppelin/contracts/access/Ownable.sol\";\nimport \"@openzeppelin/contracts/utils/math/SafeMath.sol\";\n\ncontract LiteSwapDAO1 is Ownable {\n\n\n  using SafeMath for uint;\n\n    //Group Basic info\n     string public groupName;\n     address public groupCreator;\n     uint public groupBalance;\n     address[] public groupMemberAddress;\n\n     address public groupAccountNumber;\n     uint groupCreationAmount;  \n\n     uint public createdTime;\n\n     enum GroupState{ Created, Updated, Deleted }\n\n     GroupState public groupState;\n\n     mapping(address => uint) public membersContributions;\n\n     address[] public members;\n\n     event MemberJoined( address indexed member);\n\n     event MemberAddedFund ( address indexed member);\n\n      modifier memberHasContributed(address sender) {\n    require(membersContributions[sender] > 0);\n    _;\n  }\n\n    /// Create a new LotteryPot contract\n  /// @param _groupName - Name of the Cooperative\n  /// @param _groupCreationAmount - The minimum stake required to create a group\n\n  constructor (\n    string memory _groupName,\n    uint _groupCreationAmount\n\n  )\n    public payable\n  {\n    require(_groupCreationAmount > 0, \"The minimum fund has to be greater than 0.\");\n    require(msg.value >= _groupCreationAmount);\n\n    groupName = _groupName;\n    createdTime = block.timestamp;\n    groupBalance = 0;\n    groupCreator = msg.sender;\n    groupCreationAmount = _groupCreationAmount;\n\n    // Group creation should be called from its factory.\n    groupAccountNumber = msg.sender;\n    groupBalance = 0;\n\n    // Transfer ownership to the owner, because it defaults to msg.sender\n    //   by OpenZeppelin\n    // if (_groupCreator!= msg.sender) {\n    //   transferOwnership(_owner);\n    // }\n  }\n\n  //allow members to contribute\n  function contribute(uint amount) public {\n    groupBalance.add(amount);\n  }\n}",
  "sourcePath": "/home/emplug7/applications/liteswapv1/contracts/LiteSwapDAO1.sol",
  "compiler": {
    "name": "solc",
    "version": "0.8.3+commit.8d00100c.Emscripten.clang"
  },
  "schemaVersion": "3.3.4",
  "updatedAt": "2021-04-17T15:24:23.404Z",
  "devdoc": {
    "kind": "dev",
    "methods": {
      "constructor": {
        "params": {
          "_groupCreationAmount": "- The minimum stake required to create a group",
          "_groupName": "- Name of the Cooperative"
        }
      },
      "owner()": {
        "details": "Returns the address of the current owner."
      },
      "renounceOwnership()": {
        "details": "Leaves the contract without owner. It will not be possible to call `onlyOwner` functions anymore. Can only be called by the current owner. NOTE: Renouncing ownership will leave the contract without an owner, thereby removing any functionality that is only available to the owner."
      },
      "transferOwnership(address)": {
        "details": "Transfers ownership of the contract to a new account (`newOwner`). Can only be called by the current owner."
      }
    },
    "version": 1
  },
  "userdoc": {
    "kind": "user",
    "methods": {
      "constructor": {
        "notice": "Create a new LotteryPot contract"
      }
    },
    "version": 1
  }
}