{
  "contractName": "LiteSwapDAO",
  "abi": [
    {
      "inputs": [],
      "payable": false,
      "stateMutability": "nonpayable",
      "type": "constructor"
    },
    {
      "anonymous": false,
      "inputs": [
        {
          "indexed": false,
          "internalType": "address",
          "name": "groupAddress",
          "type": "address"
        }
      ],
      "name": "LTSGroupCreated",
      "type": "event"
    },
    {
      "constant": true,
      "inputs": [],
      "name": "groupCount",
      "outputs": [
        {
          "internalType": "uint256",
          "name": "",
          "type": "uint256"
        }
      ],
      "payable": false,
      "stateMutability": "view",
      "type": "function"
    },
    {
      "constant": true,
      "inputs": [
        {
          "internalType": "address",
          "name": "",
          "type": "address"
        }
      ],
      "name": "liteSwapGroupMap",
      "outputs": [
        {
          "internalType": "string",
          "name": "groupName",
          "type": "string"
        },
        {
          "internalType": "address",
          "name": "groupCreator",
          "type": "address"
        },
        {
          "internalType": "uint256",
          "name": "groupBalance",
          "type": "uint256"
        },
        {
          "internalType": "uint256",
          "name": "_groupIndex",
          "type": "uint256"
        }
      ],
      "payable": false,
      "stateMutability": "view",
      "type": "function"
    },
    {
      "constant": true,
      "inputs": [],
      "name": "owner",
      "outputs": [
        {
          "internalType": "address",
          "name": "",
          "type": "address"
        }
      ],
      "payable": false,
      "stateMutability": "view",
      "type": "function"
    },
    {
      "constant": false,
      "inputs": [
        {
          "internalType": "string",
          "name": "gName",
          "type": "string"
        }
      ],
      "name": "createLTSGroup",
      "outputs": [],
      "payable": false,
      "stateMutability": "nonpayable",
      "type": "function"
    },
    {
      "constant": false,
      "inputs": [
        {
          "internalType": "address",
          "name": "groupAddress",
          "type": "address"
        },
        {
          "internalType": "uint256",
          "name": "groupInitialDues",
          "type": "uint256"
        }
      ],
      "name": "addMembersToLTSGroup",
      "outputs": [
        {
          "internalType": "bool",
          "name": "",
          "type": "bool"
        }
      ],
      "payable": false,
      "stateMutability": "nonpayable",
      "type": "function"
    },
    {
      "constant": true,
      "inputs": [
        {
          "internalType": "address",
          "name": "group_addr",
          "type": "address"
        }
      ],
      "name": "checkIfMemberAlreadyExist",
      "outputs": [
        {
          "internalType": "bool",
          "name": "",
          "type": "bool"
        }
      ],
      "payable": false,
      "stateMutability": "view",
      "type": "function"
    },
    {
      "constant": false,
      "inputs": [
        {
          "internalType": "address payable",
          "name": "groupAddr",
          "type": "address"
        },
        {
          "internalType": "uint256",
          "name": "amount",
          "type": "uint256"
        }
      ],
      "name": "addLiquidityToLTSGroupAccount",
      "outputs": [
        {
          "internalType": "bool",
          "name": "",
          "type": "bool"
        },
        {
          "internalType": "uint256",
          "name": "",
          "type": "uint256"
        }
      ],
      "payable": false,
      "stateMutability": "nonpayable",
      "type": "function"
    },
    {
      "constant": true,
      "inputs": [],
      "name": "getGroupCount",
      "outputs": [
        {
          "internalType": "uint256",
          "name": "",
          "type": "uint256"
        }
      ],
      "payable": false,
      "stateMutability": "view",
      "type": "function"
    }
  ],
  "bytecode": "0x60806040526000805534801561001457600080fd5b5033600160006101000a81548173ffffffffffffffffffffffffffffffffffffffff021916908373ffffffffffffffffffffffffffffffffffffffff160217905550610be1806100656000396000f3fe608060405234801561001057600080fd5b50600436106100885760003560e01c80637cc72cab1161005b5780637cc72cab146102885780638da5cb5b146102f55780638f23b3261461033f578063a23361881461035d57610088565b806306545a931461008d5780632bb11d84146100ab57806341044c581461011157806363519a361461020f575b600080fd5b6100956103b9565b6040518082815260200191505060405180910390f35b6100f7600480360360408110156100c157600080fd5b81019080803573ffffffffffffffffffffffffffffffffffffffff169060200190929190803590602001909291905050506103c6565b604051808215151515815260200191505060405180910390f35b6101536004803603602081101561012757600080fd5b81019080803573ffffffffffffffffffffffffffffffffffffffff1690602001909291905050506104e0565b60405180806020018573ffffffffffffffffffffffffffffffffffffffff1673ffffffffffffffffffffffffffffffffffffffff168152602001848152602001838152602001828103825286818151815260200191508051906020019080838360005b838110156101d15780820151818401526020810190506101b6565b50505050905090810190601f1680156101fe5780820380516001836020036101000a031916815260200191505b509550505050505060405180910390f35b6102866004803603602081101561022557600080fd5b810190808035906020019064010000000081111561024257600080fd5b82018360208201111561025457600080fd5b8035906020019184600183028401116401000000008311171561027657600080fd5b90919293919293905050506105c8565b005b6102d46004803603604081101561029e57600080fd5b81019080803573ffffffffffffffffffffffffffffffffffffffff169060200190929190803590602001909291905050506108ef565b60405180831515151581526020018281526020019250505060405180910390f35b6102fd610984565b604051808273ffffffffffffffffffffffffffffffffffffffff1673ffffffffffffffffffffffffffffffffffffffff16815260200191505060405180910390f35b6103476109aa565b6040518082815260200191505060405180910390f35b61039f6004803603602081101561037357600080fd5b81019080803573ffffffffffffffffffffffffffffffffffffffff1690602001909291905050506109b0565b604051808215151515815260200191505060405180910390f35b6000600780549050905090565b60006103d1836109b0565b156103df57600090506104da565b81600860008573ffffffffffffffffffffffffffffffffffffffff1673ffffffffffffffffffffffffffffffffffffffff16815260200190815260200160002060020160008282540192505081905550600860008473ffffffffffffffffffffffffffffffffffffffff1673ffffffffffffffffffffffffffffffffffffffff1681526020019081526020016000206003013390806001815401808255809150509060018203906000526020600020016000909192909190916101000a81548173ffffffffffffffffffffffffffffffffffffffff021916908373ffffffffffffffffffffffffffffffffffffffff16021790555050600190505b92915050565b6008602052806000526040600020600091509050806000018054600181600116156101000203166002900480601f01602080910402602001604051908101604052809291908181526020018280546001816001161561010002031660029004801561058c5780601f106105615761010080835404028352916020019161058c565b820191906000526020600020905b81548152906001019060200180831161056f57829003601f168201915b5050505050908060010160009054906101000a900473ffffffffffffffffffffffffffffffffffffffff16908060020154908060040154905084565b60003090508282600860008473ffffffffffffffffffffffffffffffffffffffff1673ffffffffffffffffffffffffffffffffffffffff168152602001908152602001600020600001919061061e929190610b07565b50600160009054906101000a900473ffffffffffffffffffffffffffffffffffffffff16600860008373ffffffffffffffffffffffffffffffffffffffff1673ffffffffffffffffffffffffffffffffffffffff16815260200190815260200160002060010160006101000a81548173ffffffffffffffffffffffffffffffffffffffff021916908373ffffffffffffffffffffffffffffffffffffffff1602179055506000600860008373ffffffffffffffffffffffffffffffffffffffff1673ffffffffffffffffffffffffffffffffffffffff16815260200190815260200160002060020181905550600860008273ffffffffffffffffffffffffffffffffffffffff1673ffffffffffffffffffffffffffffffffffffffff168152602001908152602001600020600301600160009054906101000a900473ffffffffffffffffffffffffffffffffffffffff1690806001815401808255809150509060018203906000526020600020016000909192909190916101000a81548173ffffffffffffffffffffffffffffffffffffffff021916908373ffffffffffffffffffffffffffffffffffffffff16021790555050600160078054905003600860008373ffffffffffffffffffffffffffffffffffffffff1673ffffffffffffffffffffffffffffffffffffffff1681526020019081526020016000206004018190555060078190806001815401808255809150509060018203906000526020600020016000909192909190916101000a81548173ffffffffffffffffffffffffffffffffffffffff021916908373ffffffffffffffffffffffffffffffffffffffff160217905550507f6182bb61d166d358fd1359513dfdca6f4fcffe3e0b13405255f14e62f8d17d6e81604051808273ffffffffffffffffffffffffffffffffffffffff1673ffffffffffffffffffffffffffffffffffffffff16815260200191505060405180910390a1505050565b60008060003373ffffffffffffffffffffffffffffffffffffffff1631905060008573ffffffffffffffffffffffffffffffffffffffff16319050848203915084810190503373ffffffffffffffffffffffffffffffffffffffff166108fc869081150290604051600060405180830381858888f1935050505015801561097a573d6000803e3d6000fd5b5050509250929050565b600160009054906101000a900473ffffffffffffffffffffffffffffffffffffffff1681565b60005481565b60006060600860008473ffffffffffffffffffffffffffffffffffffffff1673ffffffffffffffffffffffffffffffffffffffff168152602001908152602001600020600301805480602002602001604051908101604052809291908181526020018280548015610a7657602002820191906000526020600020905b8160009054906101000a900473ffffffffffffffffffffffffffffffffffffffff1673ffffffffffffffffffffffffffffffffffffffff1681526020019060010190808311610a2c575b50505050509050600081511415610a91576000915050610b02565b60008090505b8151811015610aff573373ffffffffffffffffffffffffffffffffffffffff16828281518110610ac357fe5b602002602001015173ffffffffffffffffffffffffffffffffffffffff161415610af257600192505050610b02565b8080600101915050610a97565b50505b919050565b828054600181600116156101000203166002900490600052602060002090601f016020900481019282601f10610b4857803560ff1916838001178555610b76565b82800160010185558215610b76579182015b82811115610b75578235825591602001919060010190610b5a565b5b509050610b839190610b87565b5090565b610ba991905b80821115610ba5576000816000905550600101610b8d565b5090565b9056fea265627a7a7231582016199b20445c097a10d45a10178c6c20e4783eba94289a7d8e3c92748816aad564736f6c63430005100032",
  "source": "// SPDX-License-Identifier: MIT\npragma solidity >=0.4.21 <0.8.0;\n\nimport \"./interfaces/ILiteSwapDAO.sol\";\n\ncontract LiteSwapDAO {\n\n    uint public  groupCount = 0;\n\n    address public owner;\n\n //structure to hold the group created\n   \n    struct LiteSwapGroup {\n        string groupName;\n        address groupCreator;\n        uint groupBalance;\n        address[] liteSwapGroupMembers;\n        uint _groupIndex;  \n    }\n\n    LiteSwapGroup ltsTypeOf;\n\n    address[] liteSwapGroupId;\n\n    mapping(address => LiteSwapGroup) public liteSwapGroupMap;\n\n    event LTSGroupCreated(address groupAddress);\n\n    constructor() public {\n        owner = msg.sender;\n    }\n\n    //add members to group\n     function createLTSGroup(string calldata gName) external{\n         address groupAddress = address(this);\n         liteSwapGroupMap[groupAddress].groupName = gName;\n         liteSwapGroupMap[groupAddress].groupCreator = owner;\n         liteSwapGroupMap[groupAddress].groupBalance = 0;\n         liteSwapGroupMap[groupAddress].liteSwapGroupMembers.push(owner);\n         liteSwapGroupMap[groupAddress]._groupIndex = liteSwapGroupId.length - 1;\n\n         liteSwapGroupId.push(groupAddress);\n\n         emit LTSGroupCreated(groupAddress);\n         \n         \n     }\n\n    /**\n     * @dev Add memebers who selected group to group\n     */\n\n    function addMembersToLTSGroup(address groupAddress, uint256 groupInitialDues) external returns(bool){\n   if(checkIfMemberAlreadyExist(groupAddress)) return false;\n        liteSwapGroupMap[groupAddress].groupBalance += groupInitialDues;\n        liteSwapGroupMap[groupAddress].liteSwapGroupMembers.push(msg.sender);\n        return true;\n        \n    }\n\n    /**\n     * @dev get all the groups\n     */\n  \n    function checkIfMemberAlreadyExist(address group_addr) public view returns (bool) {\n        address[] memory groupMembers = liteSwapGroupMap[group_addr].liteSwapGroupMembers;\n        if(groupMembers.length == 0){\n           return false;  \n        }\n       \n        for(uint i = 0; i < groupMembers.length; i++ ){\n            if(groupMembers[i] == msg.sender) {\n                return true;\n            }\n        }\n    }\n\n\n    /**\n     * @dev Add funds to the group\n     */\n    \n     function addLiquidityToLTSGroupAccount(\n         address payable groupAddr, \n         uint256 amount) external returns (bool, uint256){\n             \n        //  require(member.balance <= amount, \"No Sufficient Fund!\");\n        //  require((member == address(0)), \"No Valid Account Found\");\n\n            uint account =  msg.sender.balance;\n            uint groupBalance = groupAddr.balance;\n            account -= amount;\n            groupBalance += amount;\n\n            msg.sender.transfer(amount);\n            \n        }\n\n    /**\n     * @dev get all the groups\n     */\n\n    function getGroupCount() public view returns (uint256){\n        return liteSwapGroupId.length;\n    }\n\n    // fallback()external payable {\n    //     require(msg.value == 0);\n    // }\n\n}",
  "sourcePath": "/home/emplug7/applications/liteswapv1/contracts/LiteSwapDAO.sol",
  "compiler": {
    "name": "solc",
    "version": "0.5.16+commit.9c3226ce.Emscripten.clang"
  },
  "schemaVersion": "3.3.4",
  "updatedAt": "2021-04-15T20:00:46.304Z",
  "networkType": "ethereum",
  "devdoc": {
    "methods": {
      "addLiquidityToLTSGroupAccount(address,uint256)": {
        "details": "Add funds to the group"
      },
      "addMembersToLTSGroup(address,uint256)": {
        "details": "Add memebers who selected group to group"
      },
      "checkIfMemberAlreadyExist(address)": {
        "details": "get all the groups"
      },
      "getGroupCount()": {
        "details": "get all the groups"
      }
    }
  },
  "userdoc": {
    "methods": {}
  }
}