{
  "contractName": "LiteSwapDAOFactory",
  "abi": [
    {
      "inputs": [],
      "stateMutability": "nonpayable",
      "type": "constructor"
    },
    {
      "anonymous": false,
      "inputs": [
        {
          "indexed": true,
          "internalType": "address",
          "name": "previousOwner",
          "type": "address"
        },
        {
          "indexed": true,
          "internalType": "address",
          "name": "newOwner",
          "type": "address"
        }
      ],
      "name": "OwnershipTransferred",
      "type": "event"
    },
    {
      "inputs": [
        {
          "internalType": "uint256",
          "name": "",
          "type": "uint256"
        }
      ],
      "name": "cooperativeGroups",
      "outputs": [
        {
          "internalType": "address",
          "name": "",
          "type": "address"
        }
      ],
      "stateMutability": "view",
      "type": "function",
      "constant": true
    },
    {
      "inputs": [
        {
          "internalType": "uint256",
          "name": "",
          "type": "uint256"
        }
      ],
      "name": "createdGroupNames",
      "outputs": [
        {
          "internalType": "string",
          "name": "",
          "type": "string"
        }
      ],
      "stateMutability": "view",
      "type": "function",
      "constant": true
    },
    {
      "inputs": [],
      "name": "currentGroupAddress",
      "outputs": [
        {
          "internalType": "address",
          "name": "",
          "type": "address"
        }
      ],
      "stateMutability": "view",
      "type": "function",
      "constant": true
    },
    {
      "inputs": [],
      "name": "currentGroupName",
      "outputs": [
        {
          "internalType": "string",
          "name": "",
          "type": "string"
        }
      ],
      "stateMutability": "view",
      "type": "function",
      "constant": true
    },
    {
      "inputs": [],
      "name": "owner",
      "outputs": [
        {
          "internalType": "address",
          "name": "",
          "type": "address"
        }
      ],
      "stateMutability": "view",
      "type": "function",
      "constant": true
    },
    {
      "inputs": [],
      "name": "renounceOwnership",
      "outputs": [],
      "stateMutability": "nonpayable",
      "type": "function"
    },
    {
      "inputs": [
        {
          "internalType": "address",
          "name": "newOwner",
          "type": "address"
        }
      ],
      "name": "transferOwnership",
      "outputs": [],
      "stateMutability": "nonpayable",
      "type": "function"
    },
    {
      "inputs": [
        {
          "internalType": "string",
          "name": "groupName",
          "type": "string"
        },
        {
          "internalType": "uint256",
          "name": "amount",
          "type": "uint256"
        }
      ],
      "name": "createCooperativeGroup",
      "outputs": [
        {
          "internalType": "bool",
          "name": "",
          "type": "bool"
        }
      ],
      "stateMutability": "payable",
      "type": "function",
      "payable": true
    },
    {
      "inputs": [
        {
          "internalType": "string",
          "name": "groupName",
          "type": "string"
        }
      ],
      "name": "joinCooperativeGroup",
      "outputs": [
        {
          "internalType": "bool",
          "name": "",
          "type": "bool"
        }
      ],
      "stateMutability": "payable",
      "type": "function",
      "payable": true
    },
    {
      "inputs": [
        {
          "internalType": "string",
          "name": "name",
          "type": "string"
        }
      ],
      "name": "getGroupCount",
      "outputs": [
        {
          "internalType": "uint256",
          "name": "",
          "type": "uint256"
        }
      ],
      "stateMutability": "payable",
      "type": "function",
      "payable": true
    },
    {
      "inputs": [],
      "name": "getcooperativeGroups",
      "outputs": [
        {
          "internalType": "address[]",
          "name": "",
          "type": "address[]"
        }
      ],
      "stateMutability": "view",
      "type": "function",
      "constant": true
    },
    {
      "inputs": [],
      "name": "getcooperativeGroupNames",
      "outputs": [
        {
          "internalType": "string[]",
          "name": "",
          "type": "string[]"
        }
      ],
      "stateMutability": "view",
      "type": "function",
      "constant": true
    }
  ],
  "bytecode": "0x608060405234801561001057600080fd5b50600061002161012d60201b60201c565b9050806000806101000a81548173ffffffffffffffffffffffffffffffffffffffff021916908373ffffffffffffffffffffffffffffffffffffffff1602179055508073ffffffffffffffffffffffffffffffffffffffff16600073ffffffffffffffffffffffffffffffffffffffff167f8be0079c531659141344cd1fd0a4f28419497f9722a3daafe3b4186f6b6457e060405160405180910390a3506040516100cb90610135565b604051809103906000f0801580156100e7573d6000803e3d6000fd5b50600160006101000a81548173ffffffffffffffffffffffffffffffffffffffff021916908373ffffffffffffffffffffffffffffffffffffffff160217905550610142565b600033905090565b611a8f806114ab83390190565b61135a806101516000396000f3fe6080604052600436106100a75760003560e01c80638cf40112116100645780638cf40112146101be5780638da5cb5b146101e9578063ad146eeb14610214578063cfe86b9814610244578063ef9364fe14610274578063f2fde38b146102a4576100a7565b806309433ae2146100ac578063676ad26b146100d7578063715018a61461010257806375985dd11461011957806375e97c5a146101565780638b1ab72c14610193575b600080fd5b3480156100b857600080fd5b506100c16102cd565b6040516100ce9190610f69565b60405180910390f35b3480156100e357600080fd5b506100ec61035b565b6040516100f99190610eef565b60405180910390f35b34801561010e57600080fd5b50610117610381565b005b34801561012557600080fd5b50610140600480360381019061013b9190610caa565b6104bb565b60405161014d9190610eef565b60405180910390f35b34801561016257600080fd5b5061017d60048036038101906101789190610caa565b6104fa565b60405161018a9190610f69565b60405180910390f35b34801561019f57600080fd5b506101a86105a6565b6040516101b59190610f2c565b60405180910390f35b3480156101ca57600080fd5b506101d361067f565b6040516101e09190610f0a565b60405180910390f35b3480156101f557600080fd5b506101fe61070d565b60405161020b9190610eef565b60405180910390f35b61022e60048036038101906102299190610c15565b610736565b60405161023b9190610ffb565b60405180910390f35b61025e60048036038101906102599190610c56565b6107e9565b60405161026b9190610f4e565b60405180910390f35b61028e60048036038101906102899190610c15565b6108a1565b60405161029b9190610f4e565b60405180910390f35b3480156102b057600080fd5b506102cb60048036038101906102c69190610bc3565b610956565b005b600680546102da90611195565b80601f016020809104026020016040519081016040528092919081815260200182805461030690611195565b80156103535780601f1061032857610100808354040283529160200191610353565b820191906000526020600020905b81548152906001019060200180831161033657829003601f168201915b505050505081565b600560009054906101000a900473ffffffffffffffffffffffffffffffffffffffff1681565b610389610aff565b73ffffffffffffffffffffffffffffffffffffffff166103a761070d565b73ffffffffffffffffffffffffffffffffffffffff16146103fd576040517f08c379a00000000000000000000000000000000000000000000000000000000081526004016103f490610fdb565b60405180910390fd5b600073ffffffffffffffffffffffffffffffffffffffff1660008054906101000a900473ffffffffffffffffffffffffffffffffffffffff1673ffffffffffffffffffffffffffffffffffffffff167f8be0079c531659141344cd1fd0a4f28419497f9722a3daafe3b4186f6b6457e060405160405180910390a360008060006101000a81548173ffffffffffffffffffffffffffffffffffffffff021916908373ffffffffffffffffffffffffffffffffffffffff160217905550565b600381815481106104cb57600080fd5b906000526020600020016000915054906101000a900473ffffffffffffffffffffffffffffffffffffffff1681565b6004818154811061050a57600080fd5b90600052602060002001600091509050805461052590611195565b80601f016020809104026020016040519081016040528092919081815260200182805461055190611195565b801561059e5780601f106105735761010080835404028352916020019161059e565b820191906000526020600020905b81548152906001019060200180831161058157829003601f168201915b505050505081565b60606004805480602002602001604051908101604052809291908181526020016000905b828210156106765783829060005260206000200180546105e990611195565b80601f016020809104026020016040519081016040528092919081815260200182805461061590611195565b80156106625780601f1061063757610100808354040283529160200191610662565b820191906000526020600020905b81548152906001019060200180831161064557829003601f168201915b5050505050815260200190600101906105ca565b50505050905090565b6060600380548060200260200160405190810160405280929190818152602001828054801561070357602002820191906000526020600020905b8160009054906101000a900473ffffffffffffffffffffffffffffffffffffffff1673ffffffffffffffffffffffffffffffffffffffff16815260200190600101908083116106b9575b5050505050905090565b60008060009054906101000a900473ffffffffffffffffffffffffffffffffffffffff16905090565b6000600160009054906101000a900473ffffffffffffffffffffffffffffffffffffffff1673ffffffffffffffffffffffffffffffffffffffff166393634517836040518263ffffffff1660e01b81526004016107939190610f69565b60206040518083038186803b1580156107ab57600080fd5b505afa1580156107bf573d6000803e3d6000fd5b505050506040513d601f19601f820116820180604052508101906107e39190610cd3565b50919050565b6000600160009054906101000a900473ffffffffffffffffffffffffffffffffffffffff1673ffffffffffffffffffffffffffffffffffffffff1663cfe86b9884846040518363ffffffff1660e01b8152600401610848929190610f8b565b602060405180830381600087803b15801561086257600080fd5b505af1158015610876573d6000803e3d6000fd5b505050506040513d601f19601f8201168201806040525081019061089a9190610bec565b5092915050565b6000600160009054906101000a900473ffffffffffffffffffffffffffffffffffffffff1673ffffffffffffffffffffffffffffffffffffffff1663918f9687836040518263ffffffff1660e01b81526004016108fe9190610f69565b602060405180830381600087803b15801561091857600080fd5b505af115801561092c573d6000803e3d6000fd5b505050506040513d601f19601f820116820180604052508101906109509190610bec565b50919050565b61095e610aff565b73ffffffffffffffffffffffffffffffffffffffff1661097c61070d565b73ffffffffffffffffffffffffffffffffffffffff16146109d2576040517f08c379a00000000000000000000000000000000000000000000000000000000081526004016109c990610fdb565b60405180910390fd5b600073ffffffffffffffffffffffffffffffffffffffff168173ffffffffffffffffffffffffffffffffffffffff161415610a42576040517f08c379a0000000000000000000000000000000000000000000000000000000008152600401610a3990610fbb565b60405180910390fd5b8073ffffffffffffffffffffffffffffffffffffffff1660008054906101000a900473ffffffffffffffffffffffffffffffffffffffff1673ffffffffffffffffffffffffffffffffffffffff167f8be0079c531659141344cd1fd0a4f28419497f9722a3daafe3b4186f6b6457e060405160405180910390a3806000806101000a81548173ffffffffffffffffffffffffffffffffffffffff021916908373ffffffffffffffffffffffffffffffffffffffff16021790555050565b600033905090565b6000610b1a610b158461103b565b611016565b905082815260208101848484011115610b3257600080fd5b610b3d848285611153565b509392505050565b600081359050610b54816112df565b92915050565b600081519050610b69816112f6565b92915050565b600082601f830112610b8057600080fd5b8135610b90848260208601610b07565b91505092915050565b600081359050610ba88161130d565b92915050565b600081519050610bbd8161130d565b92915050565b600060208284031215610bd557600080fd5b6000610be384828501610b45565b91505092915050565b600060208284031215610bfe57600080fd5b6000610c0c84828501610b5a565b91505092915050565b600060208284031215610c2757600080fd5b600082013567ffffffffffffffff811115610c4157600080fd5b610c4d84828501610b6f565b91505092915050565b60008060408385031215610c6957600080fd5b600083013567ffffffffffffffff811115610c8357600080fd5b610c8f85828601610b6f565b9250506020610ca085828601610b99565b9150509250929050565b600060208284031215610cbc57600080fd5b6000610cca84828501610b99565b91505092915050565b600060208284031215610ce557600080fd5b6000610cf384828501610bae565b91505092915050565b6000610d088383610d28565b60208301905092915050565b6000610d208383610e28565b905092915050565b610d318161110b565b82525050565b610d408161110b565b82525050565b6000610d518261108c565b610d5b81856110c7565b9350610d668361106c565b8060005b83811015610d97578151610d7e8882610cfc565b9750610d89836110ad565b925050600181019050610d6a565b5085935050505092915050565b6000610daf82611097565b610db981856110d8565b935083602082028501610dcb8561107c565b8060005b85811015610e075784840389528151610de88582610d14565b9450610df3836110ba565b925060208a01995050600181019050610dcf565b50829750879550505050505092915050565b610e228161111d565b82525050565b6000610e33826110a2565b610e3d81856110e9565b9350610e4d818560208601611162565b610e5681611256565b840191505092915050565b6000610e6c826110a2565b610e7681856110fa565b9350610e86818560208601611162565b610e8f81611256565b840191505092915050565b6000610ea76026836110fa565b9150610eb282611267565b604082019050919050565b6000610eca6020836110fa565b9150610ed5826112b6565b602082019050919050565b610ee981611149565b82525050565b6000602082019050610f046000830184610d37565b92915050565b60006020820190508181036000830152610f248184610d46565b905092915050565b60006020820190508181036000830152610f468184610da4565b905092915050565b6000602082019050610f636000830184610e19565b92915050565b60006020820190508181036000830152610f838184610e61565b905092915050565b60006040820190508181036000830152610fa58185610e61565b9050610fb46020830184610ee0565b9392505050565b60006020820190508181036000830152610fd481610e9a565b9050919050565b60006020820190508181036000830152610ff481610ebd565b9050919050565b60006020820190506110106000830184610ee0565b92915050565b6000611020611031565b905061102c82826111c7565b919050565b6000604051905090565b600067ffffffffffffffff82111561105657611055611227565b5b61105f82611256565b9050602081019050919050565b6000819050602082019050919050565b6000819050602082019050919050565b600081519050919050565b600081519050919050565b600081519050919050565b6000602082019050919050565b6000602082019050919050565b600082825260208201905092915050565b600082825260208201905092915050565b600082825260208201905092915050565b600082825260208201905092915050565b600061111682611129565b9050919050565b60008115159050919050565b600073ffffffffffffffffffffffffffffffffffffffff82169050919050565b6000819050919050565b82818337600083830152505050565b60005b83811015611180578082015181840152602081019050611165565b8381111561118f576000848401525b50505050565b600060028204905060018216806111ad57607f821691505b602082108114156111c1576111c06111f8565b5b50919050565b6111d082611256565b810181811067ffffffffffffffff821117156111ef576111ee611227565b5b80604052505050565b7f4e487b7100000000000000000000000000000000000000000000000000000000600052602260045260246000fd5b7f4e487b7100000000000000000000000000000000000000000000000000000000600052604160045260246000fd5b6000601f19601f8301169050919050565b7f4f776e61626c653a206e6577206f776e657220697320746865207a65726f206160008201527f6464726573730000000000000000000000000000000000000000000000000000602082015250565b7f4f776e61626c653a2063616c6c6572206973206e6f7420746865206f776e6572600082015250565b6112e88161110b565b81146112f357600080fd5b50565b6112ff8161111d565b811461130a57600080fd5b50565b61131681611149565b811461132157600080fd5b5056fea264697066735822122068ac1bea631668d0796e61688a3e4cbc0b6b6b3e2db6041b58f082458085379064736f6c63430008030033608060405261001261015360201b60201c565b600160006101000a81548173ffffffffffffffffffffffffffffffffffffffff021916908373ffffffffffffffffffffffffffffffffffffffff16021790555034801561005e57600080fd5b50600061006f61017c60201b60201c565b9050806000806101000a81548173ffffffffffffffffffffffffffffffffffffffff021916908373ffffffffffffffffffffffffffffffffffffffff1602179055508073ffffffffffffffffffffffffffffffffffffffff16600073ffffffffffffffffffffffffffffffffffffffff167f8be0079c531659141344cd1fd0a4f28419497f9722a3daafe3b4186f6b6457e060405160405180910390a35033600160006101000a81548173ffffffffffffffffffffffffffffffffffffffff021916908373ffffffffffffffffffffffffffffffffffffffff160217905550610184565b60008060009054906101000a900473ffffffffffffffffffffffffffffffffffffffff16905090565b600033905090565b6118fc806101936000396000f3fe60806040526004361061009c5760003560e01c8063936345171161006457806393634517146101945780639b8193e6146101d15780639e4d3099146101fc578063cfe86b9814610239578063d6271edf14610269578063f2fde38b146102a65761009c565b806311433874146100a157806342d3f2ed146100e5578063715018a6146101225780638da5cb5b14610139578063918f968714610164575b600080fd5b3480156100ad57600080fd5b506100c860048036038101906100c39190610fb5565b6102cf565b6040516100dc98979695949392919061132c565b60405180910390f35b3480156100f157600080fd5b5061010c60048036038101906101079190611073565b6103cc565b60405161011991906112f6565b60405180910390f35b34801561012e57600080fd5b5061013761040b565b005b34801561014557600080fd5b5061014e610545565b60405161015b91906112f6565b60405180910390f35b61017e60048036038101906101799190610fde565b61056e565b60405161018b9190611311565b60405180910390f35b3480156101a057600080fd5b506101bb60048036038101906101b69190610fde565b61074a565b6040516101c8919061144e565b60405180910390f35b3480156101dd57600080fd5b506101e6610878565b6040516101f391906113b1565b60405180910390f35b34801561020857600080fd5b50610223600480360381019061021e9190610f8c565b61088b565b604051610230919061144e565b60405180910390f35b610253600480360381019061024e919061101f565b6108a3565b6040516102609190611311565b60405180910390f35b34801561027557600080fd5b50610290600480360381019061028b9190611073565b610be5565b60405161029d91906113cc565b60405180910390f35b3480156102b257600080fd5b506102cd60048036038101906102c89190610f8c565b610c91565b005b60036020528060005260406000206000915090508060000154908060010180546102f8906115e8565b80601f0160208091040260200160405190810160405280929190818152602001828054610324906115e8565b80156103715780601f1061034657610100808354040283529160200191610371565b820191906000526020600020905b81548152906001019060200180831161035457829003601f168201915b5050505050908060020160009054906101000a900473ffffffffffffffffffffffffffffffffffffffff16908060040154908060050154908060060154908060070154908060080160009054906101000a900460ff16905088565b600681815481106103dc57600080fd5b906000526020600020016000915054906101000a900473ffffffffffffffffffffffffffffffffffffffff1681565b610413610e3a565b73ffffffffffffffffffffffffffffffffffffffff16610431610545565b73ffffffffffffffffffffffffffffffffffffffff1614610487576040517f08c379a000000000000000000000000000000000000000000000000000000000815260040161047e9061142e565b60405180910390fd5b600073ffffffffffffffffffffffffffffffffffffffff1660008054906101000a900473ffffffffffffffffffffffffffffffffffffffff1673ffffffffffffffffffffffffffffffffffffffff167f8be0079c531659141344cd1fd0a4f28419497f9722a3daafe3b4186f6b6457e060405160405180910390a360008060006101000a81548173ffffffffffffffffffffffffffffffffffffffff021916908373ffffffffffffffffffffffffffffffffffffffff160217905550565b60008060009054906101000a900473ffffffffffffffffffffffffffffffffffffffff16905090565b6000806000801b905060005b600580549050811015610679578360405160200161059891906112c8565b60405160208183030381529060405280519060200120600582815481106105e8577f4e487b7100000000000000000000000000000000000000000000000000000000600052603260045260246000fd5b9060005260206000200160405160200161060291906112df565b6040516020818303038152906040528051906020012014156106665760048181548110610658577f4e487b7100000000000000000000000000000000000000000000000000000000600052603260045260246000fd5b906000526020600020015491505b80806106719061164b565b91505061057a565b5060036000828152602001908152602001600020600301339080600181540180825580915050600190039060005260206000200160009091909190916101000a81548173ffffffffffffffffffffffffffffffffffffffff021916908373ffffffffffffffffffffffffffffffffffffffff1602179055503373ffffffffffffffffffffffffffffffffffffffff167f65924ed81952443d8d3f09bbd0093fb71891133c774e1ec3a9a32a67762c5f8060016040516107389190611311565b60405180910390a26001915050919050565b6000806000801b905060005b600580549050811015610855578360405160200161077491906112c8565b60405160208183030381529060405280519060200120600582815481106107c4577f4e487b7100000000000000000000000000000000000000000000000000000000600052603260045260246000fd5b906000526020600020016040516020016107de91906112df565b6040516020818303038152906040528051906020012014156108425760048181548110610834577f4e487b7100000000000000000000000000000000000000000000000000000000600052603260045260246000fd5b906000526020600020015491505b808061084d9061164b565b915050610756565b506003600082815260200190815260200160002060030180549050915050919050565b600160149054906101000a900460ff1681565b60026020528060005260406000206000915090505481565b6000808351116108e8576040517f08c379a00000000000000000000000000000000000000000000000000000000081526004016108df906113ee565b60405180910390fd5b60006001436108f791906114fb565b409050600033854284604051602001610913949392919061127e565b604051602081830303815290604052805190602001209050600481908060018154018082558091505060019003906000526020600020016000909190919091505560058590806001815401808255809150506001900390600052602060002001600090919091909150908051906020019061098f929190610e42565b50806003600083815260200190815260200160002060000181905550846003600083815260200190815260200160002060010190805190602001906109d5929190610e42565b50600160009054906101000a900473ffffffffffffffffffffffffffffffffffffffff166003600083815260200190815260200160002060020160006101000a81548173ffffffffffffffffffffffffffffffffffffffff021916908373ffffffffffffffffffffffffffffffffffffffff16021790555060036000828152602001908152602001600020600301339080600181540180825580915050600190039060005260206000200160009091909190916101000a81548173ffffffffffffffffffffffffffffffffffffffff021916908373ffffffffffffffffffffffffffffffffffffffff1602179055508360036000838152602001908152602001600020600501819055506001600480549050610af191906114fb565b600360008381526020019081526020016000206006018190555042600360008381526020019081526020016000206007018190555060006003600083815260200190815260200160002060080160006101000a81548160ff02191690836002811115610b86577f4e487b7100000000000000000000000000000000000000000000000000000000600052602160045260246000fd5b02179055503073ffffffffffffffffffffffffffffffffffffffff167fc41039f832f30470d1a983be3dc26f5432197ae33f31f1170f73fccfd67439fb86604051610bd191906113cc565b60405180910390a260019250505092915050565b60058181548110610bf557600080fd5b906000526020600020016000915090508054610c10906115e8565b80601f0160208091040260200160405190810160405280929190818152602001828054610c3c906115e8565b8015610c895780601f10610c5e57610100808354040283529160200191610c89565b820191906000526020600020905b815481529060010190602001808311610c6c57829003601f168201915b505050505081565b610c99610e3a565b73ffffffffffffffffffffffffffffffffffffffff16610cb7610545565b73ffffffffffffffffffffffffffffffffffffffff1614610d0d576040517f08c379a0000000000000000000000000000000000000000000000000000000008152600401610d049061142e565b60405180910390fd5b600073ffffffffffffffffffffffffffffffffffffffff168173ffffffffffffffffffffffffffffffffffffffff161415610d7d576040517f08c379a0000000000000000000000000000000000000000000000000000000008152600401610d749061140e565b60405180910390fd5b8073ffffffffffffffffffffffffffffffffffffffff1660008054906101000a900473ffffffffffffffffffffffffffffffffffffffff1673ffffffffffffffffffffffffffffffffffffffff167f8be0079c531659141344cd1fd0a4f28419497f9722a3daafe3b4186f6b6457e060405160405180910390a3806000806101000a81548173ffffffffffffffffffffffffffffffffffffffff021916908373ffffffffffffffffffffffffffffffffffffffff16021790555050565b600033905090565b828054610e4e906115e8565b90600052602060002090601f016020900481019282610e705760008555610eb7565b82601f10610e8957805160ff1916838001178555610eb7565b82800160010185558215610eb7579182015b82811115610eb6578251825591602001919060010190610e9b565b5b509050610ec49190610ec8565b5090565b5b80821115610ee1576000816000905550600101610ec9565b5090565b6000610ef8610ef38461148e565b611469565b905082815260208101848484011115610f1057600080fd5b610f1b8482856115a6565b509392505050565b600081359050610f3281611881565b92915050565b600081359050610f4781611898565b92915050565b600082601f830112610f5e57600080fd5b8135610f6e848260208601610ee5565b91505092915050565b600081359050610f86816118af565b92915050565b600060208284031215610f9e57600080fd5b6000610fac84828501610f23565b91505092915050565b600060208284031215610fc757600080fd5b6000610fd584828501610f38565b91505092915050565b600060208284031215610ff057600080fd5b600082013567ffffffffffffffff81111561100a57600080fd5b61101684828501610f4d565b91505092915050565b6000806040838503121561103257600080fd5b600083013567ffffffffffffffff81111561104c57600080fd5b61105885828601610f4d565b925050602061106985828601610f77565b9150509250929050565b60006020828403121561108557600080fd5b600061109384828501610f77565b91505092915050565b6110a58161152f565b82525050565b6110bc6110b78261152f565b611694565b82525050565b6110cb81611541565b82525050565b6110da8161154d565b82525050565b6110f16110ec8261154d565b6116a6565b82525050565b61110081611594565b82525050565b6000611111826114d4565b61111b81856114df565b935061112b8185602086016115b5565b61113481611788565b840191505092915050565b600061114a826114d4565b61115481856114f0565b93506111648185602086016115b5565b80840191505092915050565b6000815461117d816115e8565b61118781866114f0565b945060018216600081146111a257600181146111b3576111e6565b60ff198316865281860193506111e6565b6111bc856114bf565b60005b838110156111de578154818901526001820191506020810190506111bf565b838801955050505b50505092915050565b60006111fc6025836114df565b9150611207826117a6565b604082019050919050565b600061121f6026836114df565b915061122a826117f5565b604082019050919050565b60006112426020836114df565b915061124d82611844565b602082019050919050565b6112618161158a565b82525050565b6112786112738261158a565b6116c2565b82525050565b600061128a82876110ab565b60148201915061129a828661113f565b91506112a68285611267565b6020820191506112b682846110e0565b60208201915081905095945050505050565b60006112d4828461113f565b915081905092915050565b60006112eb8284611170565b915081905092915050565b600060208201905061130b600083018461109c565b92915050565b600060208201905061132660008301846110c2565b92915050565b600061010082019050611342600083018b6110d1565b8181036020830152611354818a611106565b9050611363604083018961109c565b6113706060830188611258565b61137d6080830187611258565b61138a60a0830186611258565b61139760c0830185611258565b6113a460e08301846110f7565b9998505050505050505050565b60006020820190506113c660008301846110f7565b92915050565b600060208201905081810360008301526113e68184611106565b905092915050565b60006020820190508181036000830152611407816111ef565b9050919050565b6000602082019050818103600083015261142781611212565b9050919050565b6000602082019050818103600083015261144781611235565b9050919050565b60006020820190506114636000830184611258565b92915050565b6000611473611484565b905061147f828261161a565b919050565b6000604051905090565b600067ffffffffffffffff8211156114a9576114a8611759565b5b6114b282611788565b9050602081019050919050565b60008190508160005260206000209050919050565b600081519050919050565b600082825260208201905092915050565b600081905092915050565b60006115068261158a565b91506115118361158a565b925082821015611524576115236116cc565b5b828203905092915050565b600061153a8261156a565b9050919050565b60008115159050919050565b6000819050919050565b60008190506115658261186d565b919050565b600073ffffffffffffffffffffffffffffffffffffffff82169050919050565b6000819050919050565b600061159f82611557565b9050919050565b82818337600083830152505050565b60005b838110156115d35780820151818401526020810190506115b8565b838111156115e2576000848401525b50505050565b6000600282049050600182168061160057607f821691505b602082108114156116145761161361172a565b5b50919050565b61162382611788565b810181811067ffffffffffffffff8211171561164257611641611759565b5b80604052505050565b60006116568261158a565b91507fffffffffffffffffffffffffffffffffffffffffffffffffffffffffffffffff821415611689576116886116cc565b5b600182019050919050565b600061169f826116b0565b9050919050565b6000819050919050565b60006116bb82611799565b9050919050565b6000819050919050565b7f4e487b7100000000000000000000000000000000000000000000000000000000600052601160045260246000fd5b7f4e487b7100000000000000000000000000000000000000000000000000000000600052602160045260246000fd5b7f4e487b7100000000000000000000000000000000000000000000000000000000600052602260045260246000fd5b7f4e487b7100000000000000000000000000000000000000000000000000000000600052604160045260246000fd5b6000601f19601f8301169050919050565b60008160601b9050919050565b7f5468652067726f75706e616d652773206e616d652063616e6e6f74206265206560008201527f6d70747921000000000000000000000000000000000000000000000000000000602082015250565b7f4f776e61626c653a206e6577206f776e657220697320746865207a65726f206160008201527f6464726573730000000000000000000000000000000000000000000000000000602082015250565b7f4f776e61626c653a2063616c6c6572206973206e6f7420746865206f776e6572600082015250565b6003811061187e5761187d6116fb565b5b50565b61188a8161152f565b811461189557600080fd5b50565b6118a18161154d565b81146118ac57600080fd5b50565b6118b88161158a565b81146118c357600080fd5b5056fea2646970667358221220404c5c7fbe2cd945a2158f03d1f80fec9c9cf30842581be9421f0a0c86cf09dc64736f6c63430008030033",
  "immutableReferences": {},
  "source": "// SPDX-License-Identifier: MIT\n\npragma solidity ^0.8.0;\npragma experimental ABIEncoderV2;\n\nimport \"@openzeppelin/contracts/access/Ownable.sol\";\nimport \"./LiteSwapDAO1.sol\";\nimport \"@openzeppelin/contracts/utils/math/SafeMath.sol\";\n\ncontract LiteSwapDAOFactory is Ownable {\n\n\n  using SafeMath for uint;\n\n    struct CooperativeGroup{\n        address[] memberList;\n        uint groupIndex;\n    }\n\n    LiteSwapDAO1 new_cooperative;\n\n    mapping(address => CooperativeGroup) groupMapping;\n    address[] public cooperativeGroups;\n\n    string[] public createdGroupNames;\n\n    address public currentGroupAddress;\n    string public currentGroupName;\n\n  /// Empty constructor\n  constructor() public {\n    new_cooperative = new LiteSwapDAO1();\n  }\n\n  //create Cooperative Group\n  function createCooperativeGroup(string memory groupName, uint amount) public payable returns (bool) {\n       new_cooperative.createCooperativeGroup(groupName, amount );\n\n  }\n\n//All users to join a cooperative group\n  function joinCooperativeGroup(string memory groupName) public payable returns (bool) {\n    new_cooperative.addMember(groupName);\n  }\n\n  //get group members count\n\n  function getGroupCount(string memory name) public payable returns (uint){\n          new_cooperative.getAllGroupMembersCount(name);\n  }\n\n    /// Allow retrieving the the array of created contracts\n  /// @return An array of all created Cooperative Group contracts\n  function getcooperativeGroups() public view returns(address[] memory) {\n    return cooperativeGroups;\n  }\n\n      /// Allow retrieving the the array of created group names\n  /// @return An array of all created Cooperative Group names contracts\n  function getcooperativeGroupNames() public view returns (string[] memory) {\n    return createdGroupNames;\n  }\n\n}",
  "sourcePath": "/home/emplug7/applications/liteswapv1/contracts/LiteSwapDAOFactory.sol",
  "compiler": {
    "name": "solc",
    "version": "0.8.3+commit.8d00100c.Emscripten.clang"
  },
  "schemaVersion": "3.3.4",
  "updatedAt": "2021-04-20T12:53:19.284Z",
  "networkType": "ethereum",
  "devdoc": {
    "kind": "dev",
    "methods": {
      "getcooperativeGroupNames()": {
        "returns": {
          "_0": "An array of all created Cooperative Group names contracts"
        }
      },
      "getcooperativeGroups()": {
        "returns": {
          "_0": "An array of all created Cooperative Group contracts"
        }
      },
      "owner()": {
        "details": "Returns the address of the current owner."
      },
      "renounceOwnership()": {
        "details": "Leaves the contract without owner. It will not be possible to call `onlyOwner` functions anymore. Can only be called by the current owner. NOTE: Renouncing ownership will leave the contract without an owner, thereby removing any functionality that is only available to the owner."
      },
      "transferOwnership(address)": {
        "details": "Transfers ownership of the contract to a new account (`newOwner`). Can only be called by the current owner."
      }
    },
    "version": 1
  },
  "userdoc": {
    "kind": "user",
    "methods": {
      "constructor": {
        "notice": "Empty constructor"
      },
      "getcooperativeGroupNames()": {
        "notice": "Allow retrieving the the array of created group names"
      },
      "getcooperativeGroups()": {
        "notice": "Allow retrieving the the array of created contracts"
      }
    },
    "version": 1
  }
}