{
  "contractName": "TokenFarm",
  "abi": [
    {
      "inputs": [
        {
          "internalType": "contract DaiToken",
          "name": "_DaiToken",
          "type": "address"
        },
        {
          "internalType": "contract LiteswapToken",
          "name": "_LiteswapToken",
          "type": "address"
        }
      ],
      "stateMutability": "nonpayable",
      "type": "constructor"
    },
    {
      "inputs": [],
      "name": "daiToken",
      "outputs": [
        {
          "internalType": "contract DaiToken",
          "name": "",
          "type": "address"
        }
      ],
      "stateMutability": "view",
      "type": "function"
    },
    {
      "inputs": [
        {
          "internalType": "address",
          "name": "",
          "type": "address"
        }
      ],
      "name": "hasStaked",
      "outputs": [
        {
          "internalType": "bool",
          "name": "",
          "type": "bool"
        }
      ],
      "stateMutability": "view",
      "type": "function"
    },
    {
      "inputs": [
        {
          "internalType": "address",
          "name": "",
          "type": "address"
        }
      ],
      "name": "isStaking",
      "outputs": [
        {
          "internalType": "bool",
          "name": "",
          "type": "bool"
        }
      ],
      "stateMutability": "view",
      "type": "function"
    },
    {
      "inputs": [],
      "name": "liteswapToken",
      "outputs": [
        {
          "internalType": "contract LiteswapToken",
          "name": "",
          "type": "address"
        }
      ],
      "stateMutability": "view",
      "type": "function"
    },
    {
      "inputs": [],
      "name": "name",
      "outputs": [
        {
          "internalType": "string",
          "name": "",
          "type": "string"
        }
      ],
      "stateMutability": "view",
      "type": "function"
    },
    {
      "inputs": [],
      "name": "owner",
      "outputs": [
        {
          "internalType": "address",
          "name": "",
          "type": "address"
        }
      ],
      "stateMutability": "view",
      "type": "function"
    },
    {
      "inputs": [
        {
          "internalType": "uint256",
          "name": "",
          "type": "uint256"
        }
      ],
      "name": "staker",
      "outputs": [
        {
          "internalType": "address",
          "name": "",
          "type": "address"
        }
      ],
      "stateMutability": "view",
      "type": "function"
    },
    {
      "inputs": [
        {
          "internalType": "address",
          "name": "",
          "type": "address"
        }
      ],
      "name": "stakingBalance",
      "outputs": [
        {
          "internalType": "uint256",
          "name": "",
          "type": "uint256"
        }
      ],
      "stateMutability": "view",
      "type": "function"
    },
    {
      "inputs": [
        {
          "internalType": "uint256",
          "name": "_amount",
          "type": "uint256"
        }
      ],
      "name": "stakeToken",
      "outputs": [],
      "stateMutability": "nonpayable",
      "type": "function"
    },
    {
      "inputs": [],
      "name": "unstakeToken",
      "outputs": [],
      "stateMutability": "nonpayable",
      "type": "function"
    },
    {
      "inputs": [
        {
          "internalType": "address",
          "name": "_owner",
          "type": "address"
        }
      ],
      "name": "stakeAmount",
      "outputs": [
        {
          "internalType": "uint256",
          "name": "",
          "type": "uint256"
        }
      ],
      "stateMutability": "view",
      "type": "function"
    },
    {
      "inputs": [],
      "name": "issusToken",
      "outputs": [],
      "stateMutability": "nonpayable",
      "type": "function"
    }
  ],
  "bytecode": "0x60806040526040518060400160405280601381526020017f4c6974657377617020546f6b656e204661726d00000000000000000000000000815250600090805190602001906200005192919062000150565b503480156200005f57600080fd5b506040516200154b3803806200154b83398181016040528101906200008591906200022e565b80600160006101000a81548173ffffffffffffffffffffffffffffffffffffffff021916908373ffffffffffffffffffffffffffffffffffffffff16021790555081600260006101000a81548173ffffffffffffffffffffffffffffffffffffffff021916908373ffffffffffffffffffffffffffffffffffffffff16021790555033600360006101000a81548173ffffffffffffffffffffffffffffffffffffffff021916908373ffffffffffffffffffffffffffffffffffffffff160217905550505062000364565b8280546200015e90620002cb565b90600052602060002090601f016020900481019282620001825760008555620001ce565b82601f106200019d57805160ff1916838001178555620001ce565b82800160010185558215620001ce579182015b82811115620001cd578251825591602001919060010190620001b0565b5b509050620001dd9190620001e1565b5090565b5b80821115620001fc576000816000905550600101620001e2565b5090565b600081519050620002118162000330565b92915050565b60008151905062000228816200034a565b92915050565b600080604083850312156200024257600080fd5b6000620002528582860162000200565b9250506020620002658582860162000217565b9150509250929050565b60006200027c82620002ab565b9050919050565b600062000290826200026f565b9050919050565b6000620002a4826200026f565b9050919050565b600073ffffffffffffffffffffffffffffffffffffffff82169050919050565b60006002820490506001821680620002e457607f821691505b60208210811415620002fb57620002fa62000301565b5b50919050565b7f4e487b7100000000000000000000000000000000000000000000000000000000600052602260045260246000fd5b6200033b8162000283565b81146200034757600080fd5b50565b620003558162000297565b81146200036157600080fd5b50565b6111d780620003746000396000f3fe608060405234801561001057600080fd5b50600436106100b45760003560e01c8063a0c135c811610071578063a0c135c814610169578063be22f54614610187578063bf135267146101a5578063c93c8f34146101d5578063cda6b84714610205578063ea38fab014610221576100b4565b806306fdde03146100b957806320eb640c146100d757806336d58fd2146100e157806345bc78ab146100eb5780636f49712b1461011b5780638da5cb5b1461014b575b600080fd5b6100c1610251565b6040516100ce9190610e25565b60405180910390f35b6100df6102df565b005b6100e9610506565b005b61010560048036038101906101009190610bf1565b610775565b6040516101129190610ea7565b60405180910390f35b61013560048036038101906101309190610bf1565b61078d565b6040516101429190610dd4565b60405180910390f35b6101536107ad565b6040516101609190610d59565b60405180910390f35b6101716107d3565b60405161017e9190610e0a565b60405180910390f35b61018f6107f9565b60405161019c9190610def565b60405180910390f35b6101bf60048036038101906101ba9190610bf1565b61081f565b6040516101cc9190610ea7565b60405180910390f35b6101ef60048036038101906101ea9190610bf1565b610868565b6040516101fc9190610dd4565b60405180910390f35b61021f600480360381019061021a9190610c43565b610888565b005b61023b60048036038101906102369190610c43565b610b73565b6040516102489190610d59565b60405180910390f35b6000805461025e90610ff7565b80601f016020809104026020016040519081016040528092919081815260200182805461028a90610ff7565b80156102d75780601f106102ac576101008083540402835291602001916102d7565b820191906000526020600020905b8154815290600101906020018083116102ba57829003601f168201915b505050505081565b60011515600660003373ffffffffffffffffffffffffffffffffffffffff1673ffffffffffffffffffffffffffffffffffffffff16815260200190815260200160002060009054906101000a900460ff16151514610372576040517f08c379a000000000000000000000000000000000000000000000000000000000815260040161036990610e47565b60405180910390fd5b6000600460003373ffffffffffffffffffffffffffffffffffffffff1673ffffffffffffffffffffffffffffffffffffffff1681526020019081526020016000205490506000600460003373ffffffffffffffffffffffffffffffffffffffff1673ffffffffffffffffffffffffffffffffffffffff16815260200190815260200160002081905550600260009054906101000a900473ffffffffffffffffffffffffffffffffffffffff1673ffffffffffffffffffffffffffffffffffffffff1663a9059cbb33836040518363ffffffff1660e01b8152600401610458929190610dab565b602060405180830381600087803b15801561047257600080fd5b505af1158015610486573d6000803e3d6000fd5b505050506040513d601f19601f820116820180604052508101906104aa9190610c1a565b506000600660003373ffffffffffffffffffffffffffffffffffffffff1673ffffffffffffffffffffffffffffffffffffffff16815260200190815260200160002060006101000a81548160ff02191690831515021790555050565b600360009054906101000a900473ffffffffffffffffffffffffffffffffffffffff1673ffffffffffffffffffffffffffffffffffffffff163373ffffffffffffffffffffffffffffffffffffffff1614610596576040517f08c379a000000000000000000000000000000000000000000000000000000000815260040161058d90610e87565b60405180910390fd5b60005b600780549050811015610772576000600782815481106105e2577f4e487b7100000000000000000000000000000000000000000000000000000000600052603260045260246000fd5b9060005260206000200160009054906101000a900473ffffffffffffffffffffffffffffffffffffffff16905060011515600660008373ffffffffffffffffffffffffffffffffffffffff1673ffffffffffffffffffffffffffffffffffffffff16815260200190815260200160002060009054906101000a900460ff161515141561075e576000600460008373ffffffffffffffffffffffffffffffffffffffff1673ffffffffffffffffffffffffffffffffffffffff168152602001908152602001600020549050600160009054906101000a900473ffffffffffffffffffffffffffffffffffffffff1673ffffffffffffffffffffffffffffffffffffffff1663a9059cbb83836040518363ffffffff1660e01b8152600401610709929190610dab565b602060405180830381600087803b15801561072357600080fd5b505af1158015610737573d6000803e3d6000fd5b505050506040513d601f19601f8201168201806040525081019061075b9190610c1a565b50505b50808061076a90611029565b915050610599565b50565b60046020528060005260406000206000915090505481565b60066020528060005260406000206000915054906101000a900460ff1681565b600360009054906101000a900473ffffffffffffffffffffffffffffffffffffffff1681565b600160009054906101000a900473ffffffffffffffffffffffffffffffffffffffff1681565b600260009054906101000a900473ffffffffffffffffffffffffffffffffffffffff1681565b6000600460008373ffffffffffffffffffffffffffffffffffffffff1673ffffffffffffffffffffffffffffffffffffffff168152602001908152602001600020549050919050565b60056020528060005260406000206000915054906101000a900460ff1681565b600081116108cb576040517f08c379a00000000000000000000000000000000000000000000000000000000081526004016108c290610e67565b60405180910390fd5b600260009054906101000a900473ffffffffffffffffffffffffffffffffffffffff1673ffffffffffffffffffffffffffffffffffffffff166323b872dd3330846040518463ffffffff1660e01b815260040161092a93929190610d74565b602060405180830381600087803b15801561094457600080fd5b505af1158015610958573d6000803e3d6000fd5b505050506040513d601f19601f8201168201806040525081019061097c9190610c1a565b5080600460003373ffffffffffffffffffffffffffffffffffffffff1673ffffffffffffffffffffffffffffffffffffffff168152602001908152602001600020546109c89190610ede565b600460003373ffffffffffffffffffffffffffffffffffffffff1673ffffffffffffffffffffffffffffffffffffffff16815260200190815260200160002081905550600560003373ffffffffffffffffffffffffffffffffffffffff1673ffffffffffffffffffffffffffffffffffffffff16815260200190815260200160002060009054906101000a900460ff16610ac0576007339080600181540180825580915050600190039060005260206000200160009091909190916101000a81548173ffffffffffffffffffffffffffffffffffffffff021916908373ffffffffffffffffffffffffffffffffffffffff1602179055505b6001600660003373ffffffffffffffffffffffffffffffffffffffff1673ffffffffffffffffffffffffffffffffffffffff16815260200190815260200160002060006101000a81548160ff0219169083151502179055506001600560003373ffffffffffffffffffffffffffffffffffffffff1673ffffffffffffffffffffffffffffffffffffffff16815260200190815260200160002060006101000a81548160ff02191690831515021790555050565b60078181548110610b8357600080fd5b906000526020600020016000915054906101000a900473ffffffffffffffffffffffffffffffffffffffff1681565b600081359050610bc18161115c565b92915050565b600081519050610bd681611173565b92915050565b600081359050610beb8161118a565b92915050565b600060208284031215610c0357600080fd5b6000610c1184828501610bb2565b91505092915050565b600060208284031215610c2c57600080fd5b6000610c3a84828501610bc7565b91505092915050565b600060208284031215610c5557600080fd5b6000610c6384828501610bdc565b91505092915050565b610c7581610f34565b82525050565b610c8481610f46565b82525050565b610c9381610f7c565b82525050565b610ca281610fa0565b82525050565b6000610cb382610ec2565b610cbd8185610ecd565b9350610ccd818560208601610fc4565b610cd6816110d0565b840191505092915050565b6000610cee601c83610ecd565b9150610cf9826110e1565b602082019050919050565b6000610d11601d83610ecd565b9150610d1c8261110a565b602082019050919050565b6000610d34601383610ecd565b9150610d3f82611133565b602082019050919050565b610d5381610f72565b82525050565b6000602082019050610d6e6000830184610c6c565b92915050565b6000606082019050610d896000830186610c6c565b610d966020830185610c6c565b610da36040830184610d4a565b949350505050565b6000604082019050610dc06000830185610c6c565b610dcd6020830184610d4a565b9392505050565b6000602082019050610de96000830184610c7b565b92915050565b6000602082019050610e046000830184610c8a565b92915050565b6000602082019050610e1f6000830184610c99565b92915050565b60006020820190508181036000830152610e3f8184610ca8565b905092915050565b60006020820190508181036000830152610e6081610ce1565b9050919050565b60006020820190508181036000830152610e8081610d04565b9050919050565b60006020820190508181036000830152610ea081610d27565b9050919050565b6000602082019050610ebc6000830184610d4a565b92915050565b600081519050919050565b600082825260208201905092915050565b6000610ee982610f72565b9150610ef483610f72565b9250827fffffffffffffffffffffffffffffffffffffffffffffffffffffffffffffffff03821115610f2957610f28611072565b5b828201905092915050565b6000610f3f82610f52565b9050919050565b60008115159050919050565b600073ffffffffffffffffffffffffffffffffffffffff82169050919050565b6000819050919050565b6000610f8782610f8e565b9050919050565b6000610f9982610f52565b9050919050565b6000610fab82610fb2565b9050919050565b6000610fbd82610f52565b9050919050565b60005b83811015610fe2578082015181840152602081019050610fc7565b83811115610ff1576000848401525b50505050565b6000600282049050600182168061100f57607f821691505b60208210811415611023576110226110a1565b5b50919050565b600061103482610f72565b91507fffffffffffffffffffffffffffffffffffffffffffffffffffffffffffffffff82141561106757611066611072565b5b600182019050919050565b7f4e487b7100000000000000000000000000000000000000000000000000000000600052601160045260246000fd5b7f4e487b7100000000000000000000000000000000000000000000000000000000600052602260045260246000fd5b6000601f19601f8301169050919050565b7f596f752068617665206e6f7468696e6720746f20756e7374616b652e00000000600082015250565b7f616d6f756e74206e65656420746f206265206d6f7265207468616e2030000000600082015250565b7f747261646572206973206e6f74206f776e657200000000000000000000000000600082015250565b61116581610f34565b811461117057600080fd5b50565b61117c81610f46565b811461118757600080fd5b50565b61119381610f72565b811461119e57600080fd5b5056fea2646970667358221220f65daf369eadfd9d3aec2786d8da1ae7c99bd48a614adb25cefbb015b1df28ab64736f6c63430008040033",
  "immutableReferences": {},
  "source": "pragma solidity ^0.8.0;\r\n// Import contracts for both Dapp and DAI token.\r\nimport \"./DaiToken.sol\";\r\nimport \"./LiteswapToken.sol\";\r\n\r\n\r\ncontract TokenFarm{\r\n    string public name = \"Liteswap Token Farm\";\r\n    LiteswapToken public liteswapToken;\r\n    DaiToken public daiToken;\r\n    address public owner;\r\n\r\n    mapping(address=>uint) public stakingBalance;\r\n    mapping(address=>bool) public hasStaked;\r\n    mapping(address=>bool) public isStaking;\r\n\r\n    address[] public staker;\r\n\r\n    constructor (DaiToken _DaiToken, LiteswapToken _LiteswapToken) public{\r\n        liteswapToken = _LiteswapToken;\r\n        daiToken = _DaiToken;\r\n        owner = msg.sender; // address of the owner of the contract\r\n    }\r\n    \r\n    // @param _amount The amount of the tokens you want to stake.\r\n    function stakeToken(uint _amount) public {\r\n        \r\n        // check, amount should be greater than zero. There should be some tokens to be staked.\r\n        require(_amount>0,\"amount need to be more than 0\");         \r\n        \r\n       \r\n        // @param _amount, the amount of tokens you want to stake .\r\n        daiToken.transferFrom(msg.sender, address(this), _amount); \r\n        \r\n        // The balance of the owner of the contract, after staking the coins.\r\n        stakingBalance[msg.sender] = stakingBalance[msg.sender] + _amount;\r\n        \r\n        if(!hasStaked[msg.sender]){\r\n            staker.push(msg.sender);\r\n        }\r\n        isStaking[msg.sender] = true;\r\n        hasStaked[msg.sender] = true;\r\n    }\r\n       \r\n       \r\n       //require checks if the condition is true, thows the exceptionotherwise 'trader is not owner'.\r\n       //if the require condition is true, then all the tokens that are staked, are unstaked .\r\n    function unstakeToken() public {\r\n        require(isStaking[msg.sender] == true,\"You have nothing to unstake.\");\r\n        uint balance = stakingBalance[msg.sender];\r\n        stakingBalance[msg.sender] = 0;\r\n        daiToken.transfer(msg.sender,balance);\r\n        isStaking[msg.sender] = false;\r\n    }\r\n   //@param _owner is the address of the owner which is msg.sender\r\n   // returns the staking balance\r\n    function stakeAmount(address _owner) public view returns(uint) {\r\n        return stakingBalance[_owner];\r\n    }\r\n// \r\n    function issusToken() public {\r\n        require(msg.sender == owner,\"trader is not owner\");\r\n        for(uint i=0; i<staker.length;i++){\r\n            address recipient = staker[i];\r\n            if(isStaking[recipient] == true){\r\n                uint balance = stakingBalance[recipient];\r\n                liteswapToken.transfer(recipient, balance);\r\n            }\r\n        }\r\n    }\r\n\r\n}",
  "sourcePath": "/home/emplug7/applications/liteswapv1/contracts/TokenFarm.sol",
  "compiler": {
    "name": "solc",
    "version": "0.8.4+commit.c7e474f2.Emscripten.clang"
  },
  "schemaVersion": "3.3.4",
  "updatedAt": "2021-04-26T11:59:46.018Z",
  "devdoc": {
    "kind": "dev",
    "methods": {},
    "version": 1
  },
  "userdoc": {
    "kind": "user",
    "methods": {},
    "version": 1
  }
}